:020000040800F2
:10000000B8070020750100088D1F0008091C0008B2
:1000100000000000000000000000000000000000E0
:10002000000000000000000000000000911F000818
:1000300000000000000000008F1F0008931F000850
:100040008701000800000000870100088701000800
:100050008701000887010008870100088701000860
:1000600000000000870100088701000887010008E0
:1000700087010008870100088701000800000000D0
:100080008701000800000000000000008701000850
:1000900000000000870100088701000887010008B0
:1000A0008701000887010008870100088701000810
:1000B00087010008000000000000000000000000B0
:1000C00000F002F800F046F80CA030C808382418F8
:1000D0002D18671EA246AB4654465D46AC4201D180
:1000E00000F038F87E460F3EB6460FCC012633426C
:1000F00000D0FB1A3343A246AB461847602A0000E3
:10010000802A0000103A02D378C878C1FAD8520782
:1001100001D330C830C101D504680C6070470000BD
:100120000023002400250026103A01D378C1FBD813
:10013000520700D330C100D50B60704710B573294A
:1001400002D100F0F0F810BD002010BD1FB51FBD9A
:1001500010B510BD00F01CF91146FFF7F7FF02F0D3
:10016000B9FA00F034F903B4FFF7F2FF03BC02F070
:10017000D1F800000748804707480047FEE7FEE740
:10018000FEE7FEE7FEE7FEE704480549054A064BA1
:10019000704700009B1F0008C1000008B801002044
:1001A000B8070020B8030020B80300207047000003
:1001B0000FB4054910B503AA029800F0B9F810BCB5
:1001C00008BC04B01847000078000020F8B50E46BF
:1001D0000446002020622046E1688847002829D094
:1001E000252802D06268A16820E0E1682046002747
:1001F000884705001ED028464138192802D8012713
:10020000FF0220353246204627602946FFF796FF39
:10021000002808D0012804D0F61DF608F60008369C
:10022000D9E7361DD7E762682846A1689047206A5B
:10023000401CCFE7206AF8BD70B50C460546012A80
:1002400005D02878800600D5EA69002302E0012362
:1002500005E05B1C934202D2E05C0028F9D1A8695A
:10026000E618C01AA861286AC01828622846C04645
:10027000C04604E06A682078A968641C9047B442CC
:10028000F8D32846C046C04670BD000010B50446ED
:1002900003E002F041F8401C08D020780549641CB6
:1002A0000028F6D10A2002F037F810BD0020C04324
:1002B00010BD00007800002001E004C0091F0429DF
:1002C000FBD28B0701D50280801CC90700D00270C9
:1002D000704700290BD0C30702D00270401C491E92
:1002E000022904D3830702D50280801C891EE3E71C
:1002F0000022EEE70022DFE7704770477047704743
:1003000010B54369002B02D0C046C04601E0FFF79C
:1003100093FF012010BD1278014624310A7000229B
:100320004A700122ECE711680022D243E8E700009E
:10033000084B70B50D467B4400F013F80446284680
:1003400000F022F8002802D00020C04370BD2046F3
:1003500070BD0000DF1F000001694A1C02610878BF
:10036000704700B58FB002910021059105490193B6
:1003700079440391114604906846FFF727FF0FB0B8
:1003800000BD0000E5FFFFFFC06880210840704706
:10039000754600F025F8AE46050069465346C0088C
:1003A000C000854618B020B5FFF7EEFE60BCB6462B
:1003B00000260027C0C5C0C5C0C5C0C5C0C5C0C5D2
:1003C000C0C5C0C5403D490849008D46704710B5BD
:1003D0000446C046C0462046FFF7C5FE10BD0000DB
:1003E0000048704718000020F0B585B0C74F386846
:1003F000C54E02960124019404AD0095A121FF226F
:10040000234600F013FB2878552802D1002005B0C0
:10041000F0BD314604AE5520307038680096019426
:100420000291A021FF252A46234600F06FFC1420EC
:1004300000F074F9386800960194B3490291A12143
:100440002A46234600F0F2FA30785538411E88419A
:1004500005B0F0BD0020704710B50024012907D178
:1004600007A1052310461A4602F020F9002801D002
:10047000204610BDFFF7B8FF0446204610BDC04619
:10048000636865636B0000000020704700207047C0
:10049000F0B585B015460F46082B049302D21C46D2
:1004A0003E46C3E0F817400F391807208143791AF8
:1004B0005A1A082A02D23E461C46B9E0924A00293E
:1004C00000D184E0384000D181E0904800680123E9
:1004D000009501930292BAB2A1211C4600F0A6FA3F
:1004E00003956D1C7E1C700775D0884800680095C8
:1004F0002346019484490291B2B2A12100F096FAF8
:100500000398851CBE1C700768D080480068009561
:10051000234601947C490291B2B2A12100F086FAEF
:100520000398C51CFE1C70075BD0784800680095D6
:100530002346019474490291B2B2A12100F076FAE7
:100540000398051D3E1D70074ED070480068009549
:10055000234601946C490291B2B2A12100F066FADF
:100560000398451D7E1D700741D0684800680095BE
:100570002346019464490291B2B2A12100F056FAD7
:100580000398851DBE1D700734D060480068009533
:10059000234601945C490291B2B2A12100F046FACF
:1005A0000398C51DFE1D700727D0584800680095A8
:1005B000019455490291B2B2A121234600F036FAC6
:1005C000049C083C039D083508373E4617E03E462C
:1005D0001C46174616E00498441E10E00498841E3A
:1005E0000DE00498C41E0AE00498041F07E0049874
:1005F000441F04E00498841F01E00498C41F082CE1
:10060000414F13D34148006808210095019102979A
:10061000F117490F72183E490A40A121012300F049
:1006200005FA083C08350836072CEBD8002C0ED00C
:10063000364F386801230095019333490291B2B2D5
:10064000A12100F0F3F96D1C761C641EF1D1049811
:1006500005B0F0BDF0B585B01C4615460E46082B1A
:10066000049301D2274638E0F017400F30180727CF
:10067000B843301A211A082901D227462FE022490F
:10068000002811D0214800680123009501930291B0
:10069000B2B2A02100F03AFB052000F03FF8641E42
:1006A0006D1C761C082C1AD32746174C1748006877
:1006B0000821009501910294F117490F721814490D
:1006C0000A40A021012300F021FB052000F026F8BC
:1006D000083F08350836072FE8D8002F11D00B4CFB
:1006E000206801230095019307490291B2B2A0212D
:1006F00000F00CFB052000F011F86D1C761C7F1E2D
:10070000EED1049805B0F0BDFFFF000010000020FE
:10071000F8FF0000EFF3108072B6FEE7B0B50446B4
:1007200000F0E8F80546601C02D00448007804197F
:1007300000F0E0F8401BA042FAD3B0BD0400002056
:10074000F0B58AB00A68002A00D1BEE00E466049C2
:10075000884201D0052100E003210091002708977D
:1007600009973C46029601900FE01A432A60641CE8
:1007700032681146E140BF1C089B1B1D0893099B72
:1007800008330993002900D19FE001250495A54075
:100790002A400792EBD003231846B840C04339469D
:1007A00077683A461A40561E012E0697059112D8D0
:1007B00006460390019883683340029EF6688E4097
:1007C0001E438660FB06DB0FA3404668AE431E4314
:1007D0004660039908E0032A0146019804D11A46AD
:1007E000029E069D059F1DE0C3680B40029EB568F2
:1007F000059FBD401D43C560022A069D12D103918D
:100800001C21089A11400F228A40E3089B00C3185C
:100810001D6A954332698A4003992A431A627568B2
:1008200003222A40BA4003680B4013430360A90324
:10083000890F9CD01821099A11400F238B40032265
:1008400025469543234A5219156E9D436032052370
:100850001B0798420AD0214B984205D0204B984262
:10086000009B04D1022302E0049B00E000238B40A4
:100870002B431360174D2A687168CB0208D5079B7C
:100880001A432A606A688B0208D4079B9A4307E0E0
:10089000079B9A432A606A688B02F6D5079B1A4326
:1008A0006A600D4D6A688B0306D5079B1A436A6020
:1008B0002A68C90307D558E7079B9A436A602A68E4
:1008C000C90300D551E79A4350E70AB0F0BDC046CE
:1008D000000C005000180240801802400004005034
:1008E00000080050002A02D01822815070472822A8
:1008F00081507047014800687047C046B40100202D
:10090000B0B50246034640335C780220202C17D154
:100910001C78012C14D0242058701068026801241F
:10092000A2430260220305689543056002680A43FA
:100930000260016821430160002018702021597075
:10094000B0BDB0B50246034640335C780220202C8F
:1009500017D11C78012C14D024205870106802681C
:100960000124A24302600F22120205689543090286
:100970002943016001682143016000201870202193
:100980005970B0BDF0B581B0002822D004460546AC
:1009900040356878002804D100202870204600F0F7
:1009A00003FB242068702068026801218A430260EA
:1009B0000F2212066368934303618368194A134048
:1009C0008360A368E668012E06D1CE0333438360BB
:1009D0000AE0012001B0F0BD2127BF023B43836044
:1009E000022E01D1CB02436043680F4E1E43466086
:1009F000C3681340C360226963691343A26912028A
:100A00001A43C260E269236A1343036002680A431F
:100A1000026000206064202169702063A87001B02A
:100A2000F0BDC046FF7FFFFF00800002F0B589B037
:100A30000546089040356C780220202C09D1069399
:100A40000E9E002E07D00F9F002F04D02C78012C73
:100A500007D109B0F0BD01204102089A516409B0E4
:100A6000F0BD029203910120049505902870FFF7D4
:100A700041FF0790089D2868816909040BD50598F6
:100A8000C403FFF737FF0799401A192836D828689A
:100A900081692142F5D1109A2221049B597040218D
:100AA000997000246C646F8517466E626C6393497D
:100AB000039A0A402E46069DE9B20904039289185A
:100AC00042688F4B1A4089180122059252038918F7
:100AD000416030463946079A01F08CF900280498A5
:100AE00003D00470059809B0F0BD01943068012D61
:100AF00010D10299C9B281623A461DE0686C20218A
:100B000008436864049A5170002010709070059832
:100B100009B0F0BD0299090A816230463D46394666
:100B2000079A01F067F90028019C0498D9D1306830
:100B30000299C9B281622A46354681694906049CF8
:100B40001DD4002A079E00D1A1E0511C10D181695B
:100B5000490615D48169490612D4816949060FD422
:100B600081694906F3D50BE028688169490607D4F5
:100B7000FFF7C0FE3946801BB842F5D989E0079ED1
:100B8000698D090A06D042685D490A40001DFF21AF
:100B90005D4B08E0698D4368594A1340CAB212049C
:100BA0001A43001D574B1A43039B1A4302602985C1
:100BB0003B4612E0698D29854268F94C2240049C2D
:100BC000C9B20904114301225206001D1143039AC0
:100BD00011430160688D002868D028688169490741
:100BE0001AD4591C0CD0002B77D0FFF783FE801B42
:100BF000B84277D83B46286881694907F5D50BE0AC
:100C00008169490708D48169490705D48169490781
:100C100002D481694907F3D5696A406A0870688D12
:100C2000401E6885686A401C6862288D401E2885C1
:100C3000698D0029CED00004CCD1286881690906CD
:100C40001AD4591C0CD0002B4AD0FFF753FE801B3E
:100C5000B84247D83B46286881690906F5D50BE0BC
:100C60008169090608D48169090605D481690906E4
:100C700002D481690906F3D5698D090A9AD0FF214A
:100C800029854168C64A1140001DC44A9EE7FFF706
:100C900031FE686C20210843686461700020A070F8
:100CA0002046019C0470059809B0F0BD28461946FD
:100CB000324601F06BF80028059800D0C9E6089884
:100CC00000682021C1614268B64B134043606170E7
:100CD00001982070A07009B0F0BDFFF70BFE01E095
:100CE000FFF708FE686C20210843686461700020EB
:100CF0002070A070059809B0F0BDC046FF03000049
:100D0000009800FC002400020024FF01F0B589B027
:100D100007460446403465780220202D09D1079308
:100D20000E9E002E07D00F9B002B04D02578012D9E
:100D300006D109B0F0BD01204102796409B0F0BDCF
:100D40000393029206910120049405902070FFF70E
:100D5000D1FD08903868816909040CD50598C50350
:100D6000FFF7C8FD0899401A192800D903E138682F
:100D700081692942F4D1109C2121049D6970402190
:100D8000A97000217964039A7A857E620E467963A0
:100D90007F49069A0A400799C9B209040692891840
:100DA00042687C4B1340C9187B4A89184160384619
:100DB00001942146089A01F01DF8002803D02E70F6
:100DC000059809B0F0BD0396019C38680799012980
:100DD00004D10299C9B28162224610E00299090A3F
:100DE000816238462146089A01F004F80028049DE3
:100DF000039EE4D138680299C9B28162019A81697F
:100E00000906039E2AD4002A0ED0511C1AD18169EA
:100E1000090623D48169090620D4816909061DD4F5
:100E200081690906F3D519E0FFF764FD049D786C2C
:100E300020210843786469700020A8702E700598FE
:100E400009B0F0BD049DFFF755FD22460899401AF0
:100E5000A042ECD8386881690906F4D501210591D2
:100E60004E06798D090A4D4B4D4905D042680D4615
:100E70000A40001DFF2109E00A46798D43681546A6
:100E80001340CAB212041A43001D33461A43069B8C
:100E90001A4302603985089A234610E0798D398516
:100EA00042682A40C9B209041143001D3246114369
:100EB000069A11430160788D0028089A43D038467D
:100EC000194600F097FF00283AD13868796A0A7805
:100ED00082627A8D521E7A85491C7962398D491E4B
:100EE00039857A8D002A2346E5D00904E3D181694A
:100EF00009061BD4591C0DD0002B3AD0FFF7FAFC81
:100F00000899401AA04236D82346386881690906F4
:100F1000F4D50BE08169090608D48169090605D476
:100F20008169090602D481690906F3D5798D090A18
:100F3000B4D0FF21398541682940001D174AB6E722
:100F4000059809B0F0BD3846194600F01FFF00288B
:100F5000059800D0EDE638682021C1614268114B48
:100F600013404360049A517003981070907009B058
:100F7000F0BDFFF7BFFC786C202108437864049A29
:100F80005170002010709070059809B0F0BDC046F7
:100F9000FF030000009800FC002000010000FF019A
:100FA000009C00FC00E800FEB0B58CB00024069464
:100FB000059404940394029400681749884201D070
:100FC0000CB0B0BD2020019001A800F0DFF800288F
:100FD00001D0FFF79FFB114D2868022108432860CC
:100FE00028680840009006200B900A94099412206B
:100FF0000890C02007900098094807A9FFF7A0FBB8
:1010000001204005A9680143A960A9680140009139
:1010100000980CB0B0BDC0460054004034100240EF
:10102000000400501F48007802490A681018086040
:101030007047C046B401002010B5012420020849C1
:101040000A6802430A60032000F00CF8002801D06F
:10105000204610BD00F028F80024204610BDC046F0
:101060000020024070B50F4E31780124002916D0BF
:1010700005467D20C00001F027FC0146414800687C
:1010800001F022FC00F0A2FC032D08D8002806D1B4
:101090000024E0432946224600F01CF875602046F3
:1010A00070BDC0460400002082B00948416801229A
:1010B0001143416041681140019101991107026893
:1010C0000A430260006808400090009802B0704730
:1010D0003C100240002805D40322034693430A4AE9
:1010E0009A1803E00C220240064BD2188007C00E6B
:1010F0008901C9B28140FF238340106898430843A7
:101100001060704714ED00E000E400E0F0B581B03D
:10111000032569021A4E3246143A13688B4303437F
:101120001360012461020022884226D1F34801683D
:101130003068400521D50092A70206204843124995
:1011400001F0C2FB201A022816D0316839420FD0B4
:10115000012811D0316839420AD000280CD03168FA
:10116000394205D0001D032806D031683942EAD142
:10117000009A104601B0F0BD2A46104601B0F0BDFD
:10118000147000400C00002040420F00F0B587B002
:1011900081788907584F01D4002650E0059001233B
:1011A00019073A46203A10680840049006D11068A2
:1011B0000843106010680840069006980292039158
:1011C00001931E024D4C206830432060FFF792FBD4
:1011D0000546206830420AD1FFF78CFB401B0228ED
:1011E000F7D9032605980499002923D027E0032086
:1011F000054601023868084011D0059949698842BE
:101200000BD03868019909043A680A433A603A6891
:101210008A433A603A4908403860C0075AD13A6870
:101220003748024005984169114339600026049906
:10123000002904D1029B1968039A9143196005683B
:10124000E90705D1A9060DD401216A0416D42BE0C3
:10125000394608390A6803239A43436813430B60ED
:10126000A906F1D5032109033A46083A13688B43CE
:1012700081681943116001216A0415D53A46083A7C
:101280001368204C23400C463146066933431360F3
:101290001C4A521C96420E46214605D10A043B4682
:1012A000503B1C6814431C602A0510D58D03032293
:1012B00092033B46083B1C689443C26814431C607D
:1012C000AA4204D10804503F3968014339603046CE
:1012D00007B0F0BDFFF70EFB0646864C3868800766
:1012E0009DD4FFF707FB801BA042F7D905982E4637
:1012F000049900299ED0A2E75C10024000700040D3
:10130000FFFCFFFFFFFFFF3FF0B583B00D4601215B
:1013100000281BD0019102907548006807242040E6
:10132000A84216D272490868A04328430860714E4B
:10133000FFF7E0FA07466E4800682040A84208D050
:10134000FFF7D8FAC01BB042F5D90321084603B015
:10135000F0BD029E30688107924B0CD5410703D542
:1013600021031A680A431A600F2109021A688A4386
:10137000B16811431960C0071BD15D480068204067
:10138000A8422CD95A490868A04328430860594FFD
:10139000FFF7B0FA0646564800682040A8421ED023
:1013A000FFF7A8FA801BB842F5D90321084603B01D
:1013B000F0BD0298406803285DD8810001A2515811
:1013C0008F46C046D51300087B140008851400081A
:1013D0008F140008194608390968490559E0029A2E
:1013E000107840076F4B05D5200319688143D068FA
:1013F0000843186018688006400F22D01A68382108
:101400000A406948082A23D01A680A40102A5ED187
:10141000596803220A40032A00D0644859684906E3
:10142000490F491C01F050FA5E4949684904490EC8
:1014300048435C494968490F491C01F045FA594B3A
:1014400006E01846083800688004410F5748C84035
:10145000196889093C220A40274989581F220A40F5
:10146000D0402F49086026480068FFF7FBFD014681
:10147000084603B0F0BD596D0AE0194608390968FD
:10148000890306E0194608390968890101E0996D68
:101490008907019900D459E71968A14301431960EC
:1014A000144FFFF727FA06463E48006838210140EE
:1014B00002984068C000814200D15EE7FFF71AFA47
:1014C000801BB842F0D90321084603B0F0BD18686C
:1014D0000840202802D10120C003B9E7186808405D
:1014E000182801D00020B3E77D200002B0E7C046F5
:1014F0000020024088130000C02A00080C000020D1
:10150000080000200648006826490968890A1C224C
:101510000A40044989581F220A40D0407047C046FB
:101520000C000020002B000810B51E4C206880061F
:10153000400F06D0226838210A401B48082A07D1EC
:1015400010BD083C20688004410F1848C84010BDF9
:1015500022680A40102A15D1616803220A40032A32
:1015600000D0124861684906490F491C01F0ACF9E6
:1015700061684904490E48436168490F491C01F0FC
:10158000A3F910BD20680840202802D10120C00323
:1015900010BD20680840182801D0002010BD7D2013
:1015A000000210BD0810024000127A000024F4006E
:1015B000F0B587B00125002800D1ECE10495059035
:1015C0000078C007F94F2AD0B868F96803252A4681
:1015D0008A4338210140102048408218504250412F
:1015E000082914D0002812D105984268012001046E
:1015F0008A4208D005231B049A4200D0DAE0820414
:101600003B6813433B603A680A433A60DBE0386862
:10161000800304D505984068002800D173E105983F
:101620000078800723D40598007800070CD5B868A7
:1016300038210140182971D1386E800704D50598EA
:101640008069002800D15EE1059A1078400700D437
:101650002EE1B86838210140202974D1F86D800747
:1016600000D425E19068002800D021E14BE1B96861
:101670003820084010214140FA6803252A400223FF
:101680005340CA1851425141002820D000291ED190
:101690003868059AD168002900D1A2E00721C90263
:1016A0008843116901433960012001023A680A4305
:1016B0003A608402FFF71EF906463868204200D0DF
:1016C000A1E0FFF717F9801B0228F6D963E139681A
:1016D0004905059B03D5D968002900D113E17F2175
:1016E00009027A688A43596909021143796000281E
:1016F0000DD10720C002396881431869084338605A
:1017000038688004400FAA49C140AA480160AA482D
:101710000068FFF7A7FC002885D0F4E0386E059933
:101720008969002979D0012108433866FFF7E2F87A
:101730000646386E800787D4FFF7DCF8801B032548
:101740000228F6D927E1012003900107F86B084031
:10175000029006D1F86B0843F863F86B08400690D6
:101760000698019195480068C00513D403980402B7
:101770009249086820430860FFF7BCF806468F4886
:101780000068204206D1FFF7B5F8801B0325022828
:10179000F5D900E105988068894C012805D0052815
:1017A0005AD1F86D04210143F965F86D0399084396
:1017B000F8655BE03B688B433B6081043B688B438F
:1017C0003B60002A3AD04404FFF794F80646386894
:1017D000204200D023E7FFF78DF8801B6428F6D95C
:1017E000D9E001210A02904338608C02FFF782F8A9
:1017F00006463868204200D115E7FFF77BF8801BCA
:101800000228F6D9C7E07F20000279688143059855
:10181000406900020843786005E701218843386683
:10182000FFF768F80646386E800700D40CE7FFF72C
:1018300061F8801B03250228F5D9ACE04404FFF7CA
:1018400059F806463868204200D1E8E6FFF752F81A
:10185000801B6428F6D99EE0F96D039A9143F965DF
:10186000F96D04229143F96500280CD0FFF742F886
:101870000646F86D800713D4FFF73CF8801B03255C
:10188000A042F6D987E0FFF735F80646F86D8007E5
:1018900006D5FFF72FF8801B0325A042F6D97AE082
:1018A00002980028059A03D1F86B01998843F863E0
:1018B000D469002C76D0B86838210140102926D18F
:1018C000012C20D0F86803210140059B1A6A91423F
:1018D00019D1702101405A6A914214D17F21090225
:1018E00001409A6A120291420DD11F214904014020
:1018F000DA6A9142049D4ED1072149070840196BCD
:10190000884248D14EE0049D284607B0F0BD01252D
:1019100029063868049188433860FEF7EBFF0646D5
:10192000022C0BD103956C063868204211D0FEF7CB
:10193000E1FF801B03250228F6D92CE06C063868ED
:1019400020422BD0FEF7D6FF801B03250228F6D9B4
:1019500021E0F8681C490140059E20366DCE084301
:1019600010431902014329433143F960386804994F
:101970000843386003980007F9680143F960FEF7EF
:10198000B9FF0646386820420CD1FEF7B3FF801B32
:1019900003250228F6D9284607B0F0BDF8680949A2
:1019A0000140F9600025284607B0F0BD0010024054
:1019B0000024F4000C00002008000020007000400B
:1019C00088130000FCFFFEEF8C80C11F401E010E3B
:1019D00001D0012070470749074A50600748036853
:1019E0000B400321890759180160002090600721EE
:1019F00011607047FFFFFF0010E000E020ED00E005
:101A0000F0B583B0002841D0044607468437786893
:101A1000002804D100203870204600F059F8242016
:101A20007860206801680125A9430160204600F024
:101A30001FFB012827D0A06A002802D0204600F012
:101A4000ADFA0920C00221684A6882434A6088686A
:101A50002A229043886008680126304308600025E8
:101A6000FD60FEF747FF034620680168090713D5AC
:101A700016480090710500222046029300F0AEFB4C
:101A8000002807D00325284603B0F0BD01252846CD
:101A900003B0F0BD2068029B006840070CD50B48DE
:101AA0000090B1050022204600F098FB002803D0EA
:101AB0000325284603B0F0BD20207860B860E566B5
:101AC0003D702567284603B0F0BDC046FFFFFF010B
:101AD00080B586B000681249884201D006B080BD4A
:101AE00010488268012105914B041A438260826884
:101AF0001A400092009A02680A4302600068084097
:101B00000090002004900390022002900C2001908D
:101B100005200007009901A9FEF712FE06B080BD5E
:101B20000044004034100240F0B585B0074604463A
:101B30005434606B202812D1012600290CD01546A0
:101B4000002A09D001263203B86890420BD1C80799
:101B500009D03869002806D1304605B0F0BD02260C
:101B6000304605B0F0BD019103930026E6632120C5
:101B700060630292FEF7BEFE049065802580B8681F
:101B80000299884202D13869002802D00296019E4B
:101B900002E000260198029003990CE0029A108856
:101BA0001849084039688862921C02922E460399AF
:101BB0006088401E60806088002810D000918021DD
:101BC000002538462A46049B00F008FB002810D167
:101BD000002EE3D0307839688862761CE7E7009100
:101BE0004021002638463246049B00F0F7FA0028D0
:101BF00003D00326304605B0F0BD20206063304698
:101C000005B0F0BDFF010000FEE70000F0B585B0B3
:101C10000E4604464030049020688169C90606D407
:101C200000210F4601258269D30545D448E01021E3
:101C3000C1618169890637D4711C32D015460120F3
:101C4000002E6CD186030390C7030297FEF752FE65
:101C5000206842680499897883693B4209D0324000
:101C600007D1202905D0416831434160FEF742FE8B
:101C7000054620688169890605D4FEF73BFE401BB6
:101C80001A28F6D377E081698906029FDED50BE03A
:101C90008169890608D48169890605D48169890624
:101CA00002D481698906F3D52021C161012704216D
:101CB00001258269D30503D52B02C36129432F4631
:101CC0006B02560506D41A420AD1002F0BD1002010
:101CD00005B0F0BDAD02C561082529431A4202D006
:101CE000C361022211438269920701D500228262F8
:101CF0008269D20703D18269012313438361426859
:101D0000214B13404360606C0843606420200499B9
:101D10004870002008708870012005B0F0BD810374
:101D200002910390C0030190019F03E02068816944
:101D30008906B9D4FEF7DEFD401BB042F6D9206813
:101D400042680499897883693B420BD0029B1A4010
:101D500008D1202906D04168029A11434160FEF75C
:101D6000C9FD0546206880698006DFD4FEF7C2FD04
:101D7000401B1A28F6D3206881692421039F01257E
:101D80008269D30598D49BE700E800FE70B515463C
:101D90000446002911D00E4620688069800619D4B7
:101DA000204631462A46FFF731FF002810D1FEF7C2
:101DB000A1FD401BB042EFD910E020688069800689
:101DC00008D4002120462A46FFF720FF002803D030
:101DD000012070BD002070BDFEF78CFD2046403014
:101DE000616C202211436164427000210170817096
:101DF000012070BDF0B581B00446006880690025FF
:101E0000800711D416460F46002921D0781C17D11F
:101E10000025E94320463246FFF7F8FE00281ED190
:101E2000206880698007F3D5284601B0F0BDFEF731
:101E300061FD801BB84218D8206880698007F3D400
:101E4000204639463246FFF7E1FE0028EFD006E093
:101E5000002120463246FFF7D9FE002803D0012595
:101E6000284601B0F0BDFEF745FD20464030616CCC
:101E700020221143616442700021017081700125AC
:101E8000284601B0F0BD000070B586B0002605966A
:101E90001948016802221143016001681140009154
:101EA000009901680422114301600168114000910A
:101EB00000990168012421430160006820400090DE
:101EC00000980E4D284621462246FEF70BFD04964B
:101ED00003960294019401AC28462146FEF730FC9B
:101EE000039602960320C0020190052000072146B8
:101EF000FEF726FC06B070BD34100240000400500E
:101F000010B5124800210122114B124C04604360AD
:101F10008160C260016141618161C1610162FEF75E
:101F200031FD002801D0FEF7F5FB08480021FEF73F
:101F3000E7FC002801D0FEF7EDFB04480021FEF786
:101F400000FD002801D0FEF7E5FB10BDCC0000200D
:101F5000BC7D70100054004010B5F54800210C22E3
:101F6000934B016241628162E124640218C0016006
:101F700041608160C260016141610838FFF740FD46
:101F8000002801D0FEF7C6FB10BDC046FEE7704733
:101F9000704780B5FFF746F880BD7047B0B5816ADD
:101FA000CA070CD18A0714D44A071CD40A0724D4C0
:101FB000CA062CD48A0634D44A063CD44CE001220A
:101FC000520403685C689443C26A22435A608A07D9
:101FD000EAD50122120403685C689443026B224331
:101FE0005A604A07E2D50122920403685C68944370
:101FF000426B22435A600A07DAD50122D2030368F2
:102000005C689443826B22435A60CA06D2D501228F
:10201000120303689C689443C26B22439A608A0649
:10202000CAD50122520303689C689443026C224380
:102030009A604A0610D501221305026854689C4331
:10204000456C2C4354609D4206D103235B055468C4
:102050009C43836C23435360090607D50121C904BF
:10206000026853688B43C06C18435060B0BD0000D9
:10207000F0B581B00446006801684B4A0A40A16887
:1020800023690B43616919431143E26911430160FC
:102090000321090343688B43E16819434160A16947
:1020A000236A0B438168414D0D401D438560C36A1F
:1020B0000F218B43616A0B43C3623D4B984209D0A9
:1020C0003C4B984208D13C4800688007000F3BA376
:1020D0001F5802E0002700E0102726466836012539
:1020E000EB033A489A4210D1082F55D87F443F79E4
:1020F0007F00BF44045123511C5151512200FFF76E
:1021000001FA002817D0616A18E0082F44D8C046A9
:102110007F443F797F00BF44043F2D3F263F3F3F30
:102120002C00FFF7EFF9002821D0616A22E0FFF7C9
:10213000FBF90028E7D100252EE018464900244A83
:10214000515A00F0C1FB400061684A08101800F0C5
:10215000BBFB0246103A1F498A421DD201400007CC
:10216000400F084315E0FFF7DFF90028DDD1002517
:1021700012E018464900164A515A00F0A5FB616862
:102180004A08101800F0A0FB01461039114A91428C
:1021900002D22168C86000250F48306000206067C7
:1021A000A067284601B0F0BDF369FFCFFFF4FF112F
:1021B000004400400038014054100240000000007C
:1021C0000400000002000000080000000024F400E9
:1021D000202B0008F0FF000001000100F0B587B0DF
:1021E00015460E4604460768F9693140891B4A4284
:1021F0004A410020AA4224D1069304942246843204
:102200000C9C002C1FD0611C44D1F9693140891B02
:102210004A424A41AA4214D1F9693140891B4A42D3
:102220004A41AA420DD1F9693140891B4A424A41CB
:10223000AA4206D1F9693140891B4A424A41AA4261
:10224000E3D007B0F0BD0392FEF754FB049FEFF319
:102250001081012080F310880D2252013B681C6818
:1022600094431C6081F31088EFF3108180F3108891
:102270003A6893688343936081F310882020039A1F
:1022800050601046083000211170202101600320A9
:1022900007B0F0BD0392029001200190C0020590AA
:1022A000049F06E0C0693040801B41424141A94281
:1022B0002DD1FEF71FFB0699401AA042C7D83868F7
:1022C00001684907EED5C169059A1142EAD005991E
:1022D0000162EFF31080019C84F310880D21490105
:1022E0003A6813688B43136080F31088EFF3108013
:1022F00084F3108839688A68A2438A6080F3108862
:102300002020039A5060906010460C30BBE7029882
:1023100007B0F0BD7047000080B582B0019004485E
:1023200001A90122034BFFF7FFFB019802B080BD1A
:1023300020010020FFFFFF00F0B583B0034600201E
:10234000002B00D100E1019202900D7868426841B3
:102350002E46693EF2B2541EA24102430120002AD9
:1023600015D14E78774277416E3E3206024600D153
:102370003A46002A0BD18E7877427741693E320681
:10238000024600D13A46002A01D1CE78743E320688
:1023900000D1DCE06F426F412E466F3E32060246AE
:1023A00000D13A46002A15D14E7877427741703EE7
:1023B0003206024600D13A46002A0BD18E78774287
:1023C0007741653E3206024600D13A46002A01D1E5
:1023D000CE786E3E320600D1BBE06E426E412A4698
:1023E000633A1406044600D134460094002C164685
:1023F0001FD14E78774277416C3E3406044600D1B7
:102400003C46002C15D18E78774277416F3E3406DA
:10241000044600D13C46002C0BD1CE787742774160
:10242000733E3406044600D13C46002C01D10E799F
:10243000653E340600D18EE06F426F412E46723EFB
:102440003406044600D13C46002C15D14E78774224
:102450007741653E3406044600D13C46002C0BD142
:102460008E7877427741613E3406044600D13C467F
:10247000002C01D1CE78643E34066ED06E426E419F
:10248000773D2C06044600D13446002C1FD14D78F0
:102490006E426E41723D2C06044600D13446002C3B
:1024A00015D18D786E426E41693D2C06044600D1EF
:1024B0003446002C0BD1CD786E426E41743D2C0613
:1024C000044600D13446002C01D10D79653D2C061F
:1024D00045D0009C002C32D14A78554255416F3A84
:1024E0001406044600D12C46002C28D18A78554287
:1024F00055416E3A1406044600D12C46002C1ED1DC
:10250000CA7855425541743A1406044600D12C4607
:10251000002C14D10A7955425541723A14060446EA
:1025200000D12C46002C0AD14A79554255416F3AC8
:10253000140600D12846002801D18A796C3A100689
:102540000FD00A2003B0F0BDC04303B0F0BD10337C
:1025500008E0143306E0183304E01C3302E02033B3
:1025600000E0243302980199196003B0F0BD000027
:10257000B0B50024002823D00546224600F046F8D6
:1025800010A1124A2846FFF7D7FE11A1124A284689
:10259000FFF7D2FE11A1134A2846FFF7CDFE12A184
:1025A000134A2846FFF7C8FE12A1144A2846FFF72F
:1025B000C3FE13A1144A2846FFF7BEFE2046B0BD55
:1025C000E043B0BD696E6974000000008904000832
:1025D0006F70656E000000008D040008636C6F73FF
:1025E0006500000055040008726561640000000089
:1025F00091040008777269746500000055060008B0
:10260000636F6E74726F6C005904000870B500241B
:10261000002821D0164605460878287000281DD0CD
:102620004878687000281ED08878A87000281FD0CD
:10263000C878E870002820D008792871002821D0B7
:1026400048796871002822D08A79AA71E81D002A89
:1026500022D0C979017022E0E04370BD681C0721D7
:10266000FDF746FE1BE0A81C0621FDF741FE16E023
:10267000E81C0521FDF73CFE11E0281D0421FDF7B3
:1026800037FE0CE0681D0321FDF732FE07E0A81DB0
:102690000221FDF72DFE02E00121FDF729FEAC73BA
:1026A0006E812C726C72AC81204670BDB0B5002A70
:1026B0000DD00B780478E31A1D0606D1002C04D047
:1026C000521E401C491C002AF3D158B2B0BD002054
:1026D000B0BD000096B0FEF7AFFC00270F970E9735
:1026E0000D970C970B970A9701246002FEF70EFDD9
:1026F000600715906004149008201390129702252B
:102700001195109540200E900D977D26B40020461F
:10271000F4380C90099509A8FEF74AFF002803D069
:10272000EFF3108072B6FEE704970397072001903D
:10273000029501A82946FEF7E7FD002803D0EFF334
:10274000108072B6FEE7FFF79FFBFFF7D9FBFFF79C
:1027500003FC09A8394900220092FFF709FF00286D
:102760000ED037A5354F2846FDF790FDF000FDF758
:10277000D5FF09A800223946FFF7FAFE0028F2D15A
:102780000D9909AE30468847129B012133A230468D
:102790009847002803D033A0FDF778FD3AE035A034
:1027A000FDF774FD109D09A8FE2108AE01233246F5
:1027B000A8473078542818D032A0FDF767FD08AA42
:1027C00054201070119D09AEFE2101233046A84708
:1027D00005273846FDF7A2FF119D0021314A1B2332
:1027E0003046A8473846FDF799FF2FA0FDF74EFD6C
:1027F000009907910691059104910391029101912D
:10280000109D09A801AE1B233246A8472BA03146D4
:10281000FDF7CEFC2B4D0126002228463146FEF75F
:1028200061F82046FDF77AFF284631463246FEF72A
:1028300059F82046FDF772FFEDE7C046542B00081B
:102840004154323443303220726567697374657263
:10285000206661696C6564210D0000006368656332
:102860006B00000041543234433032206572726F85
:1028700072210D0041543234433032206F6B210DF0
:1028800000000000415432344330322073746172CE
:1028900074207265636F7264696E67206C61626C2C
:1028A00065210D00382B000841543234433032206A
:1028B0006C61626C653A200D0000000025730D0A02
:1028C000000000000004005043088B421AD300228D
:1028D00003098B4279D3030A8B425ED3030B8B42ED
:1028E00042D3030C8B4227D30902FF2212BA030CF6
:1028F0008B4202D31212090203D0030B8B4233D353
:102900001AE0D3E0411A8041401C704703460B4354
:1029100071D443088B42F5D3002203098B4254D370
:10292000030A8B4239D3030B8B421DD3030C8B421A
:1029300002D394466EE0090AC30B8B4201D3CB034A
:10294000C01A5241830B8B4201D38B03C01A5241F0
:10295000430B8B4201D34B03C01A5241030B8B42F2
:1029600001D30B03C01A5241C30A8B4201D3CB02DD
:10297000C01A5241830A8B4201D38B02C01A5241C2
:10298000430A8B4201D34B02C01A5241030A8B42C5
:1029900001D30B02C01A5241CDD2C3098B4201D3DD
:1029A000CB01C01A524183098B4201D38B01C01A5B
:1029B000524143098B4201D34B01C01A52410309D2
:1029C0008B4201D30B01C01A5241C3088B4201D381
:1029D000CB00C01A524183088B4201D38B00C01A2E
:1029E000524143088B4201D34B00C01A5241411A55
:1029F000524110007047CA0F00D04942031000D363
:102A00004042534000229C4603098B422DD3030AC7
:102A10008B4212D38901FC2212BA030A8B420CD3D7
:102A2000890192118B4208D3890192118B4204D300
:102A3000890137D0921100E08909C3098B4201D383
:102A4000CB01C01A524183098B4201D38B01C01ABA
:102A5000524143098B4201D34B01C01A5241030931
:102A60008B4201D30B01C01A5241C3088B4201D3E0
:102A7000CB00C01A524183088B4201D38B00C01A8D
:102A80005241D9D243088B4201D34B00C01A524164
:102A9000411A00D201465241104663465B1000D3F2
:102AA0004042704763465B1000D3404201B50021AD
:102AB000004201D0C9430846C046C04602BD0000DE
:102AC0000000000000000000000000000000000006
:102AD00000000000000000000000000000000000F6
:102AE00001000000020000000300000004000000DC
:102AF00006000000070000000800000009000000B8
:102B000000000000000000000000000000000000C5
:102B100001000000020000000300000004000000AB
:102B2000010002000400060008000A000C0010006A
:102B3000200040008000000148656C6C6F2041540B
:102B40003234435858210D0A4C4F564520594F55A1
:102B5000210D0A006174323463303200802B00088A
:102B6000000000201800000004010008982B000855
:102B700018000020A007000020010008000000004D
:102B80000100000001000000040000000024F40027
:082B9000CC0000200000000051
:04000005080000C12E
:00000001FF
