:020000040800F2
:10000000981E002085010008C12700084924000827
:1000100000000000000000000000000000000000E0
:10002000000000000000000000000000A92E0008F1
:100030000000000000000000452C0008AB2E000866
:1000400097010008000000009701000897010008D0
:100050009701000897010008970100089701000820
:1000600000000000970100089701000897010008B0
:1000700097010008970100089701000800000000A0
:100080009701000800000000000000009701000830
:100090000000000097010008970100089701000880
:1000A00097010008970100089701000897010008D0
:1000B00097010008000000000000000000000000A0
:1000C00000F002F800F04EF80CA030C808382418F0
:1000D0002D18671EA246AB4654465D46AC4201D180
:1000E00000F040F87E460F3EB6460FCC0126334264
:1000F00000D0FB1A3343A246AB4618471455000004
:1001000034550000103A02D378C878C1FAD85207A3
:1001100001D330C830C101D504680C6070470000BD
:100120000023002400250026103A01D378C1FBD813
:10013000520700D330C100D50B60704710B5782945
:1001400002D100F07FF810BD002010BD1FB500984F
:10015000019900F00CFD00F007FA1FBD10B500F08A
:100160006FFA10BD00F0A2FA1146FFF7EFFF03F09F
:100170000DFC00F09DFC03B4FFF7F0FF03BC00F0A2
:1001800075FE00000748804707480047FEE7FEE786
:10019000FEE7FEE7FEE7FEE704480549054A064B91
:1001A000704700001F2F0008C100000898160020AB
:1001B000981E0020981C0020981C00200FB40549B0
:1001C00010B503AA029800F09BF910BC08BC04B05B
:1001D0001847000094000020F8B50E4604460020A1
:1001E00020622046E1688847002829D0252802D0CF
:1001F0006268A16820E0E168204600278847050082
:100200001ED028464138192802D80127FF02203580
:100210003246204627602946FFF790FF002808D085
:10022000012804D0F61DF608F6000836D9E7361D79
:10023000D7E762682846A1689047206A401CCFE74C
:10024000206AF8BD70B504460D4621461068C046C8
:10025000C0462188090502D50F4A7A4402E00E4AB9
:100260007A440E3223460021243305E006070009B4
:10027000360F965D5E54491C0028F7D12078002384
:10028000000705D5702D03D0002901D002231132BB
:10029000204600F0DCF870BD8438000001E004C0A6
:1002A000091F0429FBD28B0701D50280801CC907D6
:1002B00000D00270704700290BD0C30702D0027033
:1002C000401C491E022904D3830702D50280801CEA
:1002D000891EE3E70022EEE70022DFE700220309A0
:1002E0008B422CD3030A8B4211D300239C464EE051
:1002F00003460B433CD4002243088B4231D303090D
:100300008B421CD3030A8B4201D394463FE0C309BE
:100310008B4201D3CB01C01A524183098B4201D3D6
:100320008B01C01A524143098B4201D34B01C01AC1
:10033000524103098B4201D30B01C01A5241C30839
:100340008B4201D3CB00C01A524183088B4201D3A8
:100350008B00C01A524143088B4201D34B00C01A94
:100360005241411A00D201465241104670475DE0A9
:10037000CA0F00D04942031000D3404253409C466C
:10038000002203098B422DD3030A8B4212D3890129
:10039000FC2212BA030A8B420CD3890192118B42C0
:1003A00008D3890192118B4204D389013AD092116A
:1003B00000E08909C3098B4201D3CB01C01A524125
:1003C00083098B4201D38B01C01A524143098B42EE
:1003D00001D34B01C01A524103098B4201D30B01D7
:1003E000C01A5241C3088B4201D3CB00C01A5241FC
:1003F00083088B4201D38B00C01A5241D9D24308E3
:100400008B4201D34B00C01A5241411A00D201461F
:100410005241104663465B1001D34042002B00D589
:100420004942704763465B1000D3404201B505491D
:10043000002802DC491C084000E00846C046C046CF
:1004400002BD00BFFFFFFF7F704770477047FFB5D9
:1004500004460D4681B0243000902168880604D5FA
:100460001022E0699143216000E00120A84201DDF3
:10047000471B00E000270498A1697A191018081A90
:10048000A0612078C00602D42046C046C04600269F
:1004900008E003986268A168805D9047206A401C6C
:1004A000761C206204988642F3DB2078C0060AD5C9
:1004B0002046C046C04606E06268A16830209047EA
:1004C000206A401C206238467F1E0028F4DC07E0CA
:1004D00000986268A168405D9047206A401C2062D5
:1004E00028466D1E0028F3DC2046C046C046207812
:1004F000000602D5022005B0F0BD0120FBE7000098
:10050000084B70B50D467B4400F017F804462846AA
:1005100000F026F8002802D00020C04370BD20461D
:1005200070BD0000B9350000004870473C01002054
:1005300001694A1C02610878704700B58FB00291CA
:1005400000210591054901937944039111460490D6
:100550006846FFF741FE0FB000BD0000E5FFFFFF5A
:10056000C06880210840704710B543485421FFF708
:10057000B3FE42485421FFF7AFFE41485421FFF734
:10058000ABFE40483C493D4B404A01603E48036059
:100590003B4810605A1C0A65411C19650121016520
:1005A0003C48354A3AA1784400F0E6F9002804D1E5
:1005B000384878440C3800F083FA38482F4A36A17E
:1005C000784400F0D9F9002804D1344878440C3834
:1005D00000F076FA32482A4A2FA1784400F0CCF98C
:1005E000002804D12E4878440C3800F069FA4023E2
:1005F0002148DC000021224600F098F9002804D0B0
:10060000244878445C3800F05BFA1C4822464023BA
:10061000002100F08BF9002804D0204878445C3891
:1006200000F04EFA164822461023002100F07EF911
:10063000002804D01A4878445C3800F041FA10BD14
:100640000F4870B5006D44080B48640000F00CFAC8
:100650000A4800F009FA0A4800F006FA09E0206D9D
:10066000450820466D0000F0FFF9204600F03DF8F7
:100670002C46002CF3D170BD4000002094000020D7
:10068000E8000020000000200400002008000020F6
:100690007200000060350000770000004A3500005D
:1006A00034350000004870473C0100207546FFF7D4
:1006B000F9FFAE46050069465346C008C0008546AE
:1006C00018B020B5FFF768FD60BCB64600260027CD
:1006D000C0C5C0C5C0C5C0C5C0C5C0C5C0C5C0C5F2
:1006E000403D490849008D46704770B50446051FD6
:1006F00000F020FA0068002C1AD0446801E020467F
:100700006468002C01D0AC42F9D301680A18AA42EF
:1007100004D12A6805468918016000E04560286810
:100720004119A14205D161686960216840182860BB
:1007300070BD6C6070BD0000F7B505460C46C8681A
:100740000521C9048843012189050843E06080062A
:1007500002D5204600F045FB7249E06801400229BD
:1007600003D0204600F0DCFABEE005210122490357
:100770000140D20391420FD1C00306D56168E06AFF
:10078000884200D80846606006E02069E062606048
:10079000606900F0C8F9A061A1680022EEB20029EA
:1007A0000EDAE06883050BD4C943A16009212260F9
:1007B00049030843E0606068411C61600670AEE078
:1007C000E068012149030843E060002020602069BF
:1007D000002831D1606900F098F9012527462437B7
:1007E000ED02002816D0A0898005800F08D0E069AE
:1007F00000F0EAF90028206102D0E068284318E000
:1008000001202761E061E06803210902884301219A
:1008100089020DE0E06900F0D7F900282061EFD0EF
:10082000E0682843E0608105890F03D1FF21013191
:100830000843E06020696060E2683B4F2569D005AD
:1008400020D56168E06A884200D80846411B05D07F
:100850002246284600F06EFA002845D1029800286A
:1008600004D0E56200206560A06055E0681CE0628D
:100870006060E069401EA060E0683843E060304698
:100880002E70FEBD0298002801D03A4009E0606851
:10089000411C61600670E06838430A2EE06006D0B3
:1008A0000022E16A6068814203D90B4602E001221E
:1008B000F7E70346A7895B1B7F0504D4E7699F42DE
:1008C00001DD002A1ED0814200D801460F1A002007
:1008D000E5626560002BA06009DD224619462846C6
:1008E00000F028FA002802D00020C043FEBD002FEF
:1008F00008D0A069E5626560C01BA061E0681021B6
:100900000843E0600298002809D06168A069E562A8
:10091000491B40186560A0610120C043FEBD304600
:10092000FEBD0000821000000000010070B5C46828
:10093000A50713D0650211D4D51FF93D0AD0FF3D9C
:100940006D1E07D0FF3DFF3D022D07D1014624312A
:10095000012305E0074E5D1EB54201D3012070BDA5
:100960000161C36141600F2109028C431443C460DB
:10097000002070BDFFFFFF00F7B516460C4600983B
:10098000002843D0104600F06FF82078611C6128E1
:100990000AD0722802D0772839D102E0012500243C
:1009A00004E00225042401E02D4D08240222032343
:1009B00001270878491C2B2806D0622807D0203947
:1009C000C87F742807D008E01D431443F1E70420D2
:1009D00005433C43EDE7102004430098214600F016
:1009E00075F8411C13D00021316171600121F5605F
:1009F0004902F1617061200704D5304602220021CE
:100A000000F014F9306D384330653046FEBD0020EB
:100A1000FEBDF8B50D460646124C206DC10704D048
:100A2000410804D044086400F7E7224610E054204F
:100A300000F0CAF8070010D07908206D49000122A3
:100A400011430843542120653846FFF745FC3A46D8
:100A500029463046FFF790FFF8BD0020F8BD0000A2
:100A60000280000040000020F8B5044600264769D7
:100A700000690090E568A80717D0204600F08BF9C0
:100A8000384600F02DF8002800DA761E280502D539
:100A90000098FFF72AFE4C212046FFF71DFC206D31
:100AA0004008400020653046F8BD0020C043F8BD36
:100AB00010B50446C046C0462046FFF75CFB10BD9B
:100AC00010B500F0B9F900F0B1F910BD0EB5019103
:100AD000009000F035FA029069460120ABBE0EBDD1
:100AE00008B5694600900220ABBE08BD1FB56B4635
:100AF00007C369460520ABBE04B010BD1FB56C46E8
:100B00000FC469460620ABBEF6E708B569460090FB
:100B10000920ABBE08BD1CB500900A2001916946B2
:100B2000ABBE1CBD704708B5694600900C20ABBE3B
:100B300008BD00000048704744010020704770471E
:100B40007047704738B504460A4600206946C046DB
:100B5000C046002805D002462046009900F094F9CE
:100B6000012038BD10B5012000F0E3F910BDF8B543
:100B7000C046C046054600200C461020C04606462A
:100B8000A819A0420DD9324669460020C046C04689
:100B9000070001D100F0CDF90098A04200D0054631
:100BA000C419FFF7C7FFF61D07460560F008C0002F
:100BB0004619284600F061F9B44204D0314638683D
:100BC000A21B00F061F9F8BD70B50646FFF7B2FF51
:100BD000056830460B30C408E400B44201D8002058
:100BE00070BD68682A46002818D00168A14211D358
:100BF0000B46214608318B4208D3436801194B60EC
:100C000003681B1B0B605160046001E04168516088
:100C1000001D70BD024640680028E6D121462846E6
:100C2000FFF790FF0028DCD170BD0000F8B5044646
:100C300016460D464769007B800730D03846FFF7DF
:100C400064FF00282BD132461026002A25D0012A25
:100C500002D0022A23D104E0204600F02FF94519E2
:100C60001BE03846FFF75FFFE16831430028E16091
:100C700004DA204600F054F80120F8BDC9030BD572
:100C80006268E16A914200D81146A2698918226916
:100C9000891A814200DD08462D18002D01DA022054
:100CA000F8BDE16A6068E268814206D29103E062C1
:100CB00003D5012149048A433243A669AE4211DCBF
:100CC000E16A814201D90B4600E003469F1923697E
:100CD000FF1AAF4206DD814201D90F4600E0074608
:100CE0009F4206D1202002430020A060A562206020
:100CF0000DE0AD1BE669AE1B8142A66000D9084637
:100D0000C01A281A206058196060202082430348C6
:100D100002400020E26040342072F8BDBFCFD7FF10
:100D2000C1688022114392039143C1600021816018
:100D300001607047F7B515460C4682B050690090C7
:100D40003748D768074209D0A9690098FFF7E3FE42
:100D5000002815DB3248C0430740EF60314EB442F3
:100D600000D826463B46324602990098FFF7BEFE61
:100D70004200A9695208B21A89180028A96106D050
:100D80002846FFF7CDFF0020C04305B0F0BDA41BEF
:100D9000E4D10020F9E770B504460569C06A6168CE
:100DA000884200D80846E1680522D2049143E160F8
:100DB000C90314D5A84209D02246411B2846FFF793
:100DC000B9FF002802D00020C04370BDE5620020BA
:100DD0006560A060E068012109048843E0600020AC
:100DE00070BD10B50446C06820218843E060A16A48
:100DF000A06988420ED02046FFF7CDFFE0680321AE
:100E00000903884310210843E060A06AA0612069BB
:100E1000E06260600449E0680840E06010BD0000E6
:100E200010000200FFFFFF7FBFBFFFFF10B50028CB
:100E300001D000F01BF810BD10B5014602A000F073
:100E40005EF8012010BD00005349475254524544FA
:100E50003A2052656469726563743A2063616E2753
:100E600074206F70656E3A20000000000149182060
:100E7000ABBEFEE726000200704700210160416022
:100E8000806070471020704710B50346406801E04D
:100E900003464068002801D08842F9D31868C31877
:100EA0008B4206D0CB1CD808C000001D411A521A34
:100EB0000146081D0A60FFF718FC10BD10B5014679
:100EC000C268900703D0900607D5886A0AE0FFF74A
:100ED0002BFB01210160881E10BD8B694868C0187A
:100EE0000B69C01A40310B7A002B02D0497A401AA4
:100EF00010BD1103FCD50028FADD401E10BD70B5F1
:100F000005460C460A2000E06D1C00F03BF8002D61
:100F100006D028780028F7D102E0641C00F032F8EF
:100F2000002C02D020780028F7D10A2000F02AF8FF
:100F300070BD10B500F02CF8FFF778FF10BD000071
:100F400030B5441C03E00178401C00290DD0810716
:100F5000F9D10B4BDD0104C8D11A91432940FAD0D5
:100F6000001B0A0603D0C01E30BD001B30BD0A04A2
:100F700001D0801E30BD0902FCD0401E30BD0000F3
:100F80000101010108B5694608700320ABBE08BD28
:100F900010B5012805D0002103A0FFF7B0FF012004
:100FA00010BD09A1F8E7000053494752544D454D83
:100FB0003A204F7574206F662068656170206D65FA
:100FC0006D6F7279000000003A2048656170206DF5
:100FD000656D6F727920636F7272757074656400ED
:100FE000EFF3108072B6FEE780B5002200F002F841
:100FF00080BD0000B0B503460D4C607A002801D0DA
:101000000120B0BD657A00206055657AAD00651994
:101010006B60637AE3181A72627A531C6372C87049
:101020002F238B703A234B7030320A70B0BDC0460C
:10103000CC150020B0B5044600F0E8F80546601C69
:1010400002D004480078041900F0E0F8401BA042E8
:10105000FAD3B0BD34000020F0B58AB00A68002A87
:1010600000D1B6E00E465C49884201D0052100E07F
:10107000032100910027089709973C4602960190AA
:1010800001250495A5402A40079200D193E003234F
:101090001846B840C043394677683A461A40561E4B
:1010A000012E0697059112D8064603900198836891
:1010B0003340029EF6688E401E438660FB06DB0FBF
:1010C000A3404668AE431E434660039908E0032AE6
:1010D0000146019804D11A46029E069D059F1DE017
:1010E000C3680B40029EB568059FBD401D43C560A7
:1010F000022A069D12D103911C21089A11400F2249
:101100008A40E3089B00C3181D6A954332698A40F0
:1011100003992A431A62756803222A40BA40036879
:101120000B4013430360A903890F44D01821099A87
:1011300011400F238B40032225469543274A52191D
:10114000156E9D43603205231B0798420AD0254B3C
:10115000984205D0244B9842009B04D1022302E020
:10116000049B00E000238B402B4313601B4D2A6837
:101170007168CB0202D5079B1A4301E0079B9A4393
:101180002A606A688B0202D5079B1A4301E0079B1D
:101190009A436A60124D6A688B0302D5079B1A4313
:1011A00001E0079B9A436A602A68C90301D51A4384
:1011B00000E09A432A60641C32681146E140BF1C7B
:1011C000089B1B1D0893099B08330993002900D035
:1011D00056E70AB0F0BDC046000C005000180240AF
:1011E00080180240000400500008005042690B467D
:1011F00093430A401104C91881617047002A01D045
:10120000182200E02822815070470000E84800685A
:101210007047C046B0B50246034640335C780220B2
:10122000202C17D11C78012C14D024205870106861
:1012300002680124A2430260220305689543056009
:1012400002680A43026001682143016000201870AF
:1012500020215970B0BDB0B50246034640335C78DA
:101260000220202C17D11C78012C14D02420587077
:10127000106802680124A24302600F22120205686E
:101280009543090229430160016821430160002060
:10129000187020215970B0BDF0B581B0002822D05F
:1012A0000446054640356878002804D1002028709F
:1012B000204600F039F92420687020680268012176
:1012C0008A4302600F2212066368934303618368B6
:1012D000184A13408360A368E668012E05D1CE0347
:1012E0003343836009E0012022E02127BF023B4312
:1012F0008360022E01D1CB02436043680E4E1E4331
:101300004660C3681340C360226963691343A269DE
:1013100012021A43C260E269236A1343036002683F
:101320000A43026000206064202169702063A87075
:1013300001B0F0BDFF7FFFFF00800002F0B589B073
:101340000746054640356C780220202C6AD1089368
:101350000E9C002C45D00F9E002E42D02B78012BE6
:1013600060D002920591079701272F70FFF74EFF7B
:1013700003900090F9031923079806973A4601F065
:10138000E7F800284DD11098049021206870402083
:10139000A87000200190079F78647E857C62786346
:1013A0005B4805990140089CE0B200040591401893
:1013B00039684A68574B1340C018574A801848602C
:1013C00038460499039E324601F01FF9002801981F
:1013D00026D13868012C08D10299C9B28162049BD8
:1013E00014E00120410279641CE00299090A81623B
:1013F0003846049C2146324601F007F9002801983E
:101400000ED138680299C9B28162234600968021C4
:1014100000243846224601F09BF80028019803D0AA
:101420002870069809B0F0BD029401200690440689
:10143000788D000A394B3A49089407D038680A4633
:1014400041681140021DFF201C4609E0788D3A6872
:1014500053680B40C1B209041943121D23462F4C97
:101460001943059B19431160388504993846324663
:1014700001F0CBF80028D4D13868796A0A78826202
:10148000788D401E7885481C7862388D401E3885DE
:10149000798D002925D0000423D1009680210022D7
:1014A0003846049B01F054F80028BAD1788D000A20
:1014B00008D0FF20388539684868194A1040091D4E
:1014C00022460AE0788D388539684A68144B1A40FC
:1014D000C0B200041043091D089A059B104318432D
:1014E0000860788D00280499C0D13846324601F052
:1014F00064F80028069895D138682021C1614268B7
:10150000084B13404360697002982870A87089E7FF
:10151000FF030000009800FC002000010000FF0114
:10152000009C00FC00E800FE10B58CB0044601A849
:10153000001D1421FEF7D0FE20681649884227D1ED
:101540002020019001A800F0C1F8002801D0FFF789
:1015500047FD114C206802210843206020680840A4
:10156000009006200B9000200A900990122008900D
:10157000C02007900098094807A9FFF76DFD0120DA
:101580004005A1680143A160A16801400091009855
:101590000CB010BD00540040341002400004005054
:1015A0001D48007802490A68101808607047C04654
:1015B0009416002010B501242002EA490A6802436B
:1015C0000A60032000F008F8002802D100F026F895
:1015D0000024204610BDC046B0B505460E4801782F
:1015E0000124002916D07D20C000FEF777FE0146B9
:1015F000DF480068FEF772FE00F00CFF032D09D8EB
:10160000002807D10024E0432946224600F01CF8B8
:10161000D84805602046B0BD3400002082B009489B
:1016200041680122114341604168114001910199D3
:10163000110702680A4302600068084000900098A1
:1016400002B070473C100240002805D40322034634
:1016500093430A4A9A1803E00C220240064BD21820
:101660008007C00E8901C9B28140FF238340106802
:10167000984308431060704714ED00E000E400E078
:10168000F0B581B0032569025C4E32688A4302439B
:10169000326001214A020024904212D1B44802680B
:1016A000706940050DD58F02062050430649FEF7AC
:1016B00015FE801C401E03D071693942FAD100E04A
:1016C0002C46204601B0F0BD40420F00F0B585B079
:1016D000044680788007484F01D4002548E0012265
:1016E0001107386B0840039006D1386B0843386304
:1016F000386B0840049004980291019216023F4F03
:10170000386830433860FFF781FD0546386830425D
:1017100007D1FFF77BFD401B0228F7D90325364F81
:101720001FE0032529023448006D084011D061698B
:1017300088420CD0304B186D019909041A6D0A4388
:101740001A651A6D8A431A652D4908401865C00745
:1017500043D1294F386D2A490840616901433965F1
:1017600000250398002803D1386B02998843386319
:101770002068C10705D0B96C0322914362680A430F
:10178000BA64810606D503210903BA6C8A43A168AD
:101790001143B964012142040CD5BA6C194B1A40AB
:1017A00026693243BA645A1C964203D10A043B6844
:1017B00013433B6000050DD5880303229203BB6CE5
:1017C0009343E2681343BB64824203D1080439683F
:1017D00001433960284605B0F0BDFFF717FD064606
:1017E000614F0548006D8007B3D4FFF70FFD801BE4
:1017F000B842F6D993E7C0460C1002400070004092
:10180000FFFCFFFFFFFFFF3FF0B583B00D46012156
:10181000002800D1A3E001910290524800680724FB
:101820002040A84213D24F490868A04328430860CB
:101830004D4EFFF7EBFC07464A4800682040A8429F
:1018400005D0FFF7E3FCC01BB042F5D986E0029B50
:1018500018688107674E0CD5410703D5210332680C
:101860000A4332600F21090232688A4399681143A2
:101870003160C00718D13B4800682040A84228D9F1
:1018800038490868A04328430860374FFFF7BEFC7B
:101890000646344800682040A8421AD0FFF7B6FC3C
:1018A000801BB842F5D959E0586803282FD8810029
:1018B00001A251584F4A8F46C9180008151900084F
:1018C0001F19000829190008114608390968490537
:1018D0002CE0029A10784007464D05D52003296870
:1018E0008143D0680843286000F046F829688909D8
:1018F0003C220A401D4989581F220A40D0401C49F9
:1019000008601C480068FFF767FE014627E0394A77
:10191000516D0AE0114608390968890306E011464D
:1019200008390968890101E0916D8907019916D587
:101930001168A143014311600B4FFFF767FC064696
:101940002C4800683821014002984068C00081425C
:1019500091D0FFF75BFC801BB842F1D90321084608
:1019600003B0F0BD0020024088130000183B0008BF
:10197000100000203800002010B51E4C20688006A2
:10198000400F06D0226838210A401B48082A07D198
:1019900010BD083C20688004410F1848C84010BDA5
:1019A00022680A40102A15D1616803220A40032ADE
:1019B00000D0124861684906490F491CFEF78EFCA9
:1019C00061684904490E48436168490F491CFEF7A4
:1019D00085FC10BD20680840202802D10120C003EA
:1019E00010BD20680840182801D0002010BD7D20BF
:1019F000000210BD0810024000127A000024F4001A
:101A0000F0B587B00125002800D1F0E104950590DC
:101A10000078C007F74F2AD0B868F96803252A462E
:101A20008A433821014010204840821850425041DA
:101A3000082914D0002812D1059842680120010419
:101A40008A4208D005231B049A4200D0DAE08204BF
:101A50003B6813433B603A680A433A60DBE038680E
:101A6000800304D505984068002800D173E10598EB
:101A70000078800723D40598007800070CD5B86853
:101A800038210140182971D1386E800704D5059896
:101A90008069002800D15EE1059A1078400700D4E3
:101AA0002EE1B86838210140202974D1F86D8007F3
:101AB00000D425E19068002800D021E14BE1B9680D
:101AC0003820084010214140FA6803252A400223AB
:101AD0005340CA1851425141002820D000291ED13C
:101AE0003868059AD168002900D1A2E00721C9020F
:101AF0008843116901433960012001023A680A43B1
:101B00003A608402FFF782FB06463868204200D024
:101B1000A1E0FFF77BFB801B0228F6D967E139685B
:101B20004905059B03D5D968002900D113E17F2120
:101B300009027A688A4359690902114379600028C9
:101B40000DD10720C0023968814318690843386005
:101B500038688004400FA849C140A8480160A848DF
:101B60000068FFF739FD002885D0F4E0386E05994C
:101B70008969002979D0012108433866FFF746FBBF
:101B80000646386E800787D4FFF740FB801B03258D
:101B90000228F6D92BE1012003900107F86B0840D9
:101BA000029006D1F86B0843F863F86B0840069082
:101BB0000698019193480068C00513D40398040265
:101BC0009049086820430860FFF720FB06468D48CF
:101BD0000068204206D1FFF719FB801B032502286D
:101BE000F5D904E105988068874C012805D00528BF
:101BF0005AD1F86D04210143F965F86D0399084342
:101C0000F8655BE03B688B433B6081043B688B433A
:101C10003B60002A3AD04404FFF7F8FA06463868D9
:101C2000204200D023E7FFF7F1FA801B6428F6D9A1
:101C3000DDE001210A02904338608C02FFF7E6FAEA
:101C400006463868204200D115E7FFF7DFFA801B0F
:101C50000228F6D9CBE07F200002796881430598FD
:101C6000406900020843786005E70121884338662F
:101C7000FFF7CCFA0646386E800700D40CE7FFF772
:101C8000C5FA801B03250228F5D9B0E04404FFF70C
:101C9000BDFA06463868204200D1E8E6FFF7B6FAFA
:101CA000801B6428F6D9A2E0F96D039A9143F96587
:101CB000F96D04229143F96500280CD0FFF7A6FACC
:101CC0000646F86D800713D4FFF7A0FA801B0325A2
:101CD000A042F6D98BE0FFF799FA0646F86D800727
:101CE00006D5FFF793FA801B0325A042F6D97EE0C4
:101CF00002980028059A03D1F86B01998843F8638C
:101D0000D469002C72D0B86838210140102924D140
:101D1000012C20D0F86803210140059B1A6A9142EA
:101D200019D1702101405A6A914214D17F210902D0
:101D300001409A6A120291420DD11F2149040140CB
:101D4000DA6A9142049D52D1072149070840196B74
:101D500088424BD04BE0049D49E0012529063868B4
:101D6000049188433860FFF751FA0646022C0BD1E4
:101D700003956C063868204211D0FFF747FA801BA4
:101D800003250228F6D932E06C063868204229D0B3
:101D9000FFF73CFA801B03250228F6D927E0F868F4
:101DA0001B490140059E20366DCE084310431902A1
:101DB000014329433143F960386804990843386086
:101DC00003980007F9680143F960FFF71FFA064618
:101DD000386820420AD1FFF719FA801B0325022830
:101DE000F6D904E0F86809490140F9600025284661
:101DF00007B0F0BD001002400024F40010000020E5
:101E0000380000200070004088130000FCFFFEEF47
:101E10008C80C11FF0B585B000280CD00446054663
:101E20005C3541208600606A002806D000202061D1
:101E30002046143006E0012064E06068B04203D020
:101E400020461C30002101600027A7626878002826
:101E500004D100202870204600F056F80220049596
:101E600001906870206801684022914303900160EE
:101E7000E168EC4A012591422A4600D33A46120312
:101E8000ED020D430F2738020290854201D0002554
:101E9000A5626568A768354021239B023B405B191A
:101EA0002569019805401D436069012318402843B6
:101EB000FC36A7693E400643E069382505403543B6
:101EC000206A802606402E435803A56A0540354304
:101ED000039E3560380C04250540029801400A43F2
:101EE0002A43606A102101401143606B08220240BE
:101EF0000A437260D802F1698143F16100202066D3
:101F000004994B7005B0F0BD80B586B000681149EA
:101F100088421DD1012001030F4AD3680B43D360CF
:101F2000D3680B4001930199116801431160116856
:101F3000014000910020059004900390022002903F
:101F4000E020019005200007009901A9FFF784F81F
:101F500006B080BD0030014034100240F0B585B0BD
:101F600017460E4605460446443441208000696801
:101F7000814202D1A86800286ED0207E012801D1BC
:101F800002209EE00497039301272776FFF73EF98E
:101F90000146607E01285DD1002E3846049B00D1A9
:101FA0008CE0002B384600D188E001970420607651
:101FB00000222A666380EA872E642380AA87AA63A8
:101FC000EA642A6507200002EE6801230490029665
:101FD00086421E4600D9164636031F032A685068FB
:101FE000B84380195060D803AB68834208D11068A9
:101FF00040239843106001208003136883431360DB
:1020000010684006039E0F4603D410684023034324
:10201000136062880498401C0299814226D2002AEB
:102020003DD028688168C90707D1FFF7EFF8711C18
:102030000CD0C01BB04209D33EE0007B296C087075
:10204000286C401C28646088401E608060880028DE
:10205000E7D124E0022031E0042060760093284696
:10206000314632463B4600F0DFF82AE0002A16D01F
:1020700028688168C90707D1FFF7C8F8711C0BD021
:10208000C01BB04208D317E0296CC0680880881CC8
:1020900028646088401E608060880028E8D1284657
:1020A00031463A4600F0CFFD002801D020202866B6
:1020B000286E411E884100E00320019F0021217607
:1020C000677605B0F0BD0000F0B587B0044607465E
:1020D0004437387E012801D10220A0E01546059141
:1020E000049301263E76FFF791F80390787E01284D
:1020F00040D105990029304600D18DE0002D3046B1
:1021000000D189E0029603200090787600202066B6
:10211000E587A587A16320643880E064206501908D
:10212000788020680121CA03A368934207D102681E
:1021300040239A430260890302680A4302600168EF
:102140004906049E03D4016840220A430260616884
:102150004A424A416B1E594259411143E268AC4B15
:102160009A4209D30029039D0FD0059A1188C160B6
:10217000901C06E002204FE00029039D21D0059924
:1021800017E0A063E08F401EE087E08F00282BD08F
:1021900020688168890707D4FFF738F8711CF4D0EC
:1021A000401BB042F1D31AE0A16B0A88C260881CC0
:1021B000E7E709780173A06B401CA063E08F401E25
:1021C000E087E08F00280FD020688168890709D454
:1021D000FFF71CF8711CF4D0401BB042F1D3029EF3
:1021E000009819E0A16BE4E7204631462A4600F04A
:1021F00066FD002801D020202066A0680028029EED
:1022000007D1019806902068C16806918068069001
:102210000698206E411E8841002139767E7607B0EF
:10222000F0BDC04601070000F0B587B00446074680
:102230004437387E012801D10220DAE01D4604929D
:10224000059101263E76FEF7E1FF3246059E069097
:10225000797E01297CD1002E104600D1C6E0049879
:102260000028104600D1C1E0002D104600D1BDE08D
:102270000392787E042801D0052078760023236617
:102280007D80E587E168624A012002919142024621
:1022900000D31A46110301910103206842688A4362
:1022A000019951184160049921643D80A663E3645B
:1022B0002365A5870168490603D4016840220A43C3
:1022C00002600C9E61684A424A41691E4B424B4182
:1022D000134302994E4A914248D3002B07D0059AE6
:1022E0001188C160901CA063E08F401EE08701252B
:1022F000E08F002802D1788800287CD0206881688F
:1023000089070DD5E18F00290AD0012D08D1A16BD5
:102310000A88C260891CA163E18F491EE1870025FC
:102320008168C9070BD07988002908D0216CC06862
:102330000880881C20647888401E78800125FEF77C
:1023400065FF711CD4D00699401AB042D0D34BE03F
:1023500003924120820063680220934245D1A26823
:10236000002A42D10429039A40D174E7002B08D0F7
:10237000059909780173A06B401CA063E08F401E93
:10238000E0870125E08F002802D17888002832D02C
:102390002068816889070FD5E18F00290CD0012DB5
:1023A0000AD1A16B09780173A06B401CA063E08F78
:1023B000401EE087206800258168C9070CD0798815
:1023C000002909D0007B216C0870206C401C20641F
:1023D0007888401E78800125FEF718FF711CD1D047
:1023E0000699401AB042CDD30320039A00213976D2
:1023F0007A7607B0F0BD20463146069A00F05FFCC1
:10240000002803D0202020660120EEE70020ECE722
:1024100001070000401E010E01D00120704707494E
:10242000074A5060074803680B4003218907591881
:10243000016000209060072111607047FFFFFF00DE
:1024400010E000E020ED00E0FEE70000F0B583B012
:102450000D4604464030029020688169C90602D4C6
:1024600000210F463BE01021C1618169890632D409
:1024700016460120074680030190681C06D0FEF72F
:10248000C5FE002D07D0801BA84204D820688169B2
:102490008906F2D51FE0206842680299897883692D
:1024A0001B040BD5019B1A4008D1202906D0416896
:1024B000019A11434160FEF7A9FE06462068806933
:1024C0008006E3D4FEF7A2FE801B1928F6D9206807
:1024D0008169242103E02021C16101270421012514
:1024E0008269D30503D52B02C36129432F466B02B2
:1024F000560505D41A4209D1002F0AD1002022E046
:10250000AD02C561082529431A4202D0C3610222E7
:1025100011438269920701D5002282628269D20743
:1025200003D182690123134383614268074B13403F
:102530004360606C0843606420200299487000206A
:1025400008708870012003B0F0BDC04600E800FEAE
:10255000F0B583B01D4616460F46044603689969D8
:102560003940C91B4A424A410020B24223D101905E
:1025700020464030009008980290691C08D0FEF771
:1025800045FE002D0DD00299401AA84209D82368B3
:1025900099693940C91B4A424A41B242EDD001987B
:1025A00009E0606C202108436064009A51700020AB
:1025B00010709070012003B0F0BDF0B581B01646E8
:1025C0000F4604464030009020688069800618D489
:1025D000204639463246FFF739FF0125002811D140
:1025E000FEF714FE002F02D0801BB842ECD9606CBD
:1025F000202108436064009A517000201070907090
:1026000000E00025284601B0F0BDF0B583B00446D7
:10261000006880690027800725D415460E4602977A
:10262000204640300190204631462A46FFF70EFFF3
:102630000127002817D1701C06D0FEF7E7FD002EF9
:1026400008D0401BB04205D8206880698007EAD5D1
:10265000029F08E0606C202108436064019A517079
:10266000002010709070384603B0F0BD80B5074868
:102670000749FEF7B9FC01460020002901D0C043FC
:1026800080BD044901220A7080BDC04614000020AC
:10269000C80500209C010020F0B587B000260696F2
:1026A0001C48016802221143016001681140019138
:1026B00001990168012421430160006820400190D4
:1026C0000198052005071027284639462246FEF7BF
:1026D00095FD114821462246FEF790FD0596049689
:1026E0000394029702AF28463946FEF7B5FC0596DB
:1026F00004960394029408483946FEF7ADFC04940E
:1027000003960320C002029028463946FEF7A4FC37
:1027100007B0F0BD341002400004005010B5134C57
:1027200001200021124A134B23606260A160E06027
:10273000204610301421FDF7CFFD2046FEF7ACFDFA
:10274000002801D0FEF74CFC08480021FEF762FD8E
:10275000002801D0FEF744FC04480021FEF77BFD71
:10276000002801D0FEF73CFC10BDC046DC1500205F
:10277000BC7D701000540040B0B50F480822002105
:102780000723016241628162C362016342633822AE
:102790000A4C1B024125AD0030C0FC35016043608E
:1027A0008160C160056142610838FFF733FB002892
:1027B00001D0FEF715FCB0BD3016002000300140FE
:1027C000FEE70000B0B543B2002B17D43F2915D85F
:1027D000072425468D430123AB40C908611AC00078
:1027E000002A05D0C04A1018C9B2425C1A4304E05E
:1027F000BD4A1018C9B2425C9A434254B0BDC046AB
:10280000F0B585B004A9AE200870B5480068B54F92
:10281000012400AA92C27825002629463246234682
:10282000FEF78CFD04A9D5200870AD48006800AA09
:1028300092C2294632462346FEF780FD04A9502065
:102840000870A748006800AA92C22946324623466B
:10285000FEF774FD04A9A8200870A148006800AA2A
:1028600092C2294632462346FEF768FD04A93F205E
:1028700008709B48006800AA92C229463246234647
:10288000FEF75CFD04A9D32008709548006800AAF3
:1028900092C2294632462346FEF750FD04A90E7027
:1028A0008F48006800AA92C2294632462346FEF7A6
:1028B00045FD04A9402008708948006800AA92C21A
:1028C000294632462346FEF739FD04A98D200870BB
:1028D0008348006800AA92C2294632462346FEF782
:1028E0002DFD04A9142008707D48006800AA92C23A
:1028F000294632462346FEF721FD04A92020087010
:102900007748006800AA92C2294632462346FEF75D
:1029100015FD04A90C707248006800AA92C22946ED
:1029200032462346FEF70AFD04A9A12008706C4830
:10293000006800AA92C2294632462346FEF7FEFCF2
:1029400004A9C02008706648006800AA92C22946FF
:1029500032462346FEF7F2FC04A9DA2008706048EC
:10296000006800AA92C2294632462346FEF7E6FCDA
:1029700004A9122008705A48006800AA92C2294689
:1029800032462346FEF7DAFC04A981200870544839
:10299000006800AA92C2294632462346FEF7CEFCC2
:1029A00004A9EF2008704E48006800AA92C2294688
:1029B00032462346FEF7C2FC04A9D92008704848D5
:1029C000006800AA92C2294632462346FEF7B6FCAA
:1029D00004A9F12008704248006800AA92C2294662
:1029E00032462346FEF7AAFC04A9DB2008703C48C7
:1029F000006800AA92C2294632462346FEF79EFC92
:102A000004A9302008703648006800AA92C22946FE
:102A100032462346FEF792FC04A9A42008703048F1
:102A2000006800AA92C2294632462346FEF786FC79
:102A300004A9A62008702A48006800AA92C2294664
:102A400032462346FEF77AFC04A9AF2008702448DA
:102A5000006800AA92C2294632462346FEF76EFC61
:102A6000A1027748FDF738FC00F002F805B0F0BD90
:102A7000F0B587B004A9B020087019480068194F54
:102A8000012400AA92C27825002629463246234610
:102A9000FEF754FC05A90E701148006800AA92C206
:102AA000294632462346FEF749FC06A91020087045
:102AB0000B48006800AA92C2294632462346FEF718
:102AC0003DFC074800680297A10201915C49009112
:102AD000402229462346FEF731FC07B0F0BDC04630
:102AE0002C000020FFFF0000C8010020F0B587B0D7
:102AF0001F4605910690082B02D1082001900AE09C
:102B00007907F808002900D0401C79084143C8B271
:102B10000190002846D00C98414204904141039115
:102B2000203AD0B200900022059D082F029203D1D6
:102B30000098C0001F4912E0182F08D0102F0BD0AA
:102B40000C2F2FD10C2000994843194907E024206D
:102B500000994843144902E00098000113490818FD
:102B600080180678002470B20028049A00D4039AD2
:102B70000698C0B2E9B2FFF725FE6D1CE8B20599D0
:102B8000401AB84205D0601C7600072C0446EAD3F0
:102B900003E00698401C0690059D029A521C01987D
:102BA0008242C2D107B0F0BDB4480008C442000858
:102BB000503E0008583B0008F0B585B00493154618
:102BC0000746127810462038C0B25E2835D80E4627
:102BD0004021049B5808082B039000D103930A9CC2
:102BE0000294C91A019180210C1AF8B2844200D2D1
:102BF0000027049B844200D2F618F0B2019981426A
:102C00000ADA012081020E48FDF766FBFFF730FF6C
:102C1000049B2A780026374602980090F8B2F1B259
:102C2000D2B2FFF763FF03983F18681C6A78114619
:102C30002039C9B25F290546D7D305B0F0BDC046DB
:102C4000C80100207047F0B581B017460E46044613
:102C5000412085006068A8420CD1A0680121CA0308
:102C6000904202D08902884204D120680168402243
:102C700091430160204631463A4600F0BBF80028F7
:102C800005D0206E202101432166032714E03B4636
:102C900060680027A8420FD1A0680121CA039042B2
:102CA00002D08902884207D10320410220463246E1
:102CB00000F02CF80028E4D1384601B0F0BDF0B5A2
:102CC00081B016460F4605460324E1023A463346D4
:102CD00000F01CF800280FD128463946324600F093
:102CE00089F8002808D10320410228463A46334695
:102CF00000F00CF8002806D0286E20210143296638
:102D0000204601B0F0BD0024FAE70000F0B589B01C
:102D10001C4615460E46074607A800210291017081
:102D2000FEF774FA201A06954419FEF76FFA04901C
:102D30005C48006823214143080D059460430890D6
:102D400039688868304228D03B4638465C3001906C
:102D500003910846029D032779028E4204D103990C
:102D6000097B07AA117007990699491C10D01C46C7
:102D7000FEF74CFA0499401A059988420FD2089838
:102D80000899491E08910028234600D1059018682B
:102D900081683142DFD12F4628E0029F26E023469A
:102DA00020684168E02291434160412189006268C6
:102DB0008A420CD199680122D3039942234602D05A
:102DC0009202914203D101684022914301600121A6
:102DD0004A039B6A934205D10368934303600368E7
:102DE000134303600020019A10705170384609B0F7
:102DF000F0BDC046F0B583B016460D460446FEF75A
:102E000005FA301A4719FEF701FA06462548006808
:102E10004001000D784302902068816800220192F1
:102E2000090614D521465C310091691C0CD0FEF7CF
:102E3000EDF9801BB8420CD202980299491E02910A
:102E4000002800D10746206881680906EDD4019862
:102E500025E020684168E0229143416041218900DA
:102E600062688A420BD1A1680122D303994202D041
:102E70009202914203D101684022914301600121F5
:102E80004A03A36A934205D103689343036003682E
:102E9000134303600020009A10705170032003B0A8
:102EA000F0BDC04610000020704780B5FEF778FBEB
:102EB00080BDF0B591B004AC201D1821FDF70CFACF
:102EC00001277802FEF7DCFB7807109078040F905A
:102ED00008200E9000260D9602250C950B9540209B
:102EE000099008963802079004952046FEF788FD61
:102EF000002803D0EFF3108072B6FEE70396029627
:102F000007200090019568462946FEF77DFC0028C1
:102F100003D0EFF3108072B6FEE711B0F0BD70473A
:102F2000B0B52F4C01212170002813D1402000F0B2
:102F3000AFFA00F0B3F80A20FEF77CF801252570FF
:102F400000F000F92749884202D125780120854305
:102F50002570217821702078B0BDC046042910D892
:102F60000020890001A359588F46C046812F0008D0
:102F7000872F00088D2F0008952F0008812F00084B
:102F80007047042070470321490204E0012109032E
:102F90001180704701211160704710B5044604206C
:102FA000002C09D1002B07D014031807020C084687
:102FB000214600F081F8002010BD0000B0B5084C9B
:102FC00001252570002807D100F0BCF8054988428A
:102FD00002D125780120854325702078B0BDC046F8
:102FE0000C00002016EF0000B0B5002B0AD0002422
:102FF000002808D115031807020C0846294600F0DE
:1030000013F900E004242046B0BD0000F0B585B0FF
:10301000074620A03946FDF7D1F800F05BF900F033
:10302000F9F804AE2020307005200007039010212D
:10303000029100220192FEF7E1F8F04800680124B5
:10304000EF4D314622462B46FFF73EF838093070E7
:10305000EA480068314622462B46FFF735F838012A
:103060003070E64908680F46314622462B46FFF786
:103070002BF8019830703868314622462B46FFF70E
:1030800023F8039802992246FEF7B8F800F0C2F838
:1030900005B0F0BD66653A25780D0A0080B50520BB
:1030A000000710210122FEF7A9F800F04BF80149B2
:1030B000088080BD28000020F0B585B0144602913C
:1030C000054604A90391032008700520000710217C
:1030D00000220090FEF792F8C84E3068012201925B
:1030E000C74F03993B46FEF7EFFF0298000C039988
:1030F00008703068019A3B46FEF7E6FF0298000A26
:10310000039908703068019A3B46FEF7DDFF02988C
:10311000039908703068019A3B46FEF7D5FF002CF2
:1031200008D03068012229463B46FEF717FF641E8F
:103130006D1CF4E7102101220098FEF75FF805B03E
:10314000F0BDC046F0B583B002AC902020700520E1
:10315000000701901021009100263246FEF74EF83C
:10316000A64800680127A64D21463A462B46FEF7A1
:10317000ABFF2670A148006821463A462B46FEF771
:10318000A3FF9E4E306821463A462B46FEF79CFF31
:10319000306821463A462B46FEF796FF30682146B6
:1031A0003A462B46FEF7DAFE3068029D21463A4643
:1031B000934BFEF7D3FE2478019800993A46FEF728
:1031C0001DF82802001980B203B0F0BDF0B581B03F
:1031D0006C4605202070050710260022284631463F
:1031E000FEF70CF8854800680127854B21463A46D2
:1031F000FEF76AFF8148006821463A46804BFEF799
:10320000ADFE284631463A46FDF7F8FF207801B07A
:10321000F0BDC04680B5FFF7D9FFC00703D0052039
:10322000FDF708FFF7E780BDF0B587B001231B036A
:103230005D1E0D405C1B944200D314460690049220
:103240000391080B224F0293059001033846019128
:103250001A46FFF731FF200409D0A6B230462946AE
:103260007A5CFF2A0BD1401E491C0028F8D1A2B27B
:10327000069E3046039D294600F048F811E0059867
:10328000FFF7C4FE069801787955761E401C6D1C28
:10329000002EF8D138460199029A00F037F8039DC4
:1032A000069EA0B2049A91B281420ED0121B94B233
:1032B000029B9C4200D31C4604922D18039536189D
:1032C00006960598401C0025BEE707B0F0BDC04635
:1032D000CC050020F0B581B06E4606203070052088
:1032E00004071025002220462946FDF787FF4348A2
:1032F00000680127424B31463A46FEF7E5FE20467C
:1033000029463A46FDF77AFF01B0F0BDF0B583B02B
:1033100013460D46CAB20121090201918F1A9F423C
:103320003C4600D31C46294606462246029300F03E
:1033300019F802998F4213D2A0B236182D18091B22
:1033400002918FB2FF2F3C4600D9019C304629469E
:10335000224600F007F80198401C87420299EBD200
:1033600003B0F0BDF0B585B0144603910546FFF7F4
:10337000B1FF05200007102100220190FDF73EFF5C
:1033800004AE022030701D480068012202921C4FDA
:1033900031463B46FEF798FE0398000C3070174804
:1033A00000683146029A3B46FEF78EFE0398000AFB
:1033B0003070124800683146029A3B46FEF784FEA0
:1033C000039830700D4A106831461646029A3B4603
:1033D000FEF77AFE002C08D03068012229463B46D1
:1033E000FEF772FE641E6D1CF4E7102101220198A5
:1033F000FDF704FFFFF70EFF05B0F0BD3000002021
:10340000FFFF0000B0B505460024C470E043286308
:10341000284600F00BFB002801D004242DE01848BA
:10342000281801784078000240181649884223D1B4
:10343000284634300178E92904D0EB291AD1807864
:10344000902817D16A35A87800046978090208180D
:10345000297840180C4988420FD0E87F0004A97FE2
:1034600009020818697F40180002297F401807499F
:10347000884202D0022400E003242046B0BDC046AA
:103480003202000055AA0000464154004641543320
:10349000014908607047C046D815002080B5204A11
:1034A000115C002901D0002080BD012111541118A8
:1034B000097A80001018406802680846904780BD6D
:1034C00010B5174C23181B7A800020184068046937
:1034D0001846A04710BDC046B0B5114D2C18247A2F
:1034E00080002818406885682046A847B0BDC046BF
:1034F00080B50B4A1118097A80001018406842689C
:103500000846904780BDC046B0B5054D2C18247ABA
:10351000800028184068C5682046A847B0BDC0464E
:10352000CC150020F0B583B01446054601910091FA
:10353000684600F00FFA002824D48000F9490A58A0
:10354000002A11D000270126114B3F01D959914281
:1035500002D1D91900270F6001270021F6070E4676
:10356000F3D100211170EF490918002D0CD00D6026
:1035700000202870012C09D101A802A9002200F026
:1035800009F803E00B2001E00020086003B0F0BD63
:10359000A4010020F0B58FB015460C4600270F603F
:1035A00000F0D8F900281BD406468000DD490A58EF
:1035B000002A00D124E12260FE2005401078002876
:1035C00010D050781446FFF793FF2246C10709D167
:1035D000002D00D119E14007C0170A25054014E16C
:1035E0000B2512E156700A921770F0B2FFF756FFE2
:1035F000C10700D006E10421084041424141684230
:1036000068410843012800D0FEE00A9C60780C3431
:10361000022631462246FFF753FF0125002800D03D
:10362000F3E02088C249411889B207225202914230
:1036300000D9EAE04108BC4A0A40801ABB49820826
:1036400008400A408018010940180F2102460A402C
:1036500009020140080A1018012800D9D5E009968E
:103660000A983946FFF7CEFE02282BD1FB204000F6
:103670000A99081800210A460378002B0B4609D046
:10368000C3791B0484792402E31844791B191B02B3
:1036900004791B190BACA350121D1030102AEBD16A
:1036A00000260BAC2768002F04D00A983946FFF794
:1036B000A9FE00E00320022804D3241D711C032E60
:1036C0000E46EFD3042800D19FE00D25012800D934
:1036D0009BE00A9A14463434E07A217B09020818E8
:1036E00086B29089864200D08FE013465433A07D85
:1036F000E17D0902091809D1D879000499790902F4
:10370000081859794018000219794118D161207CB4
:1037100090700890401E012877D806910794647B2A
:103720005481601E2040411E8841614205946141E0
:1037300001436AD10393079C607CA17C09020818AD
:103740000490108180B202967609B1B2FCF7C6FDF2
:1037500046430499891B090457D1E17C227D12025A
:1037600051180AD1039BD97809049A78120251188A
:103770005A78891809021A788918A27BE37B1B0200
:103780009A1842D0069B089E5E430896B31880B2F2
:103790001B18994239D3C81A0599884235D3D919CB
:1037A0000A9EF162B9183762019171620599FCF7BE
:1037B00095FD811CB1615F4A904201D303220992B9
:1037C0005D4A904201D801220992099A032A1FD129
:1037D000039A907AD27A1202101816D10498000433
:1037E00013D1039BD87B00049A7B120210185A7BDA
:1037F000801800021A7B80180A9A906288001CE0E8
:103800000C2502E0032500E00A2528460FB0F0BD94
:10381000049A1204F9D0089A019B9A180A9B9A629A
:10382000464A8218120B0E2A01D8480005E00122F0
:10383000104003224A435108081802990818401EF4
:10384000FCF74CFD06998142DFD380200A9908716C
:103850000026F04308614861099803284AD103997A
:10386000087C497C09020818012843D1791C0A9870
:1038700000F0DCF800283DD14320C0000A9A10185F
:1038800000211171817EC27E120251182C4A914290
:1038900030D1E1780904A2781202511862788918AF
:1038A000090222788918274A914223D1C178090454
:1038B0008278120251184278891809020278891810
:1038C000214A914216D1C179090482791202511814
:1038D000427989180902027989180A9B5961C17ACB
:1038E0000904827A12025118427A89180902007A70
:1038F0000818186101250A9A099810701348018860
:10390000491C0180D18012480A9B310142589A42D9
:1039100002D1411800220A60E9070025012600298A
:10392000F3D172E7A00100205555000033330000A9
:1039300000FEFFFFF6FF0000F50F00000AF0FFFF9A
:1039400055AA00005252614172724161C4010020C7
:10395000A4010020B0B5014602680023D843002A24
:1039600013D0D55C5B1C212D01D33A2DF9D1002455
:103970003A2D09D11578303D092D06D8022B04D1F6
:10398000002D02D1D01808602046B0BD70B5264E7B
:10399000B544FDF70FFEFFF78CFAFEF77DFEFEF74C
:1039A000EBFEFEF7BBFEFEF761FE002803D0EFF34F
:1039B000108072B6FEE7FEF723FF01A80024012560
:1039C00021462A46FFF7AEFD0095002801D010A23F
:1039D00000E00AA20D2800D110A2082320462146AB
:1039E000FFF7EAF8FFF744F80E4C01212046FDF7F7
:1039F000FDFB7D208000FDF71DFBF6E753504920BD
:103A0000466C617368206D6F756E74210000000054
:103A10004653206572726F72210000006E6F20465F
:103A20005321000000040050C8EFFFFFB0B504466A
:103A3000006B884201D10020B0BD0D46204600F049
:103A400012F8002800D0B0BD60782146343101233F
:103A50002A46FFF741FD002801D00021CD43256310
:103A6000411E8841B0BDF0B581B00546C078002840
:103A700023D068782E6B2F463437012439463246DE
:103A80002346FFF741FD002818D10024EC70686A36
:103A9000301AE969884211D20094AC78022C0AD31A
:103AA000E86986196878012339463246FFF72CFD0C
:103AB000641E012CF4D8009C00E00024204601B0D4
:103AC000F0BD10B58A68002A03DC0022FCF734FE42
:103AD00010BD521E8A604A68C0B2531C4B60107001
:103AE00010BD3031323334353637383941424344F2
:103AF0004546403058003031323334353637383966
:103B0000616263646566403078003A7474003A74A8
:103B100074003A747400000000000000000000000F
:103B20000000000000000000000000000000000095
:103B30000000000000000000010000000200000082
:103B40000300000004000000060000000700000061
:103B50000800000009000000000000000000000054
:103B6000000060FAFA60000000C0C000C0C00000A1
:103B700028FEFE28FEFE28002474D6D65C480000ED
:103B800062660C18306646000C5EF2BEEA5E1200F9
:103B90002070C00000000000001C3E6341000000D7
:103BA0000041633E1C000000082A3E1C1C3E2A08FF
:103BB00008083E3E0808000000010706000000005B
:103BC00008080808080800000000060600000000B9
:103BD000060C183060C080007CFEE2B29AFE7C00C9
:103BE0003262FEFE0202000046CE9A92F6660000A5
:103BF00044C69292FE6C0000183868CAFEFE0A00A5
:103C0000E4E6A2A2AE9C00003C7ED2929E1C000084
:103C1000C0C08E9EF0E000006CFE9292FE6C000030
:103C200060F29296FC7800000000666600000000DA
:103C3000000167660000000010386CC682000000BA
:103C400042424242424200000082C66C38100000EC
:103C500040C08A9AF06000007CFE82BABAF8780010
:103C60003FFFC8C8FF3F000082FEFE9292FE6C003C
:103C7000387CC68282C6440082FEFE82C67C380042
:103C800082FEFE92BA82C60082FEFE92B880C0001A
:103C900038FEC6828ACE4E00FEFE1818FEFE0000D8
:103CA0000082FEFE820000000C0E0282FEFC8000FC
:103CB00082FEFE1038EEC60082FEFE8202060E0074
:103CC000FEFE703870FEFE00FEFE601806FEFE006E
:103CD000387CC682C67C380082FEFE9290F060007E
:103CE00078FC848EFE7A0000FEFE9098FE6600004E
:103CF00064F6B29ACE4C0000C082FEFE82C0000084
:103D0000FEFE0202FEFE0000F8FC0606FCF80000C3
:103D1000FEFE0C180CFEFE00C2E63C183CE6C2009B
:103D2000E0F21E1EF2E00000E2C68E9AB2E6CE007D
:103D300000FEFE828200000080C06030180C060089
:103D4000008282FEFE000000103060C06030100073
:103D500001010101010101010000C0E0200000009B
:103D6000042E6A4A6A3E020082FEFC12121E0C00F9
:103D70001C3E2222361400000C1E1292FCFE020091
:103D80001C3E2A2A3A18000012FEFE92C040000093
:103D9000193D25251F3E200082FEFE10203E1E00FC
:103DA0000022BEBE0200000006070101BFBE0000E7
:103DB00082FEFE081C3622000082FEFE0200000089
:103DC0003E3E181C383E1E003E3E20203E1E000097
:103DD0001C3E22223E1C0000213F1F25253C1800CE
:103DE000183C24251F3F2100243E1E322038180095
:103DF000123A2A2A2E24000000207CFE22240000F1
:103E00003C3E02023C3E0200383C06063C380000C4
:103E10003C3E0E1C0E3E3C0022361C081C36220086
:103E2000393D05053F3E000032262E3A322600007D
:103E300010107CEE828200000000007E7E000000F8
:103E40008282EE7C1010000040C080C040C0800024
:103E50000000000000000000000000000000000062
:103E60003F40000000000000000030004000300033
:103E70004000000009000BC03D000BC03D000900E0
:103E800018C024407FE0224031800000180024C088
:103E90001B000D803240018003801C4027401C80A5
:103EA000074000401000600000000000000000001B
:103EB0000000000000001F80204040200000402043
:103EC00020401F8000000000090006001F8006003F
:103ED00009000000040004003F800400040000000A
:103EE000001000600000000000000000040004005A
:103EF0000400040004000000000000400000000076
:103F000000000000002001C0060038004000000052
:103F10001F802040204020401F80000000001040F3
:103F20003FC000400000000018C021402240244053
:103F30001840000010802040244024401B800000D6
:103F400002000D0011003FC0014000003C802440F1
:103F500024402440238000001F802440244034401B
:103F6000038000003000200027C03800200000003F
:103F70001B802440244024401B8000001C0022C0E1
:103F8000224022401F800000000000000840000086
:103F900000000000000000000460000000000000BD
:103FA000000004000A0011002080404009000900C0
:103FB00009000900090000000000404020801100B5
:103FC0000A0004001800200023402400180000000C
:103FD0001F802040274029401F400000004007C0AC
:103FE00039000F0001C0004020403FC02440244061
:103FF0001B8000001F8020402040204030800000B7
:1040000020403FC0204020401F80000020403FC093
:1040100024402E4030C0000020403FC024402E00ED
:10402000300000000F00108020402240338002004A
:1040300020403FC0040004003FC0204020402040FA
:104040003FC02040204000000060202020203FC0D2
:104050002000200020403FC024400B0030C0204002
:1040600020403FC020400040004000C03FC03C0016
:1040700003C03C003FC0000020403FC00C40230074
:104080003FC020001F802040204020401F800000B3
:1040900020403FC024402400180000001F80214021
:1040A000214020E01FA0000020403FC02440260007
:1040B00019C0004018C02440244022403180000034
:1040C000300020403FC020403000000020003F80F2
:1040D000004000403F80200020003E0001C007005B
:1040E00038002000380007C03C0007C0380000003E
:1040F000204039C0060039C0204000002000384070
:1041000007C0384020000000304021C02640384021
:1041100020C00000000000007FE0402040200000A0
:10412000000070000C0003800040000000004020F0
:1041300040207FE000000000000020004000200040
:10414000000000000010001000100010001000100F
:10415000000000004000000000000000000002809D
:104160000540054003C0004020003FC0044004401B
:10417000038000000000038004400440064000006B
:1041800000000380044024403FC000400000038042
:104190000540054003400000000004401FC02440CB
:1041A00024402000000002E0055005500650042085
:1041B00020403FC00440040003C000400000044011
:1041C00027C000400000000000100010041027E08D
:1041D0000000000020403FC00140070004C0044030
:1041E000204020403FC000400040000007C00400C5
:1041F00007C0040003C00000044007C004400400DE
:1042000003C000400000038004400440038000001D
:10421000041007F0045004400380000000000380F5
:104220000440045007F00010044007C0024004009E
:1042300004000000000006400540054004C00000E6
:10424000000004001F8004400040000004000780BC
:104250000040044007C000400400070004C0018083
:1042600006000400060001C0070001C006000000AF
:10427000044006C0010006C00440000004100710FE
:1042800004E00180060004000000044005C0064070
:10429000044000000000000004007BE0402000001B
:1042A000000000000000FFF00000000000004020BF
:1042B0007BE004000000000040008000400020007F
:1042C000200040000000000000000000000000008E
:1042D000000000000000000000001FCC000C0000E7
:1042E00000000000000008003000600008003000FE
:1042F00060000000022003FC1E20022003FC1E20A0
:104300000220000000000E1811043FFF10840C78FA
:10431000000000000F0010840F3800C007781884D8
:104320000078000000780F8410C411240E9800E477
:104330000084000808006800700000000000000011
:104340000000000000000000000007E01818200432
:1043500040020000000040022004181807E000009E
:10436000000000000240024001800FF00180024086
:10437000024000000080008000800FF80080008074
:10438000008000000001000D000E00000000000091
:10439000000000000000008000800080008000809D
:1043A000008000800000000C000C000000000000F5
:1043B00000000000000000060018006001800600F8
:1043C00018002000000007F0080810041004080876
:1043D00007F000000000080408041FFC00040004AB
:1043E0000000000000000E0C101410241044118472
:1043F0000E0C000000000C181004110411041288A7
:104400000C700000000000E00320042408241FFCBE
:104410000024000000001F9810841104110410886B
:1044200010700000000007F00888110411041888BB
:104430000070000000001C00100010FC13001C00A5
:104440001000000000000E38114410841084114444
:104450000E38000000000700088C10441044088843
:1044600007F00000000000000000030C030C000037
:104470000000000000000000000101060000000034
:104480000000000000000080014002200410080825
:10449000100400000220022002200220022002203C
:1044A000022000000000100408080410022001404F
:1044B0000080000000000E001200100C106C108034
:1044C0000F00000003E00C1813E4142417C408289C
:1044D00007D000000004003C03C41C40074000E477
:1044E000001C000410041FFC1104110411040E88A8
:1044F0000070000003E00C181004100410041008F1
:104500001C10000010041FFC100410041004080804
:1045100007F0000010041FFC1104110417C410045C
:104520000818000010041FFC1104110017C010002F
:104530000800000003E00C181004100410441C785C
:104540000040000010041FFC1084008000801084D4
:104550001FFC10040000100410041FFC10041004C1
:104560000000000000030001100110011FFE1000F8
:104570001000000010041FFC110403801464181CB8
:104580001004000010041FFC1004000400040004C8
:10459000000C000010041FFC1F0000FC1F001FFC8B
:1045A0001004000010041FFC0C04030000E01018AD
:1045B0001FFC100007F0080810041004100408087D
:1045C00007F0000010041FFC108410801080108081
:1045D0000F00000007F0081810241024101C080A0F
:1045E00007F2000010041FFC1104110011C011306B
:1045F0000E0C000400000E1C1104108410841044E2
:104600001C3800001800100010041FFC10041000DB
:104610001800000010001FF810040004000410042B
:104620001FF8100010001E0011E0001C0070138025
:104630001C0010001FC0103C00E01F0000E0103CF8
:104640001FC000001004180C163401C001C016343D
:10465000180C100410001C00130400FC13041C00B0
:10466000100000000804101C1064108413041C04C3
:10467000101800000000000000007FFE4002400211
:1046800040020000000030000C0003800060001CAD
:104690000003000000004002400240027FFE0000D4
:1046A000000000000000000020004000400040002A
:1046B00020000000000100010001000100010001D4
:1046C0000001000100004000400020000000000048
:1046D000000000000000009801240144014401444E
:1046E00000FC000410001FFC008801040104008885
:1046F0000070000000000070008801040104010443
:104700000088000000000070008801040104110806
:104710001FFC0004000000F801440144014401446E
:1047200000C800000000010401040FFC1104110482
:1047300011001800000000D601290129012901C932
:104740000106000010041FFC0084010001000104A8
:1047500000FC000400000104190419FC000400041A
:10476000000000000000000300010101190119FE12
:104770000000000010041FFC0024004001B4010CE4
:10478000010400000000100410041FFC00040004D9
:1047900000000000010401FC0104010001FC01040F
:1047A000010000FC010401FC00840100010001047F
:1047B00000FC0004000000F80104010401040104ED
:1047C00000F80000010101FF0085010401040088D8
:1047D0000070000000000070008801040104010561
:1047E00001FF00010104010401FC00840104010037
:1047F00001800000000000CC0124012401240124D8
:104800000198000000000100010007F80104010404
:1048100000000000010001F8000400040004010889
:1048200001FC0004010001800170000C0010016017
:104830000180010001F0010C003001C00030010CCA
:1048400001F0010000000104018C00740170018C72
:1048500001040000010101810171000E00180160D6
:104860000180010000000184010C01340144018435
:10487000010C0000000000000000000001003EFCF0
:10488000400240020000000000000000FFFF0000A6
:10489000000000000000400240023EFC0100000059
:1048A0000000000000006000800080004000400028
:1048B00020002000000000000000000000000000B8
:1048C00000000000000000000000000000000000E8
:1048D00000000000000000000000000000000000D8
:1048E000000000000000000F80380FFE380F8038F5
:1048F00000000000000000000000000000000000B8
:1049000000000100000600000C000038000031002B
:10491000000600000C00003800003000000000001D
:104920000000000061800067F807F98000618000E6
:1049300061800061800061800067F807F980006194
:104940008000000000000000000001C0E003E0F073
:104950000630080418081FFFFE040E080787F0033E
:1049600081E000000000000001F000060C000404DB
:1049700008060C7001F9C0000E00003BE000EC18C6
:10498000070808040C180003E00000000001E00024
:1049900007F003F818041C0804170807E1D003C047
:1049A000E00023B0003C08002008000010000000D8
:1049B0000000000100003100003200001C00000077
:1049C00000000000000000000000000000000000E7
:1049D00000000000000000000000000000000000D7
:1049E000000000007F0001FFC00780F00C001810DD
:1049F000000420000200000000000020000210005F
:104A0000040C00180780F001FFC0007F00000000C8
:104A10000000000000000000000000000000000096
:104A20004200006600006600003C0000180003FF22
:104A3000C0001800003C0000660000660000420054
:104A40000000000008000008000008000008000046
:104A5000080001FFC000080000080000080000086E
:104A600000000800000000000001000031000032DA
:104A700000001C000000000000000000000000001A
:104A80000000000000000000000000000800000816
:104A900000000800000800000800000800000800EE
:104AA00000080000080000080000000000000000EE
:104AB000000000003800003800003800000000004E
:104AC00000000000000000000000000000000000E6
:104AD00000000000000600001C00007000018000C3
:104AE0000E0000380000C0000700001C000030006D
:104AF00000000000000000007F8001FFE0038070E4
:104B0000060018040008040008060018038070015D
:104B1000FFE0007F800000000000000000000100B6
:104B20000801000801000803FFF807FFF80000086B
:104B30000000080000080000000000000000000164
:104B4000C03802C058040098040118040218040474
:104B500018061C1803F81801E0F800000000000017
:104B600000000001C0E003C0F004000804080804CD
:104B7000080806180803F41801E7F00001E0000037
:104B800000000000000000000300000D0000110004
:104B900000610000810803010807FFF80FFFF8001B
:104BA00001080001080000000000000000E007FC10
:104BB000D00608080610080610080610080618385F
:104BC000060FF00607C00000000000000000000013
:104BD0003F8001FFE003843002081804100804102D
:104BE00008041008071810030FF00007C0000000A9
:104BF00000000000000003C00007000006000006DF
:104C000000F80607F806180006E000070000060096
:104C10000000000000000001E1E003F7F00634109E
:104C2000041808041808040C08040C0806161803D5
:104C3000F3F001C1E000000000000000F80003FCF8
:104C400030030638040208040208040208040410B1
:104C50000308F001FFC0007F00000000000000001A
:104C6000000000000000000000000000703800702C
:104C70003800703800000000000000000000000054
:104C80000000000000000000000000000000000024
:104C9000301A00301C00000000000000000000007E
:104CA00000000000000000000000000800001400E8
:104CB000002200004100008080010040020020042A
:104CC0000010080008000000000000002100002182
:104CD000000021000021000021000021000021002F
:104CE0000021000021000021000000000000000061
:104CF00000000800080400100200200100400080AD
:104D000080004100002200001400000800000000A4
:104D100000000003C00004C00004000008003808C0
:104D20000F380808380810000C300007E00003C0F6
:104D300000000000000000003F8000FFE0038070E2
:104D4000020F1006708804C088048308047F88025C
:104D5000C09003012000FE40000008000018000180
:104D6000F8003E0801C20007020007E20000FE0052
:104D7000001FC80001F80000380000080400080700
:104D8000FFF807FFF80408080408080408080408E6
:104D90000806180803F41801E7F00001E00000001D
:104DA000000000003F8001FFE00380700200180453
:104DB0000008040008040008040010060020078012
:104DC000C000000004000807FFF807FFF80400080F
:104DD0000400080400080400180200100380700199
:104DE000FFE0007F8000000004000807FFF807FFD5
:104DF000F8040808040808040808040808043E0821
:104E00000400080600180100600000000400080704
:104E1000FFF807FFF8040808040800040800040865
:104E200000043E00060000060000018000000000B3
:104E3000000000003F8001FFE003807006001804BE
:104E400000080402080402080203F00783F00002CD
:104E50000000020004000807FFF807FFF804080834
:104E60000008000008000008000008000408080707
:104E7000FFF807FFF804000800000000000004002D
:104E80000804000804000807FFF807FFF8040008FA
:104E900004000804000800000000000000000000FA
:104EA00000060000070000010400010400010400E6
:104EB0000307FFFE07FFFC040000040000040000DD
:104EC00004000807FFF807FFF8040C0800180000AA
:104ED0003E0004C7800503C80600F804003804003B
:104EE0001800000804000807FFF807FFF80400088E
:104EF000000008000008000008000008000008008A
:104F0000001800006000000004000807FFF8078098
:104F10000807FC00007FC00003F80007C00078000D
:104F200007800807FFF807FFF804000804000807D7
:104F3000FFF807000803C00000E000003800001E72
:104F4000000007000001C00400F007FFF8040000A3
:104F5000000000007F8001FFE0038070060018045D
:104F6000000804000806001803003001FFE0007F7D
:104F70008000000004000807FFF807FFF804040899
:104F8000040400040400040400040400060C0003EC
:104F9000F80001F000000000000000007F8001FF29
:104FA000E00380700600880400880400C806003C06
:104FB00003003E01FFE6007F8400000004000807B4
:104FC000FFF807FFF8040808040800040C00040FA9
:104FD00000040BC00610F003F03801E008000008E0
:104FE00000000001E0F803F0300630100418080457
:104FF0001808040C08040C080206180207F00781C0
:10500000E000000001800006000004000004000031
:1050100004000807FFF807FFF80400080400000474
:10502000000006000001800004000007FFE007FF09
:10503000F004001800000800000800000800000844
:1050400000000804001007FFE00400000400000650
:10505000000007E00007FE00041FE00001F8000068
:10506000380001E0043E0007C00006000004000014
:1050700004000007E00007FFC0041FF80007C00796
:10508000F80007FF80043FF80007C004F80007009D
:105090000004000000000004000806001807C078A3
:1050A00005F1C8003E00001F800463E80780F80691
:1050B000001804000800000004000006000007803B
:1050C0000007E008047C08001FF80007F800180833
:1050D00004E00807000006000004000000000001D2
:1050E00000080600380400F80403E8040F08047CF4
:1050F0000805F00807C00807001804006000000059
:105100000000000000000000000000000000003F60
:10511000FFFE2000022000022000022000022000EA
:10512000020000000000000000000800000700006E
:1051300000C0000038000006000001C00000300080
:10514000000E000001000000000000000000200030
:10515000022000022000022000022000023FFFFE89
:10516000000000000000000000000000000000003F
:1051700000000000000800001000003000002000C7
:1051800000300000100000080000000000000000D7
:10519000000001000001000001000001000001000A
:1051A00000010000010000010000010000010000FA
:1051B00001000001000000000000000000200000CD
:1051C000200000100000100000000000000000009F
:1051D00000000000000000000000000000F00019C6
:1051E000F8001B18002208002608002408002410DC
:1051F000003FF8001FF8000008000018000000043D
:10520000000007FFF80FFFF000181800100800203A
:1052100008002008003018001FF0000FC000000038
:105220000000000007C0001FF00018300020080038
:105230002008002008003C08001C1000006000004E
:10524000000000000000000007C0001FF000381838
:1052500000200800200800200804101007FFF80FA5
:10526000FFF0000010000000000000000000000738
:10527000C0001FF00012300022180022080022088F
:10528000003208001E10000E200000000000000088
:10529000200000200800200801FFF803FFF8062086
:1052A0000804200804200807200003000000000074
:1052B00000000000000E000E6E001FF30031B10070
:1052C00020B10020B1003191001F13002E1E0020DC
:1052D0000E00300000000004000807FFF80FFFF880
:1052E000001008002000002000002008003FF80007
:1052F0001FF800000800000000000000000000206F
:1053000008002008002008063FF8063FF8000008C3
:10531000000008000008000000000000000000007D
:105320000000000003000003002001002001002015
:1053300003063FFE063FFC000000000000000000E6
:1053400000000004000807FFF80FFFF800018800C4
:105350000300002FC00038F80020380020080000AB
:10536000080000000000000000000400080400081D
:1053700004000807FFF80FFFF8000008000008000D
:105380000008000000000000002008003FF8003F77
:10539000F8001008002000003FF8003FF800100857
:1053A000002000003FF8003FF80000080000000067
:1053B0002008003FF8003FF800100800100000200F
:1053C00000002008003FF8001FF80000080000005F
:1053D0000000000007C0000FF00018300030080087
:1053E0002008002008003008001830000FF00007E7
:1053F000C0000000000000002001003FFF003FFF50
:10540000001011002009002008002008003038009A
:105410001FF0000FC00000000000000007C0001FC8
:10542000F0003818002008002008002009001011A2
:10543000001FFF003FFF00000100000000200800E7
:105440002008002008003FF8003FF800080800107E
:10545000080020080020000030000030000000009C
:10546000000000000000000C78001E180033080047
:1054700023080021080021880021980030F000381E
:10548000600000000000000020000020000020005C
:1054900000FFF003FFF800200800200800200800AB
:1054A0000030000000000000000000002000003F6D
:1054B000F0007FF80000180000080000080020102D
:1054C000003FF8007FF00000100000000000000026
:1054D0002000003000003C00003F800023F000006E
:1054E00078000070002380003C00003000002000A5
:1054F000002000003C00003FE00023F80000E00036
:105500002700003E00003FE00021F80001E0003EDF
:1055100000002000000000002008002008003838AB
:10552000003E680027800003C8002CF800383800CF
:1055300020180020080000000000000020000030BB
:1055400003003C01003F830023EC00007000238037
:10555000003C0000200000200000000000000000CF
:1055600000000038080020380020F80023E8002F51
:1055700088003E0800380800201800007000000075
:10558000000000000000000000000000000000001B
:1055900008000014001FF7FC300006200002000085
:1055A00000000000000000000000000000000000FB
:1055B000000000000000FFFFFF00000000000000EE
:1055C00000000000000000000000000000002000BB
:1055D000023000061FF7FC00140000080000000065
:1055E00000000000000000000000000000000018A3
:1055F000000060000040000040000020000010009B
:10560000000800000400000400000C00001000006E
:10561000305600080000002040000000040100088F
:105620007056000840000020581E000020010008AD
:105630000000000000000000000000000100000069
:105640000024F400212F0008BD2F00089B2F000824
:10565000E92F00085D2F000816EF0000DC15002080
:1056600030160020010000000400000000000000CF
:04000005080000C12E
:00000001FF
