:020000040800F2
:10000000680B0020650100089926000831230008CC
:1000100000000000000000000000000000000000E0
:10002000000000000000000000000000654B000818
:100030000000000000000000634B0008674B000850
:100040007701000800000000770100087701000830
:1000500077010008770100087701000877010008A0
:100060000000000077010008770100087701000810
:100070007701000877010008770100080000000000
:100080007701000800000000000000007701000870
:1000900000000000770100087701000877010008E0
:1000A0007701000877010008770100087701000850
:1000B00077010008000000000000000000000000C0
:1000C00000F002F800F03EF80CA030C80838241800
:1000D0002D18671EA246AB4654465D46AC4201D180
:1000E00000F030F87E460F3EB6460FCC0126334274
:1000F00000D0FB1A3343A246AB4618474C5E0000C3
:100100006C5E0000103A02D378C878C1FAD8520762
:1001100001D330C830C101D504680C6070470000BD
:100120000023002400250026103A01D378C1FBD813
:10013000520700D330C100D50B6070471FB51FBDFB
:1001400010B510BD00F028FF1146FFF7F7FF04F0CF
:10015000CCFE00F040FF03B4FFF7F2FF03BC04F055
:10016000C3FE00000748804707480047FEE7FEE758
:10017000FEE7FEE7FEE7FEE704480549054A064BB1
:10018000704700006F4B0008C100000868050020A0
:10019000680B00206807002068070020704701E016
:1001A00004C0091F0429FBD28B0701D50280801CE3
:1001B000C90700D00270704700290BD0C30702D0D6
:1001C0000270401C491E022904D3830702D5028015
:1001D000801C891EE3E70022EEE70022DFE770477C
:1001E000704770470246C80FC00781434B0030B5C7
:1001F0004B405B009B0D20D01923DB06C91801235F
:100200001B05994220DB0324A40704251346AB40B9
:100210000BD3002B04D1EB0613409B00E34204D424
:1002200001246407002312195941FF231B05994239
:100230000BD2C9000143500F09E0CB0204D50143A2
:100240000803024305D0054830BDFF21C905084316
:1002500030BD084607210905884330BD0000C07F36
:10026000F0B50C46871A9C410D46861A9D4103D273
:10027000C01BA141D21963410D0D1F0DC94EEC1BCE
:10028000AE435CD07F057F0D0026002F51D02D0599
:10029000AC46A943DD020123ED0A1B051D432023C3
:1002A0001B1B24D41746E740381871412F46E740FE
:1002B000CC199D402818314661410C0D27D161446D
:1002C0009A4013D50023401C594152000ED14008DA
:1002D000400001224B005205D34207D305204007BE
:1002E000C14201D5B04900E0B0493046F0BD6B00D5
:1002F000002A00D001229A181F23203C1B1B01D585
:10030000002302E0E540281871410C0DD7D00124EC
:1003100024050919C407CD0740084908E40F2843FC
:100320006144002CD5D00024401C61419A40D0D1BA
:10033000CDE76A05520DD9D1C90FC907D5E79C4D44
:100340004E00002801D0012400E0002434195F0091
:10035000002A01D0012600E00026BE19954FAC42CC
:100360000CD8AE420AD8B44206D001256D05EC4245
:10037000BCD010461946F0BD9942FCD00020394649
:10038000F0BDF0B51FB40C460F46811A9F412546BB
:10039000861A9D4106D20125ED076F40401ABC41E7
:1003A00052187B41210D1E0D8D1BAC467D4D8D439A
:1003B0007ED075056D0D7CD00D05AE46AC431B039C
:1003C0001B0B794D52429D41202366469B1B14D343
:1003D0001746F740381800260090744160462F46B3
:1003E0000741E41900989D402818664116D47146CB
:1003F00071189A4025D5012320E093182A466A41B6
:100400005200002B00D0521C1E23203E9B1B002BB1
:1004100061DD3541EE1728186641E8D500187641B0
:100420005B1C9A4000D3401C4B05F3181524E34095
:1004300010D3002B52D071467118D30FC01802D3BD
:10044000491C05B0F0BD0123DB079A42F9D14008F1
:100450004000F6E701225205B21801D1002853D01E
:100460000123CC0ADB029943891E002A08D1020C21
:1004700003D0020C0004103902E0024600202039AB
:100480000023550B05D112020823550B01D152014F
:100490000D23550C01D112011B1DD50C01D1920069
:1004A0009B1C150D01D152005B1C2025EE1A01E0AA
:1004B0002CE022E00546F54015439840CA1AE107B2
:1004C00069181305C918002ABBDA03204007081869
:1004D000C10FC9070FE071466118B2E7F107400884
:1004E0000843711071444A000CD001235B059A4205
:1004F000A7D2C90FC9070020A3E74905490D26D196
:10050000002001E00028F4D100219AE7284D660080
:10051000002801D0012100E0002171185F00002AAD
:1005200001D0012600E00026BE19224FA94210D8B2
:10053000AE420ED8B14208D001256D05E94206D081
:100540001946A802414010467BE79C4201D0214653
:1005500077E70020394674E710B50C465C4005D5B6
:100560000124E4076340FFF70CFF10BDFFF778FE9E
:1005700010BD30B40C465C4004D50124E407634050
:1005800030BC6DE630BCFCE670B50124E407614088
:100590000D465D4002D4FFF763FE70BD6340FFF778
:1005A000F0FE70BDFF0700000000F0FF0000F07FCC
:1005B0000000E0FF0000F87FF0B5F94D0C091E09BE
:1005C0002C402E402F468BB0A7437DD0B543FCD0A6
:1005D000002E7AD0002CFCD00D465D40ED0F254357
:1005E000AC1BFF25AD0464190894C502440DC90273
:1005F0002143500DDC0204430120C00701430443A2
:10060000D2020191200C110C00958C460104234666
:100610008B430A9161460904E24D8A430991010A1C
:100620007D4449198039097805464D4301266D18E6
:10063000F605751B6943C90C640B891C4C4364188F
:10064000B5012C1B250C2E04B4434C434D43210C07
:10065000691889090591009DE90701D00121C907A1
:1006600004912C4601996708CD072F434C08059D3E
:10067000E10B4D432D0C29466646754302950D4608
:1006800045432E46029D7D1BB44100950D465D43BA
:1006900001942C0C2F040D465543AE462D0C3D43C2
:1006A000029503947546049C2D04641B049406D2A1
:1006B000029C039D641C002675410395029401ACC5
:1006C00070CC009F7D1B01E03EE162E1B441090472
:1006D0000095079101940599A4086143090C0C4603
:1006E0004443650BE7040C4666467443A646640B18
:1006F0003C43039502947446049DE4042C1B04942B
:1007000006D2029C039D641C002675410395029449
:1007100001AC70CC009F7D1BB44101940C465C433E
:100720000095650FE7000C465443A646640F3C4312
:10073000039502947446049DE4002C1B049406D295
:10074000029C039D641C002675410395029401AC34
:1007500070CC009F7D1BB441AE09AF06049DC9005B
:10076000AD092F43049DA406AD060495079D3443AF
:1007700069180791059DE10B4D432D0C29466646EE
:10078000754302950D4645432E46029D7D1BB4419F
:1007900000950D465D4301942C0C2F040D465543E6
:1007A000AE462D0C3D43029503947546049C2D04E2
:1007B000641B049406D2029C039D641C00267541B0
:1007C0000395029401AC70CC009F7D1BB441019451
:1007D0008C050694079C890A611800950791019C75
:1007E0000599A4086143090C0D464543680BEF04C5
:1007F0000D46644665436C0B3C43049FED047D1B32
:10080000AC4602D20025641C6841009E019D371B46
:1008100085410846584301950C46460FC500544390
:10082000600F28436546E4002C1B02D20025401CC3
:100830006E41019D3F1AB5412846BD0980062843F7
:100840008446A009BF064E020699A40676180743FF
:10085000079D002068410A99079019430020099BD1
:1008600000906046FF1913434041E20F64003A4391
:10087000A4460446D71A8C41A04203D90120009017
:1008800020463A46C70F941840416246D20F224391
:10089000644664000494009CBE466400D71AA446D3
:1008A000044602978C417746002F01D1A04204D91B
:1008B0006046401C8446029A2046C40FA6469418FF
:1008C0004041049A0546D20F224364466400D31A7D
:1008D0008D417146002901D1A84202D928461A4605
:1008E000641C10430122002800D01643610200203E
:1008F000079B891904465C410223002C02DB49183E
:1009000013466441089DCE0A2D145D194B056705F9
:10091000E10A2C050D1908993E43C9076940002BCF
:1009200008D0934006D30022761C5141002B01D100
:10093000760876001C4A002D43DB154241D0AA43BD
:100940003FD030460BB0F0BD06180D464D41174C58
:100950007642AC411AD395181C465C41134A6D424D
:10096000A24113D3012252054C00D4420AD15C00AB
:10097000D4420BD04B4002D592021143E2E749002A
:100980004908DFE75940C90FC90718E000200849A6
:10099000D8E7054801420DD10342F7D0F2E7000045
:1009A0000000FF07045700000000F07F0000E0FF98
:1009B0000000F87F114859400143C0124140002017
:1009C000C0E70123089A9B069A4205DC03225207DE
:1009D0008918C90FC907B5E7052252078918074AC0
:1009E0001143D2125140ADE770B515461C46024680
:1009F0000B4628462146FFF7DFFD70BDFFFFFF7F56
:100A000030B50346CA02400D1043164D164C0A1568
:100A100002D02043002A06DBAA1A002A12DDD040A9
:100A2000FF2A0BDC30BD5205520D01D140004008B9
:100A3000AA1A07D4D0404042FF2A01DD002030BD71
:100A40000028FCDD4A00002B01D0012000E000203E
:100A5000101801225205D042F0D8C817C043604098
:100A600030BD00001E040000000000801F22030CA7
:100A700002D10F22000402D0030E03D004E00020B4
:100A8000014670470002083A030F01D10001121F0E
:100A9000830F01D18000921E002801DB4000521E0E
:100AA000120551184205C012411810467047C10F77
:100AB000C90700D04042012292071143D6E7012125
:100AC0008907D3E7F0B58B4C0F09254689B0BD43A4
:100AD0007BD01D092646AE43FAD00E465E40274025
:100AE000F60F3E43254071D024012142FBD0FF2464
:100AF000AD19A4042D1B039501252D05DB02DB0A8E
:100B0000C9022B43C90A29431E010901040F130F0F
:100B1000050121431701880B820391432D098C465F
:100B2000A90B1E438A039543B30B9A0396433F09CF
:100B3000BA0B9403A74302962E467E430497B6460B
:100B40004E19D7190C460196544305977E43371B1F
:100B50007646BF1B3601B646BE0B36190096764662
:100B6000BC043719009C01D3641C00946400002F5E
:100B700001D001263443029E049F754366467E439E
:100B80000496760034196E0034190094029C019E7C
:100B90001C196643751BAE46069465464519059CAF
:100BA00005956C43594375460891691A0191049E55
:100BB00001465143A41B0491611A009C0791E10670
:100BC00005D061090122114302E072E06EE0610983
:100BD000089D00272C0A2D066918049D7C412A0ACD
:100BE0002D066918019D6241AC0DAD026D1854418E
:100BF000079A910D920255196141029A6446584331
:100C00005443069B059A5A43121A131B9A0E9B01D2
:100C10005B187A41010B0005C3185141220A2006D6
:100C200044195A419A4200D2491C01204002814293
:100C300003D315230226F64302E014230326F643CA
:100C40002020C51AA9401746AF40DA400A43204683
:100C50000399D8400914731819055118039A384399
:100C6000D2075140AC4009D00122944006D3002263
:100C7000401C5141002C01D1400840001E4A9342C3
:100C800012D3012203989206904207DB0520400709
:100C900009181A480143C012414004E003204007EC
:100CA0000818C10FC907002009B0F0BD0020F107E6
:100CB000FAE705180C464C4111486D42A04115D386
:100CC00094181A465A410E48644290410ED30120AE
:100CD0004A004005824209D35A00824206D3594055
:100CE000C90F084AC90700201143DDE70020064963
:100CF000DAE700000000FF07FE070000FFFFFF7FAC
:100D00000000E0FF0000F07F0000F87F0121C9052E
:100D10000123411842001B06D3185B0E0AD0C110F4
:100D20000722D206891840075242D14201D552000B
:100D300089187047090208D50146002A03D0C10F5F
:100D4000C9070020704710467047420202D00020B9
:100D500002497047072109050143F4E70000F87FC5
:100D600010B501469E240002CA15A307002A02D02E
:100D70001843002A04DBA21A002A0CDDD04010BD63
:100D80001206120E01D140004008A21A03D4D0402E
:100D900040420028F3DDFF2248001206904201D9AC
:100DA000002010BDC817C043584010BD1F22030CBF
:100DB00002D10F2200041CD0030E01D10002083A18
:100DC000030F01D10001121F830F01D18000921E79
:100DD000002801DB4000521ED205511802125118A2
:100DE0001922904004D3491C002801D14908490028
:100DF00008467047C10FC90700D040420122920740
:100E00001143D3E701218907D0E7704710B500F0FF
:100E100009F8006810BD10B5044600F003F804603E
:100E200010BD00000048704718000020F8B5264C9F
:100E30004E00069DA6420AD8A64201D1002806D13E
:100E40005E00A64203D8A6420AD1002A08D00D248B
:100E50002404254233D02946002000F0C4F8F8BD10
:100E60000C461C4311D4994207D0C81A02D3EFF3A1
:100E70000080F8BDEFF30080F8BD801A02D3EFF3D5
:100E80000080F8BDEFF30080F8BD09242407E500D9
:100E90008B4207D0581A02D3EFF3008006E0EFF33D
:100EA000008007E0101A03D3EFF30080A04303E0B3
:100EB000EFF30080A043284380F30088F8BD00953D
:100EC00000F0A8F8F8BD00000000E0FF70B505468E
:100ED0004800440D124B0020002C0AD0634008D07B
:100EE0009A4206DA6642B24203DD120540195141C8
:100EF00070BD002C08D0002B09D0C90FC907002AEB
:100F0000F6DB084A114370BDC90FC90770BD2846FA
:100F10000A03104302D00020034970BD284670BD6B
:100F2000FF0700000000F07F0000F87F10B5FF23EE
:100F30001B0644009C421DD84C009C421AD8034614
:100F4000124A0B4307D4401A02D3EFF3008010BDBE
:100F5000EFF3008010BD081A03D3EFF30080904335
:100F600005E0EFF3008001219043C907084380F3B7
:100F7000008810BD0D231B041A4204D01146002026
:100F800000F031F810BD00F04FF810BD00000090E7
:100F900000487047180000207546FFF7F9FFAE467D
:100FA000050069465346C008C000854618B020B504
:100FB000FFF7E2F860BCB64600260027C0C5C0C5F2
:100FC000C0C5C0C5C0C5C0C5C0C5C0C5403D490835
:100FD00049008D46704710B50446C046C0462046BD
:100FE000FFF7B9F810BDC80212D54803400F00281A
:100FF00004D0C803C043012188407047EFF300804C
:101000000001000903210907084380F300887047A5
:101010000020704710B500200249029A00F00CF839
:1010200010BD00000000F87F10B5024800F004F881
:1010300010BD00000000C07F10B50C461107090F5D
:10104000092904D00A290AD008290CD104E0114644
:101050000820FFF7C8FF06E0510606D501E051065B
:1010600001D50120C007214610BDD10607D50101D9
:101070000909CC084907000E0006044309E0410FA6
:1010800020024907000A0143200E00061D22D1411B
:1010900001430846E7E7F0B58BB07F253F260120E6
:1010A0000A9000906D1EEAB20892761EF4B23F20BC
:1010B00007901F273946234601F0EFFA03F04AF85C
:1010C00000200990009007983946089A234601F0BD
:1010D000E4FA1E2CE3D80A9F00973F241F253C22E8
:1010E0001E2620462946334603F0F2FA00971423C1
:1010F00020462946324603F06BF8099C3E46A5B2CD
:10110000009501963F2008901F2107911E26142765
:1011100032463B4601F07AFB03F01CF80095099833
:1011200001900898079932463B460A9E01F06EFBF3
:10113000641CB32DE3D300240794A5B20095019657
:101140003F2009901F2108911E26142732463B4656
:1011500002F084FD02F0FEFF0095079801900998C7
:10116000089932463B460A9E02F078FD641CB32D76
:10117000E3D30A20089000221746039614460992EA
:1011800020E03046089941180891CAB20592041926
:10119000E3B204933F261F273046394602F05EFD36
:1011A00002F0D8FF079D0095099801903046394616
:1011B000059A049B02F052FD069F7F1CB32D0A9EE8
:1011C000099A12D2BBB200930196E1B214291046DB
:1011D00000D003980029314600D00146080603914B
:1011E00007930697CDD1D043CCE701200A90009019
:1011F0003F241F253C261E272046294632463B46D3
:1012000003F0EBFB0A9800902046294632463B4605
:1012100003F022FB0A9800902046294632463B46BE
:1012200003F078FB0BB0F0BDEFF3108072B6FEE771
:10123000F0B58AB00A68002A00D1BEE00E466049C7
:10124000884201D0052100E0032100910027089782
:1012500009973C46029601900FE01A432A60641CED
:1012600032681146E140BF1C089B1B1D0893099B77
:1012700008330993002900D19FE001250495A5407A
:101280002A400792EBD003231846B840C0433946A2
:1012900077683A461A40561E012E0697059112D8D5
:1012A00006460390019883683340029EF6688E409C
:1012B0001E438660FB06DB0FA3404668AE431E4319
:1012C0004660039908E0032A0146019804D11A46B2
:1012D000029E069D059F1DE0C3680B40029EB568F7
:1012E000059FBD401D43C560022A069D12D1039192
:1012F0001C21089A11400F228A40E3089B00C31862
:101300001D6A954332698A4003992A431A627568B7
:1013100003222A40BA4003680B4013430360A90329
:10132000890F9CD01821099A11400F238B4003226A
:1013300025469543234A5219156E9D436032052375
:101340001B0798420AD0214B984205D0204B984267
:10135000009B04D1022302E0049B00E000238B40A9
:101360002B431360174D2A687168CB0208D5079B81
:101370001A432A606A688B0208D4079B9A4307E0E5
:10138000079B9A432A606A688B02F6D5079B1A432B
:101390006A600D4D6A688B0306D5079B1A436A6025
:1013A0002A68C90307D558E7079B9A436A602A68E9
:1013B000C90300D551E79A4350E70AB0F0BDC046D3
:1013C000000C005000180240801802400004005039
:1013D00000080050002A02D01822815070472822AD
:1013E00081507047014800687047C0466005002082
:1013F000B0B50246034640335C780220202C17D15A
:101400001C78012C14D02420587010680268012424
:10141000A2430260220305689543056002680A43FF
:10142000026001682143016000201870202159707A
:10143000B0BDB0B50246034640335C780220202C94
:1014400017D11C78012C14D0242058701068026821
:101450000124A24302600F2212020568954309028B
:101460002943016001682143016000201870202198
:101470005970B0BDF0B581B0002822D004460546B1
:1014800040356878002804D100202870204600F0FC
:1014900093F9242068702068026801218A43026061
:1014A0000F2212066368934303618368194A13404D
:1014B0008360A368E668012E06D1CE0333438360C0
:1014C0000AE0012001B0F0BD2127BF023B43836049
:1014D000022E01D1CB02436043680F4E1E4346608B
:1014E000C3681340C360226963691343A26912028F
:1014F0001A43C260E269236A1343036002680A4325
:10150000026000206064202169702063A87001B02F
:10151000F0BDC046FF7FFFFF00800002F0B589B03C
:1015200007460446403465780220202D09D10793F0
:101530000E9E002E07D00F9B002B04D02578012D86
:1015400006D109B0F0BD01204102796409B0F0BDB7
:101550000393029206910120049405902070FFF7F6
:1015600041FF08903868816909040CD50598C503C6
:10157000FFF738FF0899401A192800D903E13868A5
:1015800081692942F4D1109C2121049D6970402178
:10159000A97000217964039A7A857E620E46796388
:1015A0007F49069A0A400799C9B209040692891828
:1015B00042687C4B1340C9187B4A89184160384601
:1015C00001942146089A00F0A9FF002803D02E704C
:1015D000059809B0F0BD0396019C38680799012968
:1015E00004D10299C9B28162224610E00299090A27
:1015F000816238462146089A00F090FF0028049D39
:10160000039EE4D138680299C9B28162019A816966
:101610000906039E2AD4002A0ED0511C1AD18169D2
:10162000090623D48169090620D4816909061DD4DD
:1016300081690906F3D519E0FFF7D4FE049D786CA3
:1016400020210843786469700020A8702E700598E6
:1016500009B0F0BD049DFFF7C5FE22460899401A67
:10166000A042ECD8386881690906F4D501210591BA
:101670004E06798D090A4D4B4D4905D042680D46FD
:101680000A40001DFF2109E00A46798D436815468E
:101690001340CAB212041A43001D33461A43069B74
:1016A0001A4302603985089A234610E0798D3985FE
:1016B00042682A40C9B209041143001D3246114351
:1016C000069A11430160788D0028089A43D0384665
:1016D000194600F023FF00283AD13868796A0A7861
:1016E00082627A8D521E7A85491C7962398D491E33
:1016F00039857A8D002A2346E5D00904E3D1816932
:1017000009061BD4591C0DD0002B3AD0FFF76AFEF6
:101710000899401AA04236D82346386881690906DC
:10172000F4D50BE08169090608D48169090605D45E
:101730008169090602D481690906F3D5798D090A00
:10174000B4D0FF21398541682940001D174AB6E70A
:10175000059809B0F0BD3846194600F0ABFE0028E8
:10176000059800D0EDE638682021C1614268114B30
:1017700013404360049A517003981070907009B040
:10178000F0BDFFF72FFE786C202108437864049A9F
:101790005170002010709070059809B0F0BDC046DF
:1017A000FF030000009800FC002000010000FF0182
:1017B000009C00FC00E800FEB0B58CB0002406944C
:1017C000059404940394029400681749884201D058
:1017D0000CB0B0BD2020019001A800F0DFF8002877
:1017E00001D0FFF721FD114D286802210843286030
:1017F00028680840009006200B900A940994122053
:101800000890C02007900098094807A9FFF710FD2D
:1018100001204005A9680143A960A9680140009121
:1018200000980CB0B0BDC0460054004034100240D7
:10183000000400501F48007802490A681018086028
:101840007047C0466005002010B5012420020849F9
:101850000A6802430A60032000F00CF8002801D057
:10186000204610BD00F028F80024204610BDC046D8
:101870000020024070B50F4E31780124002916D0A7
:1018800005467D20C00003F071FB01464148006819
:1018900003F06CFB00F0A2FC032D08D8002806D151
:1018A0000024E0432946224600F01CF875602046DB
:1018B00070BDC0460400002082B009484168012282
:1018C000114341604168114001910199110702687B
:1018D0000A430260006808400090009802B0704718
:1018E0003C100240002805D40322034693430A4AD1
:1018F0009A1803E00C220240064BD2188007C00E53
:101900008901C9B28140FF2383401068984308438E
:101910001060704714ED00E000E400E0F0B581B025
:10192000032569021A4E3246143A13688B43034367
:101930001360012461020022884226D1F348016825
:101940003068400521D50092A7020620484312497D
:1019500003F00CFB201A022816D0316839420FD050
:10196000012811D0316839420AD000280CD03168E2
:10197000394205D0001D032806D031683942EAD12A
:10198000009A104601B0F0BD2A46104601B0F0BDE5
:10199000147000400C00002040420F00F0B587B0EA
:1019A00081788907584F01D4002650E00590012323
:1019B00019073A46203A10680840049006D110688A
:1019C0000843106010680840069006980292039140
:1019D00001931E024D4C206830432060FFF702FD4A
:1019E0000546206830420AD1FFF7FCFC401B022864
:1019F000F7D9032605980499002923D027E003206E
:101A0000054601023868084011D0059949698842A5
:101A10000BD03868019909043A680A433A603A6879
:101A20008A433A603A4908403860C0075AD13A6858
:101A300037480240059841691143396000260499EE
:101A4000002904D1029B1968039A91431960056823
:101A5000E90705D1A9060DD401216A0416D42BE0AB
:101A6000394608390A6803239A43436813430B60D5
:101A7000A906F1D5032109033A46083A13688B43B6
:101A800081681943116001216A0415D53A46083A64
:101A90001368204C23400C463146066933431360DB
:101AA0001C4A521C96420E46214605D10A043B466A
:101AB000503B1C6814431C602A0510D58D0303227B
:101AC00092033B46083B1C689443C26814431C6065
:101AD000AA4204D10804503F3968014339603046B6
:101AE00007B0F0BDFFF77EFC0646864C38688007DD
:101AF0009DD4FFF777FC801BA042F7D905982E46AE
:101B0000049900299ED0A2E75C10024000700040BA
:101B1000FFFCFFFFFFFFFF3FF0B583B00D46012143
:101B200000281BD0019102907548006807242040CE
:101B3000A84216D272490868A04328430860714E33
:101B4000FFF750FC07466E4800682040A84208D0C6
:101B5000FFF748FCC01BB042F5D90321084603B08B
:101B6000F0BD029E30688107924B0CD5410703D52A
:101B700021031A680A431A600F2109021A688A436E
:101B8000B16811431960C0071BD15D48006820404F
:101B9000A8422CD95A490868A04328430860594FE5
:101BA000FFF720FC0646564800682040A8421ED099
:101BB000FFF718FC801BB842F5D90321084603B093
:101BC000F0BD0298406803285DD8810001A25158F9
:101BD0008F46C046E51B00088B1C0008951C0008BA
:101BE0009F1C0008194608390968490559E0029AFE
:101BF000107840076F4B05D5200319688143D068E2
:101C00000843186018688006400F22D01A683821EF
:101C10000A406948082A23D01A680A40102A5ED16F
:101C2000596803220A40032A00D0644859684906CB
:101C3000490F491C03F09AF95E4949684904490E65
:101C400048435C494968490F491C03F08FF9594BD7
:101C500006E01846083800688004410F5748C8401D
:101C6000196889093C220A40274989581F220A40DD
:101C7000D0402F49086026480068FFF7FBFD014669
:101C8000084603B0F0BD596D0AE0194608390968E5
:101C9000890306E0194608390968890101E0996D50
:101CA0008907019900D459E71968A14301431960D4
:101CB000144FFFF797FB06463E4800683821014065
:101CC00002984068C000814200D15EE7FFF78AFBBE
:101CD000801BB842F0D90321084603B0F0BD186854
:101CE0000840202802D10120C003B9E71868084045
:101CF000182801D00020B3E77D200002B0E7C046DD
:101D00000020024088130000D05E00080C00002074
:101D1000080000200648006826490968890A1C2234
:101D20000A40044989581F220A40D0407047C046E3
:101D30000C000020105F000810B51E4C20688006C3
:101D4000400F06D0226838210A401B48082A07D1D4
:101D500010BD083C20688004410F1848C84010BDE1
:101D600022680A40102A15D1616803220A40032A1A
:101D700000D0124861684906490F491C03F0F6F883
:101D800061684904490E48436168490F491C03F0E2
:101D9000EDF810BD20680840202802D10120C003C2
:101DA00010BD20680840182801D0002010BD7D20FB
:101DB000000210BD0810024000127A000024F40056
:101DC000F0B587B00125002800D1ECE1049505901D
:101DD0000078C007F94F2AD0B868F96803252A4669
:101DE0008A43382101401020484082185042504117
:101DF000082914D0002812D1059842680120010456
:101E00008A4208D005231B049A4200D0DAE08204FB
:101E10003B6813433B603A680A433A60DBE038684A
:101E2000800304D505984068002800D173E1059827
:101E30000078800723D40598007800070CD5B8688F
:101E400038210140182971D1386E800704D50598D2
:101E50008069002800D15EE1059A1078400700D41F
:101E60002EE1B86838210140202974D1F86D80072F
:101E700000D425E19068002800D021E14BE1B96849
:101E80003820084010214140FA6803252A400223E7
:101E90005340CA1851425141002820D000291ED178
:101EA0003868059AD168002900D1A2E00721C9024B
:101EB0008843116901433960012001023A680A43ED
:101EC0003A608402FFF78EFA06463868204200D056
:101ED000A1E0FFF787FA801B0228F6D963E1396891
:101EE0004905059B03D5D968002900D113E17F215D
:101EF00009027A688A435969090211437960002806
:101F00000DD10720C0023968814318690843386041
:101F100038688004400FAA49C140AA480160AA4815
:101F20000068FFF7A7FC002885D0F4E0386E05991B
:101F30008969002979D0012108433866FFF752FAF0
:101F40000646386E800787D4FFF74CFA801B0325BE
:101F50000228F6D927E1012003900107F86B084019
:101F6000029006D1F86B0843F863F86B08400690BE
:101F70000698019195480068C00513D4039804029F
:101F80009249086820430860FFF72CFA06468F48FC
:101F90000068204206D1FFF725FA801B032502289E
:101FA000F5D900E105988068894C012805D00528FD
:101FB0005AD1F86D04210143F965F86D039908437E
:101FC000F8655BE03B688B433B6081043B688B4377
:101FD0003B60002A3AD04404FFF704FA064638680A
:101FE000204200D023E7FFF7FDF9801B6428F6D9D3
:101FF000D9E001210A02904338608C02FFF7F2F920
:1020000006463868204200D115E7FFF7EBF9801B40
:102010000228F6D9C7E07F2000027968814305983D
:10202000406900020843786005E70121884338666B
:10203000FFF7D8F90646386E800700D40CE7FFF7A3
:10204000D1F9801B03250228F5D9ACE04404FFF741
:10205000C9F906463868204200D1E8E6FFF7C2F920
:10206000801B6428F6D99EE0F96D039A9143F965C7
:10207000F96D04229143F96500280CD0FFF7B2F9FD
:102080000646F86D800713D4FFF7ACF9801B0325D3
:10209000A042F6D987E0FFF7A5F90646F86D80075C
:1020A00006D5FFF79FF9801B0325A042F6D97AE0F9
:1020B00002980028059A03D1F86B01998843F863C8
:1020C000D469002C76D0B86838210140102926D177
:1020D000012C20D0F86803210140059B1A6A914227
:1020E00019D1702101405A6A914214D17F2109020D
:1020F00001409A6A120291420DD11F214904014008
:10210000DA6A9142049D4ED1072149070840196BB4
:10211000884248D14EE0049D284607B0F0BD012515
:1021200029063868049188433860FFF75BF9064652
:10213000022C0BD103956C063868204211D0FFF7B2
:1021400051F9801B03250228F6D92CE06C0638686B
:1021500020422BD0FFF746F9801B03250228F6D931
:1021600021E0F8681C490140059E20366DCE0843E9
:1021700010431902014329433143F9603868049937
:102180000843386003980007F9680143F960FFF7D6
:1021900029F90646386820420CD1FFF723F9801B45
:1021A00003250228F6D9284607B0F0BDF86809498A
:1021B0000140F9600025284607B0F0BD001002403C
:1021C0000024F4000C0000200800002000700040F3
:1021D00088130000FCFFFEEF8C80C11F401E010E23
:1021E00001D0012070470749074A5060074803683B
:1021F0000B400321890759180160002090600721D6
:1022000011607047FFFFFF0010E000E020ED00E0EC
:10221000F0B583B0002841D004460746843778687B
:10222000002804D100203870204600F059F82420FE
:102230007860206801680125A9430160204602F00A
:1022400001FD012827D0A06A002802D0204602F014
:102250008FFC0920C00221684A6882434A6088686E
:102260002A229043886008680126304308600025D0
:10227000FD60FFF7B7F8034620680168090713D52A
:1022800016480090710500222046029302F090FD4E
:10229000002807D00325284603B0F0BD01252846B5
:1022A00003B0F0BD2068029B006840070CD50B48C6
:1022B0000090B1050022204602F07AFD002803D0EC
:1022C0000325284603B0F0BD20207860B860E5669D
:1022D0003D702567284603B0F0BDC046FFFFFF01F3
:1022E00080B586B00068EB49884201D006B080BD59
:1022F000C2488268012105914B041A4382608268BA
:102300001A400092009A02680A430260006808407E
:102310000090002004900390022002900C20019075
:1023200005200007009901A9FEF782FF06B080BDD5
:10233000FEE70000F0B585B00E460446403004903C
:1023400020688169C90606D400210F4601258269EB
:10235000D30545D448E01021C1618169890637D48D
:10236000711C32D015460120002E6CD186030390DB
:10237000C7030297FFF736F8206842680499897806
:1023800083693B4209D0324007D1202905D04168FA
:1023900031434160FFF726F80546206881698906C8
:1023A00005D4FFF71FF8401B1A28F6D377E08169A0
:1023B0008906029FDED50BE08169890608D4816910
:1023C000890605D48169890602D481698906F3D515
:1023D0002021C1610127042101258269D30503D58C
:1023E0002B02C36129432F466B02560506D41A42BD
:1023F0000AD1002F0BD1002005B0F0BDAD02C561A0
:10240000082529431A4202D0C3610222114382697E
:10241000920701D5002282628269D20703D18269C4
:102420000123134383614268214B13404360606C76
:102430000843606420200499487000200870887068
:10244000012005B0F0BD810302910390C00301900B
:10245000019F03E0206881698906B9D4FEF7C2FFB5
:10246000401BB042F6D92068426804998978836994
:102470003B420BD0029B1A4008D1202906D041686C
:10248000029A11434160FEF7ADFF0546206880695E
:102490008006DFD4FEF7A6FF401B1A28F6D320687B
:1024A00081692421039F01258269D30598D49BE784
:1024B00000E800FE70B515460446002911D00E460E
:1024C00020688069800619D4204631462A46FFF7E5
:1024D00031FF002810D1FEF785FF401BB042EFD935
:1024E00010E020688069800608D4002120462A4632
:1024F000FFF720FF002803D0012070BD002070BD31
:10250000FEF770FF20464030616C20221143616469
:102510004270002101708170012070BDF0B581B062
:102520000446006880690025800711D416460F46CE
:10253000002921D0781C17D10025E94320463246D6
:10254000FFF7F8FE00281ED1206880698007F3D5C8
:10255000284601B0F0BDFEF745FF801BB84218D8F1
:10256000206880698007F3D4204639463246FFF759
:10257000E1FE0028EFD006E0002120463246FFF7BA
:10258000D9FE002803D00125284601B0F0BDFEF792
:1025900029FF20464030616C202211436164427063
:1025A0000021017081700125284601B0F0BD0000B6
:1025B00070B586B0002605961048016802221143C6
:1025C00001600168114000910099016801242143D4
:1025D00001600068204000900098094D284621467F
:1025E0002246FEF7F7FE049603960294019401A991
:1025F0002846FEF71DFE06B070BDC04634100240EE
:102600000004005010B5124800210122114B124C59
:10261000046043608160C260016141618161C161A8
:102620000162FEF727FF002801D0FEF7FDFD0848F4
:102630000021FEF7DDFE002801D0FEF7F5FD04487D
:102640000021FEF7F6FE002801D0FEF7EDFD10BDDB
:1026500078040020BC7D70100054004010B50C4878
:1026600000210C220B4B016241628162E124640271
:1026700018C0016041608160C26001614161083839
:10268000FFF7C6FD002801D0FEF7CEFD10BDC04605
:10269000CC04002000440040FEE7F0B585B01F46A2
:1026A00016460C46014650088142049402911CD201
:1026B0003846FEF704FA04460D460298FEF7FFF985
:1026C00022462B46FEF7FEF904460D463046FEF73D
:1026D000F6F902460B462046049C2946FDF76CFF9E
:1026E000FEF78EF9029907464E00780884421CD204
:1026F000F0B2FEF7E4F905460E4664002046FEF708
:10270000D6F92A463346FEF7DDF905460E46384629
:10271000FEF7D5F902460B4628463146FDF74CFF39
:10272000FEF76EF90299064600E03C46F0B240081A
:1027300040180127FD43802817D32E464E43E0B2B0
:10274000FEF7BDF904460391380236183046FEF70D
:10275000AEF92246039F3B46FEF7B4F922463B46BC
:10276000FDF72AFFFEF74CF904460A980390E0B201
:102770004708049C3819402819D36543F0B2FEF786
:102780009EF904460E4680352846FEF790F922460B
:102790003346FEF797F92246049C3346FDF70CFFBB
:1027A000FEF72EF90646E8B24708029A00E0029AC0
:1027B000039800903819C3B20293F0B24008111A7E
:1027C000CEB28018C5B2304619462A4600F032F91A
:1027D000039C00940498C01BC7B2304639462A4671
:1027E0003B4600F027F900943046029C21463246D1
:1027F0003B4600F01FF903980090284621462A46E0
:102800003B4600F017F905B0F0BD0000F0B593B0FD
:102810001D461446199A0D920192189A0C92009234
:102820005FB27B180F910E90024600F0D3FA11951B
:102830006D4303952846FEF73AF906460D46644374
:1028400008942046FEF733F902460C4609973846AD
:102850001746FEF72CF90022734B1292FDF77CFE0F
:1028600006973A4605942346FEF72CF932462B4646
:1028700002F0DDFF0121C9430791002802965DD1D6
:1028800011984042FEF713F90024684B2246FDF7E9
:1028900063FE02460B4606980599FEF713F9324689
:1028A0002B46FDF759FEFDF79DFC1294039E0495FF
:1028B00039E0079809994143881C089948433F1813
:1028C0001199491E129A0C9800900D98019011913F
:1028D0004DB20F996B18521C129254B20E982218D6
:1028E00000F078FA601C7043FEF7E1F80B900A9153
:1028F00009952846FEF7DBF800224B4BFDF72CFE2E
:10290000069A059BFEF7DEF80B9A0A9B02F084FFFD
:1029100005463846FEF76EFA0146109803F0AAF80D
:10292000002D049D0AD00021109002F098FF610054
:10293000CF1C77430028BCD01199C3E7119F78B210
:1029400001286FDB129840B2FEF7B1F80022384B35
:10295000FDF702FE04462B460D46029AFEF7B2F83A
:1029600022462B46FEF7AEF804460E460998411E55
:10297000089D284648434843FEF799F802460B460F
:1029800020463146FDF7E8FD04460E4628460399E9
:102990004843FEF78CF802460B4620463146FDF7C9
:1029A000E8FDFDF71FFC0446FEB2700003210F1A7C
:1029B0006F4368000B90751C2AE007987043C01C99
:1029C00008994843129B59B24900891C039A514304
:1029D000081810905B1C0C9800900D9801901293B1
:1029E00058B20E9C02190F994819801E03B2204656
:1029F00000F0F0F91098FEF7FDF90146119803F088
:102A000039F804460B983F186D1E761E012D09D922
:102A10000021204602F018FF00281194CDD0109715
:102A2000129BD8E713B0F0BD0000E0BF0000D03F1C
:102A30000000E03FF0B589B0151A0E9C02948B425D
:102A400020D1002D00D40246E8174540281A012164
:102A5000402B59D3002213460B431BB2984200DA95
:102A6000AFE1022313431BB2984200DAA9E103232A
:102A700013431BB2984200DAA3E1121D13B298422D
:102A8000E9DA9EE15C1A824207905AD1002C00D408
:102A90000B46E0174440211A50B200286BD402982C
:102AA0000022002805D11CE0521C10B2814200DA3D
:102AB00087E19818C5B23F2DF6D8079CE600C34CB5
:102AC000A619ED0807277D1BEDB2745D8743012031
:102AD000B84020437055E7E7521C10B2814200DA3B
:102AE0006FE19818C5B23F2DF6D8079CE600B74CA9
:102AF000A619ED0807277D1BEDB2745D8743012001
:102B0000B84084437455E7E7072425469D43A94010
:102B1000DB08E31ADBB2029C002C44D00024AB4D4E
:102B200004E0641C26B2B04200DA4AE1161976B21B
:102B3000002EF6D4F6B2F600AE19F75C0F43F75448
:102B4000EFE7012D09DB002C07DD03910120089040
:102B50001E461746A54248DB69E0012D37DB002CF5
:102B600035D503914800C61A6442022008901746E2
:102B7000A5423ADB5BE000200122024312B29142FF
:102B800000DA1EE10222024312B2914200DA18E199
:102B90000322024312B2914200DA12E1001D02B296
:102BA0009142E9DA0DE1C9430024884D04E0641C38
:102BB00026B2B04200DA04E1161976B2002EF6D43D
:102BC000F6B2F600AE19F75C0F40F754EFE7002DB0
:102BD0001DD5002C1BD564426D42042608960E4676
:102BE000074603930792A54221DA0399C8190F46B5
:102BF0000799401AC0B2C41BF01B0E464018C0B261
:102C0000451A0898103008903F2F14D92FE000265D
:102C1000002D039100D4D6E0012C00DAD3E040006F
:102C2000871A6D42082008901E46A542DDDB079EEC
:102C3000039F3F2F1BD870B2002818D407200346EB
:102C4000BB4301229A40FB08C01A029B002B06D00E
:102C5000F300F94EF318C0B21E5C164305E0F30012
:102C6000F54EF318C0B21E5C96431E54079E012D0C
:102C700000DAA6E06100601B06914B1B400001904A
:102C800010200899084004900F200840691C89B260
:102C9000059100240125401E08900EE00098C00018
:102CA000E54E3018FEB2875D8F438755079ED318D7
:102CB0006D1C0598A84200D183E018B20028069A3E
:102CC00000D4019A42489843C00B2418089807285A
:102CD000EDD808987844007940008744040C030438
:102CE00003030319E3E70498002831D1701941B2B6
:102CF000002914D5DBE7049800282FD1701941B2C0
:102D00000029D4D40399091BCFB23F2F0CD9CEE7A9
:102D1000049800282DD1701B41B20029C7D4039913
:102D20000919CFB23F2FC2D8C0B200900720064683
:102D30008E430121B140FE08871B02980028ADD0C8
:102D40000098C000BC4E3018FEB2875D0F43ACE760
:102D500003984119C8B23F2805D9A8E70398411B39
:102D6000C8B23F28A3D837197EB2002E079E0AD5D5
:102D70009DE703984119C8B23F2898D8371B7EB207
:102D8000002E079E93D4FEB2009607273E468E4340
:102D90000121B140C008381A029E002E08D0009EC2
:102DA000F600ED4FBE19C0B2375C0F4337547DE7D4
:102DB000009EF600E84FBE19C0B2375C8F4337540F
:102DC00074E709B0F0BD0896C2E6C046780000205E
:102DD000FFFF0000F0B58FB00E930D920C460891E6
:102DE00006461498FDF76BFE914A924BFDF76AFE7A
:102DF000FDF7F8F9FDF78AFF05460F4602F088FD5A
:102E0000FDF7F0F903902846394602F035FDFDF74D
:102E1000E9F90546049037460D98801B00B20C90E6
:102E2000FDF7E8FF0D90294602F0BEFE06460E981B
:102E3000001B00B20B90FDF7DDFF0446039D294601
:102E400002F0B2FE0146079630460A9102F004FFF6
:102E500006463846FDF7D6FF014630460E9102F091
:102E600009FEFDF77DFF019040B205900D982E46BA
:102E7000294602F099FE05462046049F394602F095
:102E800093FE014606952846099102F0F3FD04469B
:102E90000898FDF7B7FF014620460D9102F0EAFDC4
:102EA000FDF75EFF02900C984042FDF7A3FF044639
:102EB0003146354602F078FE08902046394602F049
:102EC00073FE0C900B984042FDF794FF064629468E
:102ED00002F06AFE04463046394602F065FE029B67
:102EE0000B90159E059800281AD43F2B18D807215F
:102EF0000A469A4301209040DA08891A002E07D02A
:102F0000019AD200944B9A18C9B2535C034306E06D
:102F1000019AD200904B9A18C9B2535C8343535420
:102F20000798214602F098FE0E9902F0A3FDFDF7E6
:102F300017FF054647B206980B9902F09BFD0D99C5
:102F400002F098FDFDF70CFF002F3746089E14D4C1
:102F50003F2812D807221346834301219940C00815
:102F6000101AEA007C4B9A18C0B2002F02D0135CF2
:102F70000B4301E0135C8B4313540C98214602F081
:102F80006BFE0E9902F076FDFDF7EAFE044645B2AF
:102F900030460B9902F06EFD0D9902F06BFDFDF7C6
:102FA000DFFE002D14D43F2812D807221346834396
:102FB00001219940C008101AE200674B9A18C0B26C
:102FC000002F02D0135C0B4301E0135C8B431354BE
:102FD0000C980A9902F040FE0E9902F04BFDFDF7A5
:102FE000BFFE044645B23046099902F043FD0D99F3
:102FF00002F040FDFDF7B4FE002D16D43F2814D892
:1030000007221346834301219940C008101AE200A9
:10301000514B9A18C0B2002F04D0135C0B431354C9
:103020000FB0F0BD135C8B4313540FB0F0BDC0461E
:103030001839359D46DF913F78000020F0B583B008
:10304000099CE318089CA218D4B2019454B20A9ABD
:103050000292002C1CD4DFB23F2F19D807252A4634
:103060009A4301269640FA08AF1A029A002A07D01E
:10307000019AD200384DAA18FDB2575D374306E0D9
:10308000019AD200344DAA18FDB2575DB743575587
:103090004900C91A002C1ED4CFB23F2F1BD8009074
:1030A000072215468D430126AE40FD08571B029AA4
:1030B000002A07D00198C000274A1018FAB2855C90
:1030C000354306E00198C000234A1018FAB2855C27
:1030D000B543855400984000021BD0B254B2002C76
:1030E0001AD4CDB23F2D17D8072216468E430121A0
:1030F000B140ED08551B029A002A06D0C200164EB8
:10310000B218EDB2565D0E4305E0C200124EB21881
:10311000EDB2565D8E435655002C1BD4DCB23F2CCD
:1031200018D8072215469D430121A940E308D31A68
:10313000029AC000002A07D0074A1018DAB2835C4E
:103140000B43835403B0F0BD034A1018DAB2835C1A
:103150008B43835403B0F0BD78000020F0B593B0EA
:1031600010930E920F4609910F901898FDF7A7FC47
:10317000EC4AED4BFDF7A6FCFDF734F8FDF7C6FD74
:1031800006460D4602F0C4FBFDF72CF804460790F6
:103190000F983A181192109908181290801AFDF79A
:1031A00029FE0746214602F0FFFC0A9030462946D8
:1031B00002F062FBFDF716F80546384629460295EF
:1031C00002F0F2FC089012981199081AFDF712FE0D
:1031D0000446079F394602F0E7FC04902046294642
:1031E00002F0E2FC0B900E980F9C001BFDF702FE14
:1031F0001190294602F0D8FC064610980999401A09
:10320000FDF7F8FD0C9039463D4602F0CDFC014635
:103210000D963046069102F01FFD07462046FDF749
:10322000F1FD01463846129102F024FCFDF798FDAD
:10323000009040B203901198294602F0B5FC044674
:103240000C98029E314602F0AFFC01460C942046D9
:10325000059102F00FFC0446099F3846FDF7D2FDA8
:1032600001462046119102F005FCFDF779FD019021
:103270000E980F99081AFDF7BDFD0546079C2146DB
:1032800002F092FC0F902846314602F08DFC0E9021
:103290001098381AFDF7AEFD0746214602F084FC6F
:1032A00005463846314602F07FFC019B099019988B
:1032B0001090039800281BD43F2B19D807210A46E9
:1032C0009A4301209040DA08891A109A002A07D000
:1032D000009AD200B34B9A18C9B2535C034306E07C
:1032E000009AD200AF4B9A18C9B2535C834353542F
:1032F00008980C9902F0B0FC129902F0BBFBFDF7A4
:103300002FFD044647B20A980D9902F0B3FB1199BC
:1033100002F0B0FBFDF724FD002F19D43F2817D889
:1033200007221346834301219940C008101A109ABE
:10333000002A06D0E2009B4B9A18C0B2135C0B43E4
:1033400005E0E200974B9A18C0B2135C8B4313540C
:1033500008980F9902F080FC129902F08BFBFDF7A0
:10336000FFFC044647B20A980E9902F083FB1199BC
:1033700002F080FBFDF7F4FC002F19D43F2817D88A
:1033800007221346834301219940C008101A109A5E
:10339000002A06D0E200834B9A18C0B2135C0B439C
:1033A00005E0E2007F4B9A18C0B2135C8B431354C4
:1033B0000D98294602F050FC129902F05BFBFDF7D4
:1033C000CFFC044647B20C98099902F053FB1199BF
:1033D00002F050FBFDF7C4FC002F049F19D43F28D6
:1033E00017D807221346834301219940C008101AB9
:1033F000109A002A06D0E2006A4B9A18C0B2135CF9
:103400000B4305E0E200674B9A18C0B2135C8B4394
:1034100013540E98294602F01FFC129902F02AFB61
:10342000FDF79EFC044645B20F98099902F022FB75
:10343000119902F01FFBFDF793FC002D19D43F28D2
:1034400017D807221346834301219940C008101A58
:10345000109A002A06D0E200EB4B9A18C0B2135C17
:103460000B4305E0E200E84B9A18C0B2135C8B43B3
:1034700013540B980F9902F0EFFB129902F0FAFA2D
:10348000FDF76EFC044645B238460E9902F0F2FA9A
:10349000119902F0EFFAFDF763FC002D19D43F28D3
:1034A00017D807221346834301219940C008101AF8
:1034B000109A002A06D0E200D34B9A18C0B2135CCF
:1034C0000B4305E0E200D04B9A18C0B2135C8B436B
:1034D00013540B980C9902F0BFFB129902F0CAFA30
:1034E000FDF73EFC044645B238460D9902F0C2FA9B
:1034F000119902F0BFFAFDF733FC002D1DD43F28CF
:103500001BD807221346834301219940C008101A93
:10351000109A002A0AD0E200BB4B9A18C0B2135C82
:103520000B4309E01839359D46DF913FE200B64B69
:103530009A18C0B2135C8B4313540E98069902F08C
:103540008BFB129902F096FAFDF70AFC044645B28D
:103550000F98059902F08EFA119902F08BFAFDF797
:10356000FFFB002D1BD43F2819D8072213468343A5
:1035700001219940C008101A109A002A08D0E200D0
:10358000A14B9A18C0B2135C0B43135413B0F0BD97
:10359000E2009D4B9A18C0B2135C8B43135413B0D6
:1035A000F0BDC04678000020F0B58AB01D460890F6
:1035B0001098C6180F9B07939B18DCB200945CB25E
:1035C000119B09930294002C069104951ED4F4B229
:1035D0003F2C1BD807252F46B7430123BB40E408E7
:1035E0002C1B099D002D07D00099CD00864F7D1919
:1035F000E4B22F5D1F4306E00099CD00824F7D1994
:10360000E4B22F5D9F432F55049D06990596089EB1
:103610008B1B9B181C18731A5B1907995B18D9B27E
:103620005BB2002B03941AD4E7B23F2F17D80726BA
:103630003546A5430124AC40FD08771B099D002DAC
:1036400006D0CD00704E7519FEB2AF5D274305E080
:10365000CD006D4E7519FEB2AF5DA743AF550C4658
:103660000899891A069F0191CA19121A002B1AD4B7
:10367000D6B23F2E17D807210D4695430123AB4004
:10368000F5084E1B0999002906D0E1005E4D691826
:10369000F5B24E5D1E4305E0E1005B4D6918F5B2E1
:1036A0004E5D9E434E557900059BCE1A0298002828
:1036B0001DD4F5B23F2D1AD807210F46B743012379
:1036C000BB40ED084D1B0999002907D00098C100A7
:1036D0004D4F7918EDB24F5D1F4306E00098C100D1
:1036E000494F7918EDB24F5D9F434F55069F08989B
:1036F000019909180798091AC8B24DB2002D1BD4B8
:10370000F4B23F2C18D807210F46B7430123BB4022
:10371000E4080C1B0999002906D0C1003A4E711823
:10372000E4B20E5D1E4305E0C100374E7118E4B2ED
:103730000E5D9E430E55069F069004990798091842
:1037400008983818411AC8B249B200291AD4D3B21D
:103750003F2B17D80724264696430122B240DB08A8
:10376000E31A099C002C06D0C400274E3419DBB2A2
:10377000E65C164305E0C400234E3419DBB2E65C78
:103780009643E6540029059E039919D4CAB23F2AEC
:1037900016D807231C468C430121A140D2089A1A4F
:1037A000099BC000002B05D0174B1818D2B2835CC0
:1037B0000B4304E0144B1818D2B2835C8B43835440
:1037C000002D1ED4F1B23F291BD807221346B34364
:1037D00001209840C908511A099A002A09D0069A6E
:1037E000D200094B9A18C9B2535C034353540AB030
:1037F000F0BD069AD200044B9A18C9B2535C8343B9
:1038000053540AB0F0BDC04678000020F0B58DB02A
:103810000A91099013980890009054085D089A4204
:10382000264677D21299A942304678D9A14200D8CB
:1038300006460999081B06903018C0B2049061181A
:103840000B91891BCAB203920A9FE9190591C9B26B
:103850000C9434460B46FFF7EDF8089E009607954A
:103860007D1BE9B20498039A0B46FFF7E3F8009634
:103870000598001BC1B26019C7B20698C0B20D46C8
:1038800002463B46FFF7D6F800960B98C0B2294691
:1038900002463B46FFF7CEF80798001BC1B20C98D2
:1038A000001BC0B20690079100AA43C20A99601893
:1038B000C3B209980246FFF777FE002C28D02246B3
:1038C0000126341B099F08E00C9AD1B24000201851
:1038D000441C761CF0B288421AD8069800900798CB
:1038E00001900898029065B2501E002D00D4024647
:1038F0000B900C920A995018C3B2F019C2B2384614
:10390000FFF752FE002D3046DED40B98301ADBE76D
:103910000DB0F0BD2E461299A942304686D8084611
:10392000A14285D985E7F0B593B0049305920F467F
:10393000199E009652080D92811A0791CDB20F90F0
:1039400010180890C2B2129258081190381A0A90B2
:10395000C4B2284621462346FFF76CF8009610971C
:103960001198C0190990C7B228463946129A3B46A9
:10397000FFF760F80096284621460B952A463B46FD
:10398000FFF758F8009612980C94214602460697C5
:103990003B46FFF74FF870420E9670410646009086
:1039A0000598049988420D9F00D3119F189911988A
:1039B0008142384600D808460D9A914200D8074601
:1039C00007983818C2B207920B9C20460C9D2946D6
:1039D0002B46FFF72FF800960898C01BC2B208923A
:1039E000129829462B46FFF725F800962046069D9B
:1039F0002946079A2B46FFF71DF80096129829468C
:103A0000089A2B46FFF716F800960A983818C3B2A2
:103A10000A9320460C992246FFF70CF80096099865
:103A2000C01BC3B20993204629462246FFF702F87D
:103A30000096129C20460C9922460A9BFEF7FAFF3C
:103A40000096204629462246099BFEF7F3FF11986F
:103A5000C01BC1B20D98C01BC0B20C9000900D915C
:103A600001910E98029010997818C3B20F980246EF
:103A7000FFF79AFD002F28D00125EE1B09E0129ACE
:103A8000D1B240003018461C6D1CE8B2884217467F
:103A90001BD80C9800900D9801900E98029074B26B
:103AA000781E002C00D407461190129710997818B0
:103AB000C3B20F9FE819C2B23846FFF775FD002C5C
:103AC0002846DCD41198281AD9E713B0F0BDF0B518
:103AD00091B00E460E910D90179D009551080991D9
:103AE000421A0492D4B20B9408180590C2B20F92F5
:103AF0005808311A079107460890C9B220460C466B
:103B00000B46FEF797FF0095B8190690C6B20B9FBB
:103B1000384631460F9A33460A96FEF78BFF0095DA
:103B2000384621463A463346FEF784FF00950F9803
:103B3000214602463346FEF77DFF0C956F426F41EA
:103B40000097169E049880191096C2B204920B9D9D
:103B5000284621462346FEF76DFF00970598801BF7
:103B6000C2B205920F9E304621462346FEF762FF01
:103B7000009728460A9D2946049A2B46FEF75AFFCD
:103B8000009730462946059A2B46FEF753FF0097CB
:103B90000798109E8019C3B207930B9D28462146B3
:103BA0002A46FEF747FF00970698801BC3B206938C
:103BB00028460A9E31462A46FEF73CFF00970F9D95
:103BC000284621462A46079BFEF734FF00972846E1
:103BD00031462A46069BFEF72DFF0898109C001BD5
:103BE000C1B20998001BC0B20A9000900B910191DC
:103BF0000C9802900E996018C3B20D980246FFF718
:103C0000D3FC002C28D0224601252E1B0D9F08E056
:103C1000109AD1B240003018461C6D1CE8B28842A0
:103C20001AD80A9800900B9801900C98029074B2E0
:103C3000501E002C00D402460F9010920E9950187E
:103C4000C3B2E819C2B23846FFF7AEFC002C2846D2
:103C5000DED40F98281ADBE711B0F0BDF0B593B0B1
:103C60001D461446199A0D920192189A0C920092D0
:103C70005FB27B180F910E900246FFF76FFA119515
:103C80006D4303952846FCF712FF06460D46644334
:103C900008942046FCF70BFF02460C46099738466D
:103CA0001746FCF704FF0022734B1292FCF754FCFA
:103CB00006973A4605942346FCF704FF32462B4606
:103CC00001F0B5FD0121C9430791002802965DD19D
:103CD00011984042FCF7EBFE0024684B2246FCF7AB
:103CE0003BFC02460B4606980599FCF7EBFE324674
:103CF0002B46FCF731FCFCF775FA1294039E0495F1
:103D000039E0079809994143881C089948433F18AE
:103D10001199491E129A0C9800900D9801901191DA
:103D20004DB20F996B18521C129254B20E98221871
:103D3000FFF714FA601C7043FCF7B9FE0B900A9170
:103D400009952846FCF7B3FE00224B4BFCF704FC18
:103D5000069A059BFCF7B6FE0B9A0A9B01F05CFDE8
:103D600005463846FDF746F80146109801F082FEF8
:103D7000002D049D0AD00021109001F070FD61001B
:103D8000CF1C77430028BCD01199C3E7119F78B2AC
:103D900001286FDB129840B2FCF789FE0022384BF5
:103DA000FCF7DAFB04462B460D46029AFCF78AFE26
:103DB00022462B46FCF786FE04460E460998411E15
:103DC000089D284648434843FCF771FE02460B46CF
:103DD00020463146FCF7C0FB04460E4628460399B0
:103DE0004843FCF764FE02460B4620463146FCF78A
:103DF000C0FBFCF7F7F90446FEB2700003210F1A6E
:103E00006F4368000B90751C2AE007987043C01C34
:103E100008994843129B59B24900891C039A51439F
:103E2000081810905B1C0C9800900D98019012934C
:103E300058B20E9C02190F994819801E03B22046F1
:103E4000FFF78CF91098FCF7D5FF0146119801F0A7
:103E500011FE04460B983F186D1E761E012D09D9E0
:103E60000021204601F0F0FC00281194CDD01097DD
:103E7000129BD8E713B0F0BD0000E0BF0000D03FB8
:103E80000000E03FF0B587B006A9AE200870CD482D
:103E90000068CD4F012400AA92C278250026294649
:103EA00032462346FDF73AFB06A9D5200870C548DF
:103EB000006800AA92C2294632462346FDF72EFB2F
:103EC00006A950200870BF48006800AA92C229467F
:103ED00032462346FDF722FB06A9A8200870B94800
:103EE000006800AA92C2294632462346FDF716FB17
:103EF00006A93F200870B348006800AA92C229466C
:103F000032462346FDF70AFB06A9D3200870AD48C8
:103F1000006800AA92C2294632462346FDF7FEFAFF
:103F200006A90E70A748006800AA92C22946324628
:103F30002346FDF7F3FA06A9402005900870A14832
:103F4000006800AA92C2294632462346FDF7E6FAE7
:103F500006A98D2008709B48006800AA92C22946D5
:103F600032462346FDF7DAFA06A914200870954870
:103F7000006800AA92C2294632462346FDF7CEFACF
:103F800006A9202008708F48006800AA92C229461E
:103F900032462346FDF7C2FA06A90C70894800682C
:103FA00000AA92C2294632462346FDF7B7FA06A96F
:103FB000A12008708348006800AA92C229463246B0
:103FC0002346FDF7ABFA06A9C02008707D480068BB
:103FD00000AA92C2294632462346FDF79FFA06A957
:103FE000DA2008707748006800AA92C22946324653
:103FF0002346FDF793FA06A912200870714800685D
:1040000000AA92C2294632462346FDF787FA06A93E
:10401000812008706B48006800AA92C22946324687
:104020002346FDF77BFA06A9EF2008706548006873
:1040300000AA92C2294632462346FDF76FFA06A926
:10404000D92008705F48006800AA92C2294632460B
:104050002346FDF763FA06A9F12008705948006865
:1040600000AA92C2294632462346FDF757FA06A90E
:10407000DB2008705348006800AA92C229463246E5
:104080002346FDF74BFA06A9302008704D4800681A
:1040900000AA92C2294632462346FDF73FFA06A9F6
:1040A000A42008704748006800AA92C229463246F8
:1040B0002346FDF733FA06A9A62008704148006898
:1040C00000AA92C2294632462346FDF727FA06A9DE
:1040D000AF2008703B48006800AA92C229463246C9
:1040E0002346FDF71BFAA10204913848FCF775F846
:1040F00006A9B02008703348006800AA92C2294679
:1041000032462346FDF70AFA06A90E702D480068CC
:1041100000AA92C2294632462346FDF7FFF906A9B6
:10412000102008702748006800AA92C2294632462B
:104130002346FDF7F3F923480068244900910499C8
:10414000019102972946059A2346FDF7E7F907B042
:10415000F0BDC046F0B587B004A9B020087019487A
:104160000068194F012400AA92C27825002629462A
:1041700032462346FDF7D2F905A90E7011480068B2
:1041800000AA92C2294632462346FDF7C7F906A97E
:10419000102008700B48006800AA92C229463246D7
:1041A0002346FDF7BBF9074800680297A102019179
:1041B00006490091402229462346FDF7AFF907B092
:1041C000F0BDC04610000020FFFF00007800002076
:1041D000F0B5A7B0259124901046184300D171E2A4
:1041E0001C4615462C981C90501E11468141119179
:1041F0001F4667433846FCF75AFC149013912E462D
:104200006E433046FCF753FC199018916042FCF75E
:104210004EFC00220B92E34BFCF79EF902460B4644
:1042200019981899FCF74EFC149A139BFCF794F913
:10423000FBF7D8FF08901C99484248411D90304632
:104240007843FCF734FC0D900C912598011B0791E5
:1042500024996A18069220180590481B04900120A2
:104260000390C0431A901B96700020900B9A16463C
:1042700021970A940995A01BC1B21292A81AC0B244
:1042800022900090239101911C980290259970181A
:10429000C3B2249802461093FEF7D0FE75B22846AA
:1042A000FCF705FC0B9C2246BF4BFCF755F9199A0D
:1042B000189BFCF707FC0F900E91149A139B01F0CA
:1042C000B6FA002815961F962694169551D13C46AD
:1042D0000027169D089A269715981F903DE01A987A
:1042E0004543A81C1B99484336181F9D6D1E2298F4
:1042F0000090239801901C98029025996818C3B2E9
:10430000269C641C24982218D2B2FEF797FE2694AD
:1043100067B2781C21994843FCF7C9FB17900C46FB
:104320001F956DB22846FCF7C2FB0022E64BFCF756
:1043300013F9199A189BFCF7C5FB179A234601F04D
:104340006BFA04463046FCF755FD01461E9801F015
:1043500091FB0246002C219C0BD000211E9210469E
:1043600001F07DFA7900CE1C66430028B7D01F9D6E
:10437000BDE71F9F78B2012865DB269840B2FCF7A5
:1043800096FB0022D14BFCF7E7F804460E46149A40
:10439000139BFCF797FB22463346FCF793FB04463E
:1043A0000E46691E1B9D284648434843FCF77FFB89
:1043B00002460B4620463146FCF7CEF80D9A0C9B80
:1043C000FCF7D7F8FBF70EFF0246FEB270000321A0
:1043D0000F1A6F43751C2CE01A987043C01C1B9970
:1043E0004843269B59B24900891C219A5143081819
:1043F0001E905B1C22980090239801901C980290BC
:10440000249C26931819C2B225996818801EC3B23D
:104410002046FEF713FE1E98FCF7ECFC01461F98A1
:1044200001F028FB024620983F186D1E761E012DD4
:1044300009D900211F92104601F006FA0028CBD0BE
:104440001E97269BD6E71C9F009704981299081880
:10445000C6B20698401AC2B226920598159C001B57
:10446000C5B2304629462B46FEF7E4FA0097079876
:104470002018C4B230462146269A2346FEF7DAFABF
:1044800000973046294632462346FEF7D3FA009776
:10449000269F384629463A462346FEF7CBFAFFF7D1
:1044A00059FE1D980090304629463A462B46FEF7A5
:1044B000C1FA1D980090304621463A462346FEF741
:1044C000B9FA1D9F00973046294632462346FEF72B
:1044D000B1FA00972698294602462346FEF7AAFA23
:1044E00022980090239801900297249825990246DB
:1044F000109BFEF7A3FD0F980E99149A139B01F0E1
:1045000096F9002852D100240898269415991F91F5
:10451000219F3CE01A9816994143881C1B994843F7
:104520002D181F9E761E22980090239801901D98AA
:10453000029025997018C3B2269C641C24982218F6
:10454000D2B2FEF77BFD269464B2601C7843FCF780
:10455000AEFA3246064617911F9250B21690FCF7FB
:10456000A6FA0022584BFBF7F7FF199A189BFCF7A5
:10457000A9FA3246179B01F04FF906462846FCF788
:1045800039FC01461E9801F075FA002E12D0002168
:104590001E9001F064F96100CD1C7D430028B9D064
:1045A0001F9EC0E70000D03F0000E0BF0020269023
:1045B00015981F901F9E70B2012866DB269840B2A6
:1045C000FCF775FA0022414BFBF7C6FF04460D4687
:1045D000149A139BFCF776FA22462B46FCF772FAE4
:1045E00004460D461698411E1B9848434843FCF765
:1045F0005EFA02460B4620462946FBF7ADFF0D9AB0
:104600000C9BFBF7B6FFFBF7EDFD0246F6B2700020
:1046100003210F1A1B984743751C2CE01A9870430E
:10462000C01C1B994843269B59B24900891C219AFA
:10463000514308181E905B1C22980090239801900B
:104640001D980290249C26931819C2B225996818C7
:10465000801EC3B22046FEF7F1FC1E98FCF7CAFB91
:1046600001461F9801F006FA024620983F186D1E79
:10467000761E012D09D900211F92104601F0E4F8A1
:104680000028CBD01E97269BD6E7159EF0B2099D39
:10469000A84200D2761C0A9C219F1198129A039975
:1046A00008401218D0B2A84207D21191A84200D2F5
:1046B000E1E5F0B2A04205D2DDE500211191A8426A
:1046C000F7D2D8E527B0F0BD0000E0BF0000E03F22
:1046D000F0B58DB09A42039200D803931C469A42DB
:1046E000134600D3234608900B9109925A08129B57
:1046F0000A9305920C9426D0584258410490002504
:104700000B9F099C0C9E0795E8B2069000900193C0
:10471000089D2846394622463346FFF777F8FFF7CB
:1047200019FD06980090049801902846079D394687
:1047300022463346FFF76AF8059A0A9B6D1CE8B2D9
:104740008242E0D800E000250398441EE0B2824295
:104750000C9E2DD2584258410290089F1AE0F3B2A5
:10476000049338460B9E31460692FFF74FF8FFF749
:10477000F1FC079800900298019038463146069A5D
:10478000049BFFF743F8641EE0B2059981420C9E3A
:104790000A9B0DD2E8B20790009001930999B142AB
:1047A000204600D80846C2B2B142D8D82646D6E73D
:1047B000E0B2039A90422DD2584258410490089F8B
:1047C0001AE0F3B2069338460B9E31460592FFF786
:1047D0001DF8FFF7BFFC0798009004980190384639
:1047E0003146059A069BFFF711F8641CE0B2039965
:1047F00088420C9E0A9B0DD2E8B20790009001936C
:104800000999B142204600D80846C2B2B142D8D870
:104810002646D6E72806099C0B99089F1AD05A42CB
:104820005A410792EEB200960193384622460C9BFD
:10483000FEF7ECFFFFF78EFC00960C9B07980190AB
:1048400038460B992246FEF7E1FF0B990A9B6D1E35
:104850002806E7D10DB0F0BDF0B589B09A421446F4
:1048600000D31C46054660080E9F069708952DD07C
:104870007C427C41039400260593049202902846D2
:10488000059D3446F2B207920092069A01920F46B5
:10489000049E32462B46FEF7B9FFFFF75BFC0798F4
:1048A0000090039801900898394632462B46FEF74F
:1048B000ADFF0898661CF1B2029A91423946E0D3E6
:1048C0002206069F059B049E03D121E0FF24164685
:1048D00028467A427A410592E2B207920092019705
:1048E0000D4632461F46FEF791FFFFF733FC07984F
:1048F0000090059801900898294632463B46FEF7FD
:1049000085FF3B4608982946641E2206069FE3D190
:1049100009B0F0BDF0B589B09A42164600D31E46E4
:1049200007460E9D002E0695089328D068426841E0
:104930000390002538460F46059004962C46EEB2AB
:1049400000960699019139461546089BFFF7BFF876
:10495000FFF700FC0096049E0398019005983946E5
:104960002A46089BFFF7B3F805982A46651CE9B26A
:10497000B142E3D32106069D089E03D122E0FF2425
:1049800038460F466942694104910797E6B200969E
:104990000195394617460546089BFFF798F8FFF73B
:1049A000D9FB0096089E04980190284607993A463C
:1049B0003346FFF78CF828463A46079F641E2106C7
:1049C000069DE3D1002300936B426B41019339466E
:1049D0003346FFF77CF809B0F0BDF0B58DB09A42D0
:1049E000039200D803931C469A42134600D32346F1
:1049F00008900B9109925A08129B0A9305920C9405
:104A000026D058425841049000250B9F099C0C9ECB
:104A10000795E8B2069000900193089D2846394614
:104A200022463346FEF77FFFFFF794FB069800907F
:104A3000049801902846079D394622463346FEF7E2
:104A400072FF059A0A9B6D1CE8B28242E0D800E032
:104A500000250398441EE0B282420C9E2DD258429B
:104A600058410290089F1AE0F3B2049338460B9E17
:104A700031460692FEF757FFFFF76CFB0798009050
:104A80000298019038463146069A049BFEF74BFF88
:104A9000641EE0B2059981420C9E0A9B0DD2E8B2D9
:104AA0000790009001930999B142204600D808462A
:104AB000C2B2B142D8D82646D6E7E0B2039A9042B5
:104AC0002DD2584258410490089F1AE0F3B2069341
:104AD00038460B9E31460592FEF725FFFFF73AFB5D
:104AE000079800900498019038463146059A069B35
:104AF000FEF719FF641CE0B2039988420C9E0A9BE2
:104B00000DD2E8B20790009001930999B142204676
:104B100000D80846C2B2B142D8D82646D6E7280601
:104B2000099C0B99089F1AD05A425A410792EEB23B
:104B300000960193384622460C9BFEF7F4FEFFF7E1
:104B400009FB00960C9B0798019038460B9922466A
:104B5000FEF7E9FE0B990A9B6D1E2806E7D10DB002
:104B6000F0BD7047704780B5FCF764FE80BD7047AC
:104B7000B0B5816ACA070CD18A0714D44A071CD47D
:104B80000A0724D4CA062CD48A0634D44A063CD454
:104B90004CE00122520403685C689443C26A2243D9
:104BA0005A608A07EAD50122120403685C689443BC
:104BB000026B22435A604A07E2D50122920403683D
:104BC0005C689443426B22435A600A07DAD501229B
:104BD000D20303685C689443826B22435A60CA061E
:104BE000D2D50122120303689C689443C26B22430E
:104BF0009A608A06CAD50122520303689C689443CE
:104C0000026C22439A604A0610D5012213050268FD
:104C100054689C43456C2C4354609D4206D1032349
:104C20005B0554689C43836C23435360090607D596
:104C30000121C904026853688B43C06C184350605B
:104C4000B0BD0000F0B581B00446006801684B4A71
:104C50000A40A16823690B43616919431143E26962
:104C6000114301600321090343688B43E168194341
:104C70004160A169236A0B438168414D0D401D438A
:104C80008560C36A0F218B43616A0B43C3623D4B4E
:104C9000984209D03C4B984208D13C4800688007B4
:104CA000000F3BA31F5802E0002700E01027264614
:104CB00068360125EB033A489A4210D1082F55D89F
:104CC0007F443F797F00BF44045123511C5151510F
:104CD0002200FDF71FF8002817D0616A18E0082F9E
:104CE00044D8C0467F443F797F00BF44043F2D3FF6
:104CF000263F3F3F2C00FDF70DF8002821D0616AC8
:104D000022E0FDF719F80028E7D100252EE018462B
:104D10004900244A515A00F029F9400061684A08C4
:104D2000101800F023F90246103A1F498A421DD29A
:104D300001400007400F084315E0FCF7FDFF002885
:104D4000DDD1002512E018464900164A515A00F0FC
:104D50000DF961684A08101800F008F90146103989
:104D6000114A914202D22168C86000250F48306084
:104D700000206067A067284601B0F0BDF369FFCF4F
:104D8000FFF4FF110044004000380140541002407D
:104D90000000000004000000020000000800000005
:104DA0000024F400305F0008F0FF00000100010063
:104DB000F0B587B015460E4604460768F9693140DC
:104DC000891B4A424A410020AA4224D106930494F6
:104DD000224684320C9C002C1FD0611C44D1F969FE
:104DE0003140891B4A424A41AA4214D1F9693140F3
:104DF000891B4A424A41AA420DD1F9693140891BB7
:104E00004A424A41AA4206D1F9693140891B4A42C5
:104E10004A41AA42E3D007B0F0BD0392FCF7E2FAA0
:104E2000049FEFF31081012080F310880D225201BE
:104E30003B681C6894431C6081F31088EFF3108179
:104E400080F310883A6893688343936081F31088F5
:104E50002020039A50601046083000211170202154
:104E60000160032007B0F0BD039202900120019081
:104E7000C0020590049F06E0C0693040801B41429B
:104E80004141A9422DD1FCF7ADFA0699401AA04242
:104E9000C7D8386801684907EED5C169059A11423B
:104EA000EAD005990162EFF31080019C84F3108829
:104EB0000D2149013A6813688B43136080F3108811
:104EC000EFF3108084F3108839688A68A2438A60FF
:104ED00080F310882020039A5060906010460C30B8
:104EE000BBE7029807B0F0BD704792B0FCF7ACFC8E
:104EF00000250B950A9509950895079506950126B5
:104F00007002FCF70BFD70071190700410900820E0
:104F10000F900E9502240D940C9440200A90099550
:104F200030020890059405A8FCF74AFF002803D03A
:104F3000EFF3108072B6FEE7049503950720019009
:104F4000029401A82146FCF7E7FD002803D0EFF307
:104F5000108072B6FEE7FDF72BFBFDF753FBFDF764
:104F60007DFBFEF78FFFFCF796F8FCE743088B42CA
:104F70001AD3002203098B4279D3030A8B425ED3F2
:104F8000030B8B4242D3030C8B4227D30902FF222F
:104F900012BA030C8B4202D31212090203D0030B84
:104FA0008B4233D31AE0D3E0411A8041401C704752
:104FB00003460B4371D443088B42F5D30022030907
:104FC0008B4254D3030A8B4239D3030B8B421DD33C
:104FD000030C8B4202D394466EE0090AC30B8B424A
:104FE00001D3CB03C01A5241830B8B4201D38B03F5
:104FF000C01A5241430B8B4201D34B03C01A52419A
:10500000030B8B4201D30B03C01A5241C30A8B42DC
:1050100001D3CB02C01A5241830A8B4201D38B02C7
:10502000C01A5241430A8B4201D34B02C01A52416B
:10503000030A8B4201D30B02C01A5241CDD2C309DD
:105040008B4201D3CB01C01A524183098B4201D359
:105050008B01C01A524143098B4201D34B01C01A44
:10506000524103098B4201D30B01C01A5241C308BC
:105070008B4201D3CB00C01A524183088B4201D32B
:105080008B00C01A524143088B4201D34B00C01A17
:105090005241411A524110007047CA0F00D0494294
:1050A000031000D34042534000229C4603098B4228
:1050B0002DD3030A8B4212D38901FC2212BA030AB0
:1050C0008B420CD3890192118B4208D38901921132
:1050D0008B4204D3890137D0921100E08909C309BA
:1050E0008B4201D3CB01C01A524183098B4201D3B9
:1050F0008B01C01A524143098B4201D34B01C01AA4
:10510000524103098B4201D30B01C01A5241C3081B
:105110008B4201D3CB00C01A524183088B4201D38A
:105120008B00C01A5241D9D243088B4201D34B00A5
:10513000C01A5241411A00D20146524110466346FC
:105140005B1000D34042704763465B1000D340427F
:1051500001B50021004201D0C9430846C046C046FF
:1051600002BDF0B4040C8BB2264682B25E430D0C35
:105170001046370C584336048019002179411646F1
:105180006E43370C36048019794126466E438919DF
:10519000F0BC70474900CA020243100000D004204E
:1051A0004A0D01D001221043044A490D914201D118
:1051B00002210843012800D105207047FF070000A5
:1051C000F7B596B014460021A160D16017990991F6
:1051D0004D00CD496D088D4205DC17996160206056
:1051E000002019B0F0BDC949C94E8D4238DAD32725
:1051F00009997F050029C74A1799334617DDFBF740
:10520000B8F9B54206D0C44AC44BFBF7B2F96160A5
:10521000206009E03A46C14BFBF7ABF9C04AC14BED
:10522000FBF7A7F961602060012019B0F0BDFBF722
:1052300093F9B54206D0B84AB84BFBF78DF96160D7
:10524000206009E03A46B54BFBF786F9B44AB54B06
:10525000FBF782F9616020600020C04319B0F0BD07
:10526000B1498D42179977DC490049080746AF4A92
:10527000AF4B0491FBF726FC0022AE4BFBF76CF919
:10528000FBF7BEFB0A90FBF712FCA24A33460391E0
:105290000290FBF717FC3A46049BFBF775F90646AC
:1052A0000F469D4A9D4B03990298FBF70BFC2A0D74
:1052B00001250C9232463B46FBF766F9616020609F
:1052C000032D39D04800410D0C98401A6901691826
:1052D0001139814230DA98492801794408960D90B5
:1052E000081804974368026803990298FBF7EAFBE1
:1052F00002460B460791069004990898FBF739F986
:1053000006460F46049B089AFBF73EF9079B069A50
:10531000FBF72FF905918949049079440D984018BD
:10532000C368826803990298FBF7CCFB059B049A3B
:10533000FBF71FF96D1CBDE70998002809DA012267
:105340006068D207504060600A9819B04042F0BDD2
:1053500002E00A9819B0F0BD09030122090B1205F9
:105360000E9089181798109140007549400D40180B
:105370004111C006C00E0D9113902021081A1490FF
:105380000020069005250790139800280D980CD052
:10539000401982006B487844875813998F40101841
:1053A00041681498C1400F4304E0401981006648E9
:1053B0007844475810993846FFF7D3FE06460A91BD
:1053C00038460E99FFF7CDFE8A190A9B8A4201D210
:1053D000012100E00021C9188C46AF006946791808
:1053E0008B684E68C318834201D2012000E0002080
:1053F00096193618002802D0964202D903E0964248
:1054000001D2012000E00020624612184E6068467A
:105410008B60C25128466D1E0028B5DC0121029820
:1054200049074018800F1390029805998000039E49
:10543000049D0B91FBF73BFB074630460891FBF7B9
:105440003EFB1D22D243FBF741FD10900F912846F1
:10545000FBF735FB3D22D243FBF738FD0E900D9153
:105460000B98FBF72CFB5D22D243FBF72FFD0B9132
:105470000C900D9B0E9AFBF76FF80F9B109AFBF7A1
:105480006BF83A46089BFBF767F800250E463A464C
:105490002846089BFBF76DF80F9B109AFBF769F8FD
:1054A0000D9B0E9AFBF765F80B9B0C9AFBF76CF8BB
:1054B000264A274BFBF706FB07460D91254A264B4C
:1054C00031462846FBF7FEFA3A460D9BFBF744F8B7
:1054D0000F4615220C9092061D4B31462846FBF7CD
:1054E000F1FA3B460C9AFBF737F8179A002A05DACF
:1054F000139A524213920122D207514061602060F8
:10550000139819B0F0BD0000FB21E93F7CD902409F
:10551000FB21F93F000040543163621A61B4D03D71
:105520007370032E8A19A33BFB21394183C8C96DCF
:10553000305FE43F0000E03FFA0A0000BA0A0000D2
:105540000BFCFFFF6E0A0000540A0000182D4454A3
:10555000FB21F93D3326A611460B113CF0B51FB4D3
:105560004E00F9207608800584B00F46864204DAA2
:105570000498FBF745FA002838D0049A3B461046B9
:105580001946FBF79FFA044602462C480D460B4687
:105590000621784400F05CF822462B46FBF792FA8D
:1055A000019100903946079B069A0498FBF78AFA06
:1055B0000746029120462946019B009AFBF782FA92
:1055C0003A46029BFAF7D5FF074600220091D243E4
:1055D00020462946FBF77AFC194A96420ADA3A46EF
:1055E000009BFAF7C6FF0022164B23E00020154966
:1055F00009B0F0BD144A964202DD0024134D03E0C9
:1056000001225205B51A002422462B46FAF7B1FFB3
:105610000646019122462B4600200A49FAF7A9FFC7
:105620000D4604463A463046009B0199FAF7A1FF21
:1056300022462B46FAF7A8FF09B0F0BD1208000079
:105640003333D33F0000F03F0000E93F0000D23F7A
:10565000F8B504464F1EC8000838211815461E46E6
:10566000086849683A4606239A4310D02A463346CA
:10567000FBF728FA3A46D200083AA3181A687F1EA8
:105680005B68FAF769FF06223B469343EED1022F8F
:1056900023D0042F11D0062F2FD12A463346FBF7F3
:1056A00011FAE36AA26AFAF757FF2A463346FBF774
:1056B00009FA636A226AFAF74FFF2A463346FBF774
:1056C00001FAE369A269FAF747FF2A463346FBF776
:1056D000F9F963692269FAF73FFF2A463346FBF777
:1056E000F1F9E368A268FAF737FF2A463346FBF779
:1056F000E9F963682268FAF72FFFF8BDF0B51FB427
:10570000054648000C46F9214008890586B08842C4
:105710000BDA28462146FFF73DFD042801D100F0B1
:1057200071F8284621460BB0F0BD2A4623461046A4
:105730001946FBF7C7F906460F462A462346FBF7EC
:10574000C1F900902548019132463B460521784435
:10575000FFF77EFF029010980391002829D0204A7D
:10576000204B01990098FBF7ADF90490059168462C
:105770000FC8FBF7A7F9002201910090D2430999C5
:105780000898FBF7A3FB019B009AFAF7F2FE32465A
:105790003B46FBF797F9099B089AFAF7EAFE059B47
:1057A000049AFAF7E6FE2A462346FAF7EDFE0BB016
:1057B000F0BD0B4630463946029AFBF783F9084A9A
:1057C000084BFAF7C9FE019B009AFBF77BF92A46C2
:1057D0002346FAF7C1FE0BB0F0BD000056070000EB
:1057E000495555555555C5BF10B50122FBF76EFB00
:1057F00010BD002210B5134610461146FAF7DCFE24
:1058000010BD0000034A10B500201107FBF75EFB36
:1058100010BD000001FDFFFF10B500F0C7F8EFF369
:1058200000804000800F012800D0002010BD10B57E
:1058300000F0EEF8EFF300804000800F012801D067
:10584000012010BD002010BD10B500F059F9EFF394
:1058500000804000800F012800D0002010BD10B54E
:1058600000F078F9EFF300804000800F012801D0AC
:10587000012010BD002010BD00B54A00224B520887
:1058800087B09A4202DC0022134625E01F4B9A4261
:1058900008D1002808D10120FBF7BDFAFFF7A9FFC6
:1058A00007B000BD9A4203DBFFF79EFF07B000BDC3
:1058B00002AAFFF785FC8107890F0BD0012001297F
:1058C0000ED0022916D0009002A80FC8FFF716FFCD
:1058D00007B000BD02A80FC8FFF740FE07B000BD2B
:1058E000009002A80FC8FFF709FF0122D20751401C
:1058F00007B000BD02A80FC8FFF730FE0122D20793
:10590000514007B000BD0000FB21E93F0000F07FDF
:1059100000B54A00234B520887B09A4203DC0022AC
:105920001346009229E0204B9A4208D1002808D162
:105930000120FBF770FAFFF75CFF07B000BD9A4249
:1059400003DBFFF751FF07B000BD02AAFFF738FCE9
:105950008107890F012000290CD0012911D00229CB
:1059600015D002A80FC8FFF7F9FD0122D207514058
:1059700007B000BD009002A80FC8FFF7BFFE07B038
:1059800000BD02A80FC8FFF7E9FD07B000BD0090F9
:1059900002A80FC8FFF7B2FE0122D207514007B09C
:1059A00000BD0000FB21E93F0000F07F70B501253C
:1059B0002D050C001C4310D4EC4206D4AC420AD492
:1059C000994200D070BD904270BDE94217D4EB42BD
:1059D00015D4994270BD894270BDEC4206D5AC42E7
:1059E000F9D58B4200D070BD824270BD6D004C0075
:1059F000EC4204D25C00EC4201D28B4270BD034CFD
:105A000030B4FBF713FA30BC70BD00BF19001304AB
:105A100070B501252D050C001C4310D4EC4206D4B2
:105A2000AC420AD4994200D070BD904270BDE942A8
:105A300017D4EB4215D4994270BD894270BDEC4237
:105A400006D5AC42F9D58B4200D070BD824270BD04
:105A50006D004C00EC4204D25C00EC4201D28B425F
:105A600070BD034C30B4FBF7E1F930BC70BD00BF32
:105A70001900160470B50125ED0704004C4020D430
:105A8000441A01D2001B0919C60D4B00F2B2FF2ABD
:105A900029D01B0E2CD000020C0228432C43D31A11
:105AA000DC40051910D2280A02D3401C6D0611D023
:105AB000761EF6058019FF2A00DA70BDC00DC005FC
:105AC00070BD694000F0CEF801200543C541521C6D
:105AD000761CE8E764089C40C90161408900E7D171
