:020000040800F2
:100000006007002065010008050F0008650E000864
:1000100000000000000000000000000000000000E0
:10002000000000000000000000000000090F0008B0
:100030000000000000000000070F00080B0F000880
:100040007701000800000000770100087701000830
:1000500077010008770100087701000877010008A0
:100060000000000077010008770100087701000810
:100070007701000877010008770100080000000000
:100080007701000800000000000000007701000870
:1000900000000000770100087701000877010008E0
:1000A0007701000877010008770100087701000850
:1000B00077010008000000000000000000000000C0
:1000C00000F002F800F03EF80CA030C80838241800
:1000D0002D18671EA246AB4654465D46AC4201D180
:1000E00000F030F87E460F3EB6460FCC0126334274
:1000F00000D0FB1A3343A246AB461847F014000069
:1001000010150000103A02D378C878C1FAD8520707
:1001100001D330C830C101D504680C6070470000BD
:100120000023002400250026103A01D378C1FBD813
:10013000520700D330C100D50B6070471FB51FBDFB
:1001400010B510BD00F046F81146FFF7F7FF01F0BB
:10015000AFF800F05EF803B4FFF7F2FF03BC01F064
:1001600095F800000748804707480047FEE7FEE78C
:10017000FEE7FEE7FEE7FEE704480549054A064BB1
:1001800070470000130F0008C10000086001002044
:10019000600700206003002060030020704700001B
:1001A00010B5044603E001F073F8401C08D0207835
:1001B0000549641C0028F6D10A2001F069F810BD39
:1001C0000020C04310BD0000700000207047704741
:1001D00070477047754600F025F8AE460500694641
:1001E0005346C008C000854618B020B5FFF7C4FFCD
:1001F00060BCB64600260027C0C5C0C5C0C5C0C586
:10020000C0C5C0C5C0C5C0C5403D490849008D46F0
:10021000704710B50446C046C0462046FFF79BFF16
:1002200010BD00000048704710000020EFF3108060
:1002300072B6FEE7B0B5044600F0E6F80546601C6D
:1002400002D092480078041900F0DEF8401BA0426A
:10025000FAD3B0BDF0B58AB00A68002A00D1BEE07A
:100260000E466049884201D0052100E0032100913B
:100270000027089709973C46029601900FE01A4321
:100280002A60641C32681146E140BF1C089B1B1D9C
:100290000893099B08330993002900D19FE00125A9
:1002A0000495A5402A400792EBD003231846B84096
:1002B000C043394677683A461A40561E012E0697C3
:1002C000059112D806460390019883683340029E38
:1002D000F6688E401E438660FB06DB0FA34046682F
:1002E000AE431E434660039908E0032A0146019885
:1002F00004D11A46029E069D059F1DE0C3680B406F
:10030000029EB568059FBD401D43C560022A069D3B
:1003100012D103911C21089A11400F228A40E30850
:100320009B00C3181D6A954332698A4003992A438A
:100330001A62756803222A40BA4003680B401343CF
:100340000360A903890F9CD01821099A11400F233B
:100350008B40032225469543234A5219156E9D432F
:10036000603205231B0798420AD0214B984205D0E2
:10037000204B9842009B04D1022302E0049B00E042
:1003800000238B402B431360174D2A687168CB0202
:1003900008D5079B1A432A606A688B0208D4079B1A
:1003A0009A4307E0079B9A432A606A688B02F6D556
:1003B000079B1A436A600D4D6A688B0306D5079B3D
:1003C0001A436A602A68C90307D558E7079B9A430E
:1003D0006A602A68C90300D551E79A4350E70AB01A
:1003E000F0BDC046000C00500018024080180240CA
:1003F0000004005000080050002A02D0182281504A
:100400007047282281507047054800687047C046F1
:100410001E48007802490A68101808607047C046F4
:100420005801002010B501242002CB490A6802437C
:100430000A60032000F00AF8002801D0204610BD11
:1004400000F026F80024204610BDC04670B50F4EBF
:1004500031780124002916D005467D20C00000F027
:100460008DFF0146C748006800F088FF00F0E0FB00
:10047000032D08D8002806D10024E043294622464F
:1004800000F01CF87560204670BDC04604000020D6
:1004900082B009484168012211434160416811401E
:1004A00001910199110702680A430260006808403F
:1004B0000090009802B070473C100240002805D41C
:1004C0000322034693430A4A9A1803E00C2202408F
:1004D000064BD2188007C00E8901C9B28140FF23A4
:1004E00083401068984308431060704714ED00E0A3
:1004F00000E400E0F0B581B0032569021A4E3246EF
:10050000143A13688B4303431360012461020022F1
:10051000884226D19B4801683068400521D5009269
:10052000A70206204843114900F028FF201A02289C
:1005300016D0316839420FD0012811D031683942C4
:100540000AD000280CD03168394205D0001D03289C
:1005500006D031683942EAD1009A104601B0F0BDA8
:100560002A46104601B0F0BD1470004040420F0012
:10057000F0B583B00D46012100281BD001910290F7
:100580007548006807242040A84216D272490868BE
:10059000A04328430860714EFFF736FF07466E48B8
:1005A00000682040A84208D0FFF72EFFC01BB042D1
:1005B000F5D90321084603B0F0BD029E30688107DB
:1005C000914B0CD5410703D521031A680A431A60E1
:1005D0000F2109021A688A43B16811431960C007E4
:1005E0001BD15D4800682040A8422CD95A490868B0
:1005F000A04328430860594FFFF706FF06465648B8
:1006000000682040A8421ED0FFF7FEFE801BB842C3
:10061000F5D90321084603B0F0BD029840680328CD
:100620005DD8810001A251588F46C0463D060008A2
:10063000E3060008ED060008F70600081946083929
:100640000968490559E0029A107840076E4B05D5B4
:10065000200319688143D068084318601868800631
:10066000400F22D01A6838210A406848082A23D04F
:100670001A680A40102A5ED1596803220A40032AE8
:1006800000D0634859684906490F491C00F076FEBE
:100690005D4949684904490E48435B494968490F27
:1006A000491C00F06BFE584B06E0184608380068FD
:1006B0008004410F5648C840196889093C220A4005
:1006C000274989581F220A40D0402E4908602548F2
:1006D0000068FFF7BBFE0146084603B0F0BD596D48
:1006E0000AE0194608390968890306E019460839FD
:1006F0000968890101E0996D8907019900D459E7DA
:100700001968A14301431960144FFFF77DFE0646A7
:100710003D4800683821014002984068C00081428D
:1007200000D15EE7FFF770FE801BB842F0D90321CD
:10073000084603B0F0BD18680840202802D1012007
:10074000C003B9E718680840182801D00020B3E7B3
:100750007D200002B0E7C046002002408813000060
:10076000741500080800002006480068264909683A
:10077000890A1C220A40044989581F220A40D04095
:100780007047C0460C000020B415000810B51E4C80
:1007900020688006400F06D0226838210A401B4896
:1007A000082A07D110BD083C20688004410F184872
:1007B000C84010BD22680A40102A15D16168032282
:1007C0000A40032A00D0124861684906490F491CB3
:1007D00000F0D4FD61684904490E48436168490F3F
:1007E000491C00F0CBFD10BD20680840202802D134
:1007F0000120C00310BD20680840182801D0002047
:1008000010BD7D20000210BD0810024000127A00C9
:100810000024F400F0B587B00125002800D1ECE1F8
:10082000049505900078C007F94F2AD0B868F96898
:1008300003252A468A433821014010204840821867
:1008400050425041082914D0002812D1059842681E
:10085000012001048A4208D005231B049A4200D0DB
:10086000DAE082043B6813433B603A680A433A602B
:10087000DBE03868800304D505984068002800D183
:1008800073E105980078800723D405980078000765
:100890000CD5B86838210140182971D1386E80070D
:1008A00004D505988069002800D15EE1059A10788A
:1008B000400700D42EE1B86838210140202974D1C6
:1008C000F86D800700D425E19068002800D021E170
:1008D0004BE1B9683820084010214140FA680325EF
:1008E0002A4002235340CA1851425141002820D0C7
:1008F00000291ED13868059AD168002900D1A2E0EC
:100900000721C902884311690143396001200102AE
:100910003A680A433A608402FFF776FD0646386873
:10092000204200D0A1E0FFF76FFD801B0228F6D91E
:1009300063E139684905059B03D5D968002900D1D1
:1009400013E17F2109027A688A4359690902114338
:10095000796000280DD10720C002396881431869E9
:100960000843386038688004400FAA49C140AA484B
:100970000160AA480068FFF769FD002885D0F4E00F
:10098000386E05998969002979D0012108433866B4
:10099000FFF73AFD0646386E800787D4FFF734FD2F
:1009A000801B03250228F6D927E1012003900107C7
:1009B000F86B0840029006D1F86B0843F863F86BB7
:1009C000084006900698019195480068C00513D428
:1009D000039804029249086820430860FFF714FD59
:1009E00006468F480068204206D1FFF70DFD801BA8
:1009F00003250228F5D900E105988068894C012873
:100A000005D005285AD1F86D04210143F965F86D28
:100A100003990843F8655BE03B688B433B608104C6
:100A20003B688B433B60002A3AD04404FFF7ECFC60
:100A300006463868204200D023E7FFF7E5FC801B1C
:100A40006428F6D9D9E001210A02904338608C026B
:100A5000FFF7DAFC06463868204200D115E7FFF7B9
:100A6000D3FC801B0228F6D9C7E07F2000027968FA
:100A700081430598406900020843786005E7012139
:100A800088433866FFF7C0FC0646386E800700D4FE
:100A90000CE7FFF7B9FC801B03250228F5D9ACE071
:100AA0004404FFF7B1FC06463868204200D1E8E66E
:100AB000FFF7AAFC801B6428F6D99EE0F96D039A23
:100AC0009143F965F96D04229143F96500280CD032
:100AD000FFF79AFC0646F86D800713D4FFF794FCE5
:100AE000801B0325A042F6D987E0FFF78DFC064660
:100AF000F86D800706D5FFF787FC801B0325A04211
:100B0000F6D97AE002980028059A03D1F86B01998A
:100B10008843F863D469002C76D0B8683821014046
:100B2000102926D1012C20D0F86803210140059B13
:100B30001A6A914219D1702101405A6A914214D126
:100B40007F21090201409A6A120291420DD11F21B0
:100B500049040140DA6A9142049D4ED107214907B8
:100B60000840196B884248D14EE0049D284607B0E2
:100B7000F0BD012529063868049188433860FFF7E5
:100B800043FC0646022C0BD103956C0638682042C4
:100B900011D0FFF739FC801B03250228F6D92CE081
:100BA0006C06386820422BD0FFF72EFC801B0325F3
:100BB0000228F6D921E0F8681C490140059E20363C
:100BC0006DCE084310431902014329433143F960B4
:100BD000386804990843386003980007F9680143AE
:100BE000F960FFF711FC0646386820420CD1FFF788
:100BF0000BFC801B03250228F6D9284607B0F0BD60
:100C0000F86809490140F9600025284607B0F0BDA1
:100C1000001002400024F4000C0000200800002016
:100C20000070004088130000FCFFFEEF8C80C11FA5
:100C3000401E010E01D0012070470749074A50604D
:100C4000074803680B4003218907591801600020F9
:100C50009060072111607047FFFFFF0010E000E087
:100C600020ED00E0F0B583B0002841D004460746EF
:100C700084377868002804D100203870204600F0BE
:100C800059F824207860206801680125A943016093
:100C9000204600F0A9F9012827D0A06A002802D038
:100CA000204600F037F90920C00221684A688243D3
:100CB0004A6088682A229043886008680126304389
:100CC00008600025FD60FFF79FFB03462068016870
:100CD000090713D51648009071050022204602939B
:100CE00000F038FA002807D00325284603B0F0BDED
:100CF0000125284603B0F0BD2068029B006840072C
:100D00000CD50B480090B1050022204600F022FAD5
:100D1000002803D00325284603B0F0BD20207860CA
:100D2000B860E5663D702567284603B0F0BDC04653
:100D3000FFFFFF0180B586B00068FB49884201D003
:100D400006B080BD60488268012105914B041A43BA
:100D5000826082681A400092009A02680A43026028
:100D60000068084000900020049003900220029048
:100D70000C20019005200007009901A9FFF76AFAED
:100D800006B080BDF0B585B0074604465434606BAC
:100D9000202812D1012600290CD01546002A09D09E
:100DA00001263203B86890420BD1C80709D03869D0
:100DB000002806D1304605B0F0BD0226304605B009
:100DC000F0BD019103930026E66321206063029247
:100DD000FFF71AFB049065802580B8680299884265
:100DE00002D13869002802D00296019E02E0002656
:100DF0000198029003990CE0029A10881849084063
:100E000039688862921C02922E4603996088401EBF
:100E100060806088002810D000918021002538462D
:100E20002A46049B00F096F9002810D1002EE3D04A
:100E3000307839688862761CE7E700914021002607
:100E400038463246049B00F085F9002803D003267B
:100E5000304605B0F0BD20206063304605B0F0BDDF
:100E6000FF010000FEE7000070B586B00024059485
:100E70001548016801252943016001682940009156
:100E8000009901680222114301600068104000903F
:100E900000980E4E304629462246FFF7ADFA0494DC
:100EA00003940295019501AD30462946FFF7D2F92A
:100EB000039402940320C0020190052000072946F4
:100EC000FFF7C8F906B070BD3410024000040050AE
:100ED00010B5F54800210C22934B016241628162FA
:100EE000E124640218C0016041608160C260016158
:100EF00041610838FFF7B6FE002801D0FFF796F9E8
:100F000010BDC046FEE77047704780B5FFF780FA16
:100F100080BD7047B0B5816ACA070CD18A0714D466
:100F20004A071CD40A0724D4CA062CD48A0634D40F
:100F30004A063CD44CE00122520403685C689443A6
:100F4000C26A22435A608A07EAD501221204036862
:100F50005C689443026B22435A604A07E2D501223F
:100F6000920403685C689443426B22435A600A0708
:100F7000DAD50122D20303685C689443826B224372
:100F80005A60CA06D2D50122120303689C689443B2
:100F9000C26B22439A608A06CAD5012252030368B3
:100FA0009C689443026C22439A604A0610D5012241
:100FB0001305026854689C43456C2C4354609D4261
:100FC00006D103235B0554689C43836C2343536021
:100FD000090607D50121C904026853688B43C06C18
:100FE00018435060B0BD0000F0B581B00446006801
:100FF00001684B4A0A40A16823690B4361691943A0
:101000001143E269114301600321090343688B43E3
:10101000E16819434160A169236A0B438168414D2E
:101020000D401D438560C36A0F218B43616A0B43EA
:10103000C3623D4B984209D03C4B984208D13C4892
:1010400000688007000F3BA31F5802E0002700E064
:101050001027264668360125EB033A489A4210D1FC
:10106000082F55D87F443F797F00BF440451235156
:101070001C5151512200FFF777FB002817D0616AFD
:1010800018E0082F44D8C0467F443F797F00BF4412
:10109000043F2D3F263F3F3F2C00FFF765FB002814
:1010A00021D0616A22E0FFF771FB0028E7D100251B
:1010B0002EE018464900244A515A00F05FF94000DA
:1010C00061684A08101800F059F90246103A1F49A1
:1010D0008A421DD201400007400F084315E0FFF788
:1010E00055FB0028DDD1002512E018464900164ABC
:1010F000515A00F043F961684A08101800F03EF9AF
:1011000001461039114A914202D22168C860002577
:101110000F48306000206067A067284601B0F0BD2E
:10112000F369FFCFFFF4FF11004400400038014095
:101130005410024000000000040000000200000003
:10114000080000000024F400D4150008F0FF00009F
:1011500001000100F0B587B015460E460446076849
:10116000F9693140891B4A424A410020AA4224D1F0
:1011700006930494224684320C9C002C1FD0611CE0
:1011800044D1F9693140891B4A424A41AA4214D1EB
:10119000F9693140891B4A424A41AA420DD1F96995
:1011A0003140891B4A424A41AA4206D1F96931407D
:1011B000891B4A424A41AA42E3D007B0F0BD0392DC
:1011C000FFF722F9049FEFF31081012080F31088CC
:1011D0000D2252013B681C6894431C6081F3108807
:1011E000EFF3108180F310883A689368834393602B
:1011F00081F310882020039A5060104608300021A7
:10120000117020210160032007B0F0BD039202900D
:1012100001200190C0020590049F06E0C0693040A3
:10122000801B41424141A9422DD1FFF7EDF80699BB
:10123000401AA042C7D8386801684907EED5C1698D
:10124000059A1142EAD005990162EFF31080019CE2
:1012500084F310880D2149013A6813688B431360A9
:1012600080F31088EFF3108084F3108839688A685F
:10127000A2438A6080F310882020039A5060906017
:1012800010460C30BBE7029807B0F0BD7047000075
:1012900080B582B00190044801A90122034BFFF7F9
:1012A00071FD019802B080BDC4000020FFFFFF0067
:1012B00092B0FFF7B7F800260B960A9609960896A3
:1012C0000796069601246002FFF714F96007119053
:1012D0006004109008200F900E9602250D950C9535
:1012E00040200A9009967D2084002046F43808901A
:1012F000059505A8FFF78EFA002803D0EFF31080BC
:1013000072B6FEE70496039607200190029501A8A5
:101310002946FFF72DF9002803D0EFF3108072B6AD
:10132000FEE7FFF7A1FDFFF7D3FD0D4D10A7012646
:10133000002228463146FFF75FF80AA0FEF730FF8B
:101340002046FEF777FF284631463246FFF754F82D
:101350003846FEF725FF2046FEF76CFFE7E7C0465C
:10136000000400504C45443A204F4E0D0000000050
:101370004C45443A204F46460D00000043088B423E
:101380001AD3002203098B4279D3030A8B425ED31E
:10139000030B8B4242D3030C8B4227D30902FF225B
:1013A00012BA030C8B4202D31212090203D0030BB0
:1013B0008B4233D31AE0D3E0411A8041401C70477E
:1013C00003460B4371D443088B42F5D30022030933
:1013D0008B4254D3030A8B4239D3030B8B421DD368
:1013E000030C8B4202D394466EE0090AC30B8B4276
:1013F00001D3CB03C01A5241830B8B4201D38B0321
:10140000C01A5241430B8B4201D34B03C01A5241C5
:10141000030B8B4201D30B03C01A5241C30A8B4208
:1014200001D3CB02C01A5241830A8B4201D38B02F3
:10143000C01A5241430A8B4201D34B02C01A524197
:10144000030A8B4201D30B02C01A5241CDD2C30909
:101450008B4201D3CB01C01A524183098B4201D385
:101460008B01C01A524143098B4201D34B01C01A70
:10147000524103098B4201D30B01C01A5241C308E8
:101480008B4201D3CB00C01A524183088B4201D357
:101490008B00C01A524143088B4201D34B00C01A43
:1014A0005241411A524110007047CA0F00D04942C0
:1014B000031000D34042534000229C4603098B4254
:1014C0002DD3030A8B4212D38901FC2212BA030ADC
:1014D0008B420CD3890192118B4208D3890192115E
:1014E0008B4204D3890137D0921100E08909C309E6
:1014F0008B4201D3CB01C01A524183098B4201D3E5
:101500008B01C01A524143098B4201D34B01C01ACF
:10151000524103098B4201D30B01C01A5241C30847
:101520008B4201D3CB00C01A524183088B4201D3B6
:101530008B00C01A5241D9D243088B4201D34B00D1
:10154000C01A5241411A00D2014652411046634628
:101550005B1000D34042704763465B1000D34042AB
:1015600001B50021004201D0C9430846C046C0462B
:1015700002BD0000000000000000000000000000AC
:10158000000000000000000000000000000000005B
:101590000000000001000000020000000300000045
:1015A0000400000006000000070000000800000022
:1015B0000900000000000000000000000000000022
:1015C0000000000001000000020000000300000015
:1015D00004000000010002000400060008000A00E8
:1015E0000C001000200040008000000110160008D0
:1015F0000000002010000000040100082016000870
:10160000100000205007000020010008000000002A
:101610000100000001000000040000000024F400AC
:04000005080000C12E
:00000001FF
