:020000040800F2
:100000007007002065010008890F0008A10E000894
:1000100000000000000000000000000000000000E0
:100020000000000000000000000000008D0F00082C
:1000300000000000000000008B0F00088F0F000878
:100040007701000800000000770100087701000830
:1000500077010008770100087701000877010008A0
:100060000000000077010008770100087701000810
:100070007701000877010008770100080000000000
:100080007701000800000000000000007701000870
:1000900000000000770100087701000877010008E0
:1000A0007701000877010008770100087701000850
:1000B00077010008000000000000000000000000C0
:1000C00000F002F800F03EF80CA030C80838241800
:1000D0002D18671EA246AB4654465D46AC4201D180
:1000E00000F030F87E460F3EB6460FCC0126334274
:1000F00000D0FB1A3343A246AB4618473015000028
:1001000050150000103A02D378C878C1FAD85207C7
:1001100001D330C830C101D504680C6070470000BD
:100120000023002400250026103A01D378C1FBD813
:10013000520700D330C100D50B6070471FB51FBDFB
:1001400010B510BD00F02FF81146FFF7F7FF01F0D2
:10015000E1F800F047F803B4FFF7F2FF03BC01F049
:10016000D7F800000748804707480047FEE7FEE74A
:10017000FEE7FEE7FEE7FEE704480549054A064BB1
:1001800070470000970F0008C100000870010020B0
:100190007007002070030020700300207047704734
:1001A000704770477047754600F024F8AE4605006A
:1001B00069465346C008C000854618B020B5FFF711
:1001C000DBFF60BCB64600260027C0C5C0C5C0C561
:1001D000C0C5C0C5C0C5C0C5C0C5403D490849006F
:1001E0008D46704710B50446C046C0462046FFF70E
:1001F000B2FF10BD0048704710000020EFF31080E0
:1002000072B6FEE7B0B5044600F0E6F80546601C9D
:1002100002D092480078041900F0DEF8401BA0429A
:10022000FAD3B0BDF0B58AB00A68002A00D1BEE0AA
:100230000E466049884201D0052100E0032100916B
:100240000027089709973C46029601900FE01A4351
:100250002A60641C32681146E140BF1C089B1B1DCC
:100260000893099B08330993002900D19FE00125D9
:100270000495A5402A400792EBD003231846B840C6
:10028000C043394677683A461A40561E012E0697F3
:10029000059112D806460390019883683340029E68
:1002A000F6688E401E438660FB06DB0FA34046685F
:1002B000AE431E434660039908E0032A01460198B5
:1002C00004D11A46029E069D059F1DE0C3680B409F
:1002D000029EB568059FBD401D43C560022A069D6C
:1002E00012D103911C21089A11400F228A40E30881
:1002F0009B00C3181D6A954332698A4003992A43BB
:100300001A62756803222A40BA4003680B401343FF
:100310000360A903890F9CD01821099A11400F236B
:100320008B40032225469543234A5219156E9D435F
:10033000603205231B0798420AD0214B984205D012
:10034000204B9842009B04D1022302E0049B00E072
:1003500000238B402B431360174D2A687168CB0232
:1003600008D5079B1A432A606A688B0208D4079B4A
:100370009A4307E0079B9A432A606A688B02F6D586
:10038000079B1A436A600D4D6A688B0306D5079B6D
:100390001A436A602A68C90307D558E7079B9A433E
:1003A0006A602A68C90300D551E79A4350E70AB04A
:1003B000F0BDC046000C00500018024080180240FA
:1003C0000004005000080050002A02D0182281507A
:1003D0007047282281507047054800687047C04622
:1003E0001E48007802490A68101808607047C04625
:1003F0006801002010B501242002CB490A6802439D
:100400000A60032000F00AF8002801D0204610BD41
:1004100000F026F80024204610BDC04670B50F4EEF
:1004200031780124002916D005467D20C00000F057
:10043000C5FF0146C748006800F0C0FF00F086FC19
:10044000032D08D8002806D10024E043294622467F
:1004500000F01CF87560204670BDC0460400002006
:1004600082B009484168012211434160416811404E
:1004700001910199110702680A430260006808406F
:100480000090009802B070473C100240002805D44C
:100490000322034693430A4A9A1803E00C220240BF
:1004A000064BD2188007C00E8901C9B28140FF23D4
:1004B00083401068984308431060704714ED00E0D3
:1004C00000E400E0F0B581B0032569021A4E32461F
:1004D000143A13688B430343136001246102002222
:1004E000884226D19B4801683068400521D500929A
:1004F000A70206204843114900F060FF201A022895
:1005000016D0316839420FD0012811D031683942F4
:100510000AD000280CD03168394205D0001D0328CC
:1005200006D031683942EAD1009A104601B0F0BDD8
:100530002A46104601B0F0BD1470004040420F0042
:10054000F0B583B00D46012100281BD00191029027
:100550007548006807242040A84216D272490868EE
:10056000A04328430860714EFFF736FF07466E48E8
:1005700000682040A84208D0FFF72EFFC01BB04201
:10058000F5D90321084603B0F0BD029E306881070B
:10059000914B0CD5410703D521031A680A431A6011
:1005A0000F2109021A688A43B16811431960C00714
:1005B0001BD15D4800682040A8422CD95A490868E0
:1005C000A04328430860594FFFF706FF06465648E8
:1005D00000682040A8421ED0FFF7FEFE801BB842F4
:1005E000F5D90321084603B0F0BD029840680328FE
:1005F0005DD8810001A251588F46C0460D06000803
:10060000B3060008BD060008C706000819460839E9
:100610000968490559E0029A107840076E4B05D5E4
:10062000200319688143D068084318601868800661
:10063000400F22D01A6838210A406848082A23D07F
:100640001A680A40102A5ED1596803220A40032A18
:1006500000D0634859684906490F491C00F0AEFEB6
:100660005D4949684904490E48435B494968490F57
:10067000491C00F0A3FE584B06E0184608380068F5
:100680008004410F5648C840196889093C220A4035
:10069000274989581F220A40D0402E490860254822
:1006A0000068FFF7BBFE0146084603B0F0BD596D78
:1006B0000AE0194608390968890306E0194608392D
:1006C0000968890101E0996D8907019900D459E70A
:1006D0001968A14301431960144FFFF77DFE0646D8
:1006E0003D4800683821014002984068C0008142BE
:1006F00000D15EE7FFF770FE801BB842F0D90321FE
:10070000084603B0F0BD18680840202802D1012037
:10071000C003B9E718680840182801D00020B3E7E3
:100720007D200002B0E7C046002002408813000090
:10073000B41500080800002006480068264909682A
:10074000890A1C220A40044989581F220A40D040C5
:100750007047C0460C000020F415000810B51E4C70
:1007600020688006400F06D0226838210A401B48C6
:10077000082A07D110BD083C20688004410F1848A2
:10078000C84010BD22680A40102A15D161680322B2
:100790000A40032A00D0124861684906490F491CE3
:1007A00000F00CFE61684904490E48436168490F36
:1007B000491C00F003FE10BD20680840202802D12B
:1007C0000120C00310BD20680840182801D0002077
:1007D00010BD7D20000210BD0810024000127A00FA
:1007E0000024F400F0B587B00125002800D1ECE129
:1007F000049505900078C007F94F2AD0B868F968C9
:1008000003252A468A433821014010204840821897
:1008100050425041082914D0002812D1059842684E
:10082000012001048A4208D005231B049A4200D00B
:10083000DAE082043B6813433B603A680A433A605B
:10084000DBE03868800304D505984068002800D1B3
:1008500073E105980078800723D405980078000795
:100860000CD5B86838210140182971D1386E80073D
:1008700004D505988069002800D15EE1059A1078BA
:10088000400700D42EE1B86838210140202974D1F6
:10089000F86D800700D425E19068002800D021E1A0
:1008A0004BE1B9683820084010214140FA6803251F
:1008B0002A4002235340CA1851425141002820D0F7
:1008C00000291ED13868059AD168002900D1A2E01C
:1008D0000721C902884311690143396001200102DF
:1008E0003A680A433A608402FFF776FD06463868A4
:1008F000204200D0A1E0FFF76FFD801B0228F6D94F
:1009000063E139684905059B03D5D968002900D101
:1009100013E17F2109027A688A4359690902114368
:10092000796000280DD10720C00239688143186919
:100930000843386038688004400FAA49C140AA487B
:100940000160AA480068FFF769FD002885D0F4E03F
:10095000386E05998969002979D0012108433866E4
:10096000FFF73AFD0646386E800787D4FFF734FD5F
:10097000801B03250228F6D927E1012003900107F7
:10098000F86B0840029006D1F86B0843F863F86BE7
:10099000084006900698019195480068C00513D458
:1009A000039804029249086820430860FFF714FD89
:1009B00006468F480068204206D1FFF70DFD801BD8
:1009C00003250228F5D900E105988068894C0128A3
:1009D00005D005285AD1F86D04210143F965F86D59
:1009E00003990843F8655BE03B688B433B608104F7
:1009F0003B688B433B60002A3AD04404FFF7ECFC91
:100A000006463868204200D023E7FFF7E5FC801B4C
:100A10006428F6D9D9E001210A02904338608C029B
:100A2000FFF7DAFC06463868204200D115E7FFF7E9
:100A3000D3FC801B0228F6D9C7E07F20000279682A
:100A400081430598406900020843786005E7012169
:100A500088433866FFF7C0FC0646386E800700D42E
:100A60000CE7FFF7B9FC801B03250228F5D9ACE0A1
:100A70004404FFF7B1FC06463868204200D1E8E69E
:100A8000FFF7AAFC801B6428F6D99EE0F96D039A53
:100A90009143F965F96D04229143F96500280CD062
:100AA000FFF79AFC0646F86D800713D4FFF794FC15
:100AB000801B0325A042F6D987E0FFF78DFC064690
:100AC000F86D800706D5FFF787FC801B0325A04241
:100AD000F6D97AE002980028059A03D1F86B0199BB
:100AE0008843F863D469002C76D0B8683821014077
:100AF000102926D1012C20D0F86803210140059B44
:100B00001A6A914219D1702101405A6A914214D156
:100B10007F21090201409A6A120291420DD11F21E0
:100B200049040140DA6A9142049D4ED107214907E8
:100B30000840196B884248D14EE0049D284607B012
:100B4000F0BD012529063868049188433860FFF715
:100B500043FC0646022C0BD103956C0638682042F4
:100B600011D0FFF739FC801B03250228F6D92CE0B1
:100B70006C06386820422BD0FFF72EFC801B032523
:100B80000228F6D921E0F8681C490140059E20366C
:100B90006DCE084310431902014329433143F960E4
:100BA000386804990843386003980007F9680143DE
:100BB000F960FFF711FC0646386820420CD1FFF7B8
:100BC0000BFC801B03250228F6D9284607B0F0BD90
:100BD000F86809490140F9600025284607B0F0BDD2
:100BE000001002400024F4000C0000200800002047
:100BF0000070004088130000FCFFFEEF8C80C11FD6
:100C0000F0B585B000280CD0044605465C3541207F
:100C10008600606A002807D000202061204614303A
:100C200007E0012005B0F0BD6068B04203D0204667
:100C30001C30002101600027A7626878002804D1D9
:100C400000202870204600F059F8022004950190F9
:100C50006870206801684022914303900160E16858
:100C6000254A012591422A4600D33A461203ED0255
:100C70000D430F2738020290854201D00025A5625E
:100C80006568A768354021239B023B405B192569B5
:100C9000019805401D436069012318402843FC3634
:100CA000A7693E400643E069382505403543206A80
:100CB000802606402E435803A56A05403543039E0F
:100CC0003560380C04250540029801400A432A4348
:100CD000606A102101401143606B082202400A4300
:100CE0007260D802F1698143F161002020660499A5
:100CF0004B7005B0F0BDC0460107000080B586B05E
:100D000000689249884201D006B080BD01200103ED
:100D10007B4AD3680B43D360D3680B40019301999E
:100D20001168014311601168014000910020059095
:100D30000490039002200290F0200190052000070B
:100D4000009901A9FFF76EFA06B080BD401E010EA2
:100D500001D0012070470749074A506007480368DF
:100D60000B4003218907591801600020906007217A
:100D700011607047FFFFFF0010E000E020ED00E091
:100D8000F0B583B0002841D0044607468437786820
:100D9000002804D100203870204600F059F82420A3
:100DA0007860206801680125A9430160204600F0B1
:100DB0005DF9012827D0A06A002802D0204600F063
:100DC000EBF80920C00221684A6882434A608868BB
:100DD0002A22904388600868012630430860002575
:100DE000FD60FFF7F9FA034620680168090713D58B
:100DF00016480090710500222046029300F0ECF99D
:100E0000002807D00325284603B0F0BD0125284659
:100E100003B0F0BD2068029B006840070CD50B486A
:100E20000090B1050022204600F0D6F9002803D03A
:100E30000325284603B0F0BD20207860B860E56641
:100E40003D702567284603B0F0BDC046FFFFFF0197
:100E500080B586B00068D549884201D006B080BD13
:100E600027488268012105914B041A4382608268F9
:100E70001A400092009A02680A4302600068084023
:100E80000090002004900390022002900C2001901A
:100E900005200007009901A9FFF7C4F906B080BD3D
:100EA000FEE7000070B586B000260596144801687C
:100EB000042211430160016811400091009901680A
:100EC00001242143016001682140009100990168DB
:100ED0000222114301600068104000900098094D03
:100EE000284621462246FFF76FFA0496039602949D
:100EF000019401A92846FFF795F906B070BDC046D8
:100F00003410024000040050B0B50F4800210F4AD1
:100F100008230724016241628162C4620163436362
:100F200001239B0424024125AD0024C001604460DC
:100F30008160C160036141610838FFF761FE0028EC
:100F400001D0FFF75BF9B0BD700000200030014018
:100F500010B50C4800210C22944B01624162816261
:100F6000E124640218C0016041608160C2600161D7
:100F700041610838FFF704FF002801D0FFF73EF970
:100F800010BDC046D4000020FEE77047704780B512
:100F9000FFF726FA80BD7047B0B5816ACA070CD149
:100FA0008A0714D44A071CD40A0724D4CA062CD4AE
:100FB0008A0634D44A063CD44CE001225204036829
:100FC0005C689443C26A22435A608A07EAD50122C8
:100FD000120403685C689443026B22435A604A0718
:100FE000E2D50122920403685C689443426B224379
:100FF0005A600A07DAD50122D20303685C68944379
:10100000826B22435A60CA06D2D5012212030368BA
:101010009C689443C26B22439A608A06CAD5012217
:10102000520303689C689443026C22439A604A0608
:1010300010D501221305026854689C43456C2C436B
:1010400054609D4206D103235B0554689C43836C26
:1010500023435360090607D50121C9040268536878
:101060008B43C06C18435060B0BD0000F0B581B038
:101070000446006801684B4A0A40A16823690B4393
:10108000616919431143E2691143016003210903B6
:1010900043688B43E16819434160A169236A0B43AC
:1010A0008168414D0D401D438560C36A0F218B430C
:1010B000616A0B43C3623D4B984209D03C4B984256
:1010C00008D13C4800688007000F3BA31F5802E08E
:1010D000002700E01027264668360125EB033A4832
:1010E0009A4210D1082F55D87F443F797F00BF44E2
:1010F000045123511C5151512200FFF71DFB0028C0
:1011000017D0616A18E0082F44D8C0467F443F7961
:101110007F00BF44043F2D3F263F3F3F2C00FFF799
:101120000BFB002821D0616A22E0FFF717FB0028A3
:10113000E7D100252EE018464900244A515A00F014
:101140003DF9400061684A08101800F037F902467E
:10115000103A1F498A421DD201400007400F084340
:1011600015E0FFF7FBFA0028DDD1002512E0184654
:101170004900164A515A00F021F961684A081018CE
:1011800000F01CF901461039114A914202D221683F
:10119000C86000250F48306000206067A0672846BF
:1011A00001B0F0BDF369FFCFFFF4FF110044004030
:1011B000003801405410024000000000040000000C
:1011C00002000000080000000024F40014160008CB
:1011D000F0FF000001000100F0B587B015460E4693
:1011E00004460768F9693140891B4A424A41002098
:1011F000AA4224D106930494224684320C9C002CEB
:101200001FD0611C44D1F9693140891B4A424A41CF
:10121000AA4214D1F9693140891B4A424A41AA4283
:101220000DD1F9693140891B4A424A41AA4206D18F
:10123000F9693140891B4A424A41AA42E3D007B0CA
:10124000F0BD0392FFF7C8F8049FEFF3108101206F
:1012500080F310880D2252013B681C6894431C6087
:1012600081F31088EFF3108180F310883A68936857
:101270008343936081F310882020039A50601046C6
:1012800008300021117020210160032007B0F0BD5B
:101290000392029001200190C0020590049F06E095
:1012A000C0693040801B41424141A9422DD1FFF726
:1012B00093F80699401AA042C7D8386801684907D0
:1012C000EED5C169059A1142EAD005990162EFF3A2
:1012D0001080019C84F310880D2149013A6813683D
:1012E0008B43136080F31088EFF3108084F3108831
:1012F00039688A68A2438A6080F310882020039AA4
:101300005060906010460C30BBE7029807B0F0BD0B
:101310007047000092B0FFF76DF800260B960A9612
:10132000099608960796069601246002FFF7CAF808
:10133000600711906004109008200F900E9602250F
:101340000D950C9540200A9009967D20840020463A
:10135000F4380890059505A8FFF744FA002803D053
:10136000EFF3108072B6FEE7049603960720019013
:10137000029501A82946FFF7E3F8002803D0EFF310
:10138000108072B6FEE7FFF78DFDFFF7BDFDFFF79A
:10139000DFFD094D0126002228463146FFF714F8EB
:1013A0002046FEF72FFF284631463246FFF70CF85D
:1013B0002046FEF727FFEDE70004005043088B426C
:1013C0001AD3002203098B4279D3030A8B425ED3DE
:1013D000030B8B4242D3030C8B4227D30902FF221B
:1013E00012BA030C8B4202D31212090203D0030B70
:1013F0008B4233D31AE0D3E0411A8041401C70473E
:1014000003460B4371D443088B42F5D300220309F2
:101410008B4254D3030A8B4239D3030B8B421DD327
:10142000030C8B4202D394466EE0090AC30B8B4235
:1014300001D3CB03C01A5241830B8B4201D38B03E0
:10144000C01A5241430B8B4201D34B03C01A524185
:10145000030B8B4201D30B03C01A5241C30A8B42C8
:1014600001D3CB02C01A5241830A8B4201D38B02B3
:10147000C01A5241430A8B4201D34B02C01A524157
:10148000030A8B4201D30B02C01A5241CDD2C309C9
:101490008B4201D3CB01C01A524183098B4201D345
:1014A0008B01C01A524143098B4201D34B01C01A30
:1014B000524103098B4201D30B01C01A5241C308A8
:1014C0008B4201D3CB00C01A524183088B4201D317
:1014D0008B00C01A524143088B4201D34B00C01A03
:1014E0005241411A524110007047CA0F00D0494280
:1014F000031000D34042534000229C4603098B4214
:101500002DD3030A8B4212D38901FC2212BA030A9B
:101510008B420CD3890192118B4208D3890192111D
:101520008B4204D3890137D0921100E08909C309A5
:101530008B4201D3CB01C01A524183098B4201D3A4
:101540008B01C01A524143098B4201D34B01C01A8F
:10155000524103098B4201D30B01C01A5241C30807
:101560008B4201D3CB00C01A524183088B4201D376
:101570008B00C01A5241D9D243088B4201D34B0091
:10158000C01A5241411A00D20146524110466346E8
:101590005B1000D34042704763465B1000D340426B
:1015A00001B50021004201D0C9430846C046C046EB
:1015B00002BD00000000000000000000000000006C
:1015C000000000000000000000000000000000001B
:1015D0000000000001000000020000000300000005
:1015E00004000000060000000700000008000000E2
:1015F00009000000000000000000000000000000E2
:1016000000000000010000000200000003000000D4
:1016100004000000010002000400060008000A00A7
:101620000C0010002000400080000001501600084F
:1016300000000020100000000401000860160008EF
:1016400010000020600700002001000800000000DA
:101650000100000001000000040000000024F4006C
:04000005080000C12E
:00000001FF
