:020000040800F2
:10000000C807002075010008751900088918000844
:1000100000000000000000000000000000000000E0
:10002000000000000000000000000000A91B000804
:10003000000000000000000077190008AB1B00085A
:100040008701000800000000870100088701000800
:100050008701000887010008870100088701000860
:1000600000000000870100088701000887010008E0
:1000700087010008870100088701000800000000D0
:100080008701000800000000000000008701000850
:1000900000000000870100088701000887010008B0
:1000A0008701000887010008870100088701000810
:1000B00087010008000000000000000000000000B0
:1000C00000F002F800F046F80CA030C808382418F8
:1000D0002D18671EA246AB4654465D46AC4201D180
:1000E00000F038F87E460F3EB6460FCC012633426C
:1000F00000D0FB1A3343A246AB46184798220000B3
:10010000B8220000103A02D378C878C1FAD8520752
:1001100001D330C830C101D504680C6070470000BD
:100120000023002400250026103A01D378C1FBD813
:10013000520700D330C100D50B60704710B5782945
:1001400002D100F079F810BD002010BD1FB51FBD11
:1001500010B510BD00F028F91146FFF7F7FF01F0C8
:1001600067FF00F040F903B4FFF7F2FF03BC01F0B2
:100170004DFF00000748804707480047FEE7FEE7BD
:10018000FEE7FEE7FEE7FEE704480549054A064BA1
:1001900070470000B31B0008C1000008C801002020
:1001A000C8070020C8030020C803002070470000D3
:1001B0000FB4054910B503AA029800F0C5F810BCA9
:1001C00008BC04B01847000078000020F8B50E46BF
:1001D0000446002020622046E1688847002829D094
:1001E000252802D06268A16820E0E1682046002747
:1001F000884705001ED028464138192802D8012713
:10020000FF0220353246204627602946FFF796FF39
:10021000002808D0012804D0F61DF608F60008369C
:10022000D9E7361DD7E762682846A1689047206A5B
:10023000401CCFE7206AF8BD70B504460D46214644
:100240001068C046C0462188090502D50F4A7A4485
:1002500002E00E4A7A440E3223460021243305E0A0
:1002600006070009360F965D5E54491C0028F7D139
:1002700020780023000705D5702D03D0002901D078
:1002800002231132204600F007F870BDA0200000C4
:100290007047704770477047FFB504460D4681B000
:1002A000243000902168880604D51022E06991432B
:1002B000216000E00120A84201DD471B00E000278B
:1002C0000498A1697A191018081AA0612078C0064C
:1002D00002D42046C046C046002608E00398626863
:1002E000A168805D9047206A401C761C20620498BB
:1002F0008642F3DB2078C0060AD52046C046C046B9
:1003000006E06268A16830209047206A401C2062A5
:1003100038467F1E0028F4DC07E000986268A16878
:10032000405D9047206A401C206228466D1E0028D0
:10033000F3DC2046C046C0462078000602D50220E5
:1003400005B0F0BD0120FBE7084B70B50D467B44BE
:1003500000F013F80446284600F022F8002802D0E6
:100360000020C04370BD204670BD0000BF1C0000CF
:1003700001694A1C02610878704700B58FB002918C
:100380000021059105490193794403911146049098
:100390006846FFF71BFF0FB000BD0000E5FFFFFF41
:1003A000C068802108407047754600F025F8AE46C9
:1003B000050069465346C008C000854618B020B500
:1003C000FFF7E2FE60BCB64600260027C0C5C0C5E8
:1003D000C0C5C0C5C0C5C0C5C0C5C0C5403D490831
:1003E00049008D46704710B50446C046C0462046B9
:1003F000FFF7B9FE10BD000000487047180000204C
:10040000EFF3108072B6FEE7B0B5044600F0E6F8F0
:100410000546601C02D092480078041900F0DEF80E
:10042000401BA042FAD3B0BDF0B58AB00A68002ADA
:1004300000D1BEE00E466049884201D0052100E0AF
:10044000032100910027089709973C4602960190E6
:100450000FE01A432A60641C32681146E140BF1C59
:10046000089B1B1D0893099B08330993002900D1A1
:100470009FE001250495A5402A400792EBD0032375
:100480001846B840C043394677683A461A40561E67
:10049000012E0697059112D80646039001988368AD
:1004A0003340029EF6688E401E438660FB06DB0FDB
:1004B000A3404668AE431E434660039908E0032A02
:1004C0000146019804D11A46029E069D059F1DE033
:1004D000C3680B40029EB568059FBD401D43C560C3
:1004E000022A069D12D103911C21089A11400F2265
:1004F0008A40E3089B00C3181D6A954332698A400D
:1005000003992A431A62756803222A40BA40036895
:100510000B4013430360A903890F9CD01821099A4B
:1005200011400F238B40032225469543234A52193D
:10053000156E9D43603205231B0798420AD0214B5C
:10054000984205D0204B9842009B04D1022302E040
:10055000049B00E000238B402B431360174D2A6857
:100560007168CB0208D5079B1A432A606A688B0220
:1005700008D4079B9A4307E0079B9A432A606A685E
:100580008B02F6D5079B1A436A600D4D6A688B0390
:1005900006D5079B1A436A602A68C90307D558E73E
:1005A000079B9A436A602A68C90300D551E79A43BA
:1005B00050E70AB0F0BDC046000C005000180240E1
:1005C000801802400004005000080050002A02D0A9
:1005D00018228150704728228150704705480068D2
:1005E0007047C0461E48007802490A681018086023
:1005F0007047C046C401002010B501242002CB4939
:100600000A6802430A60032000F00AF8002801D0BB
:10061000204610BD00F026F80024204610BDC0463C
:1006200070B50F4E31780124002916D005467D2083
:10063000C00001F063FD0146C748006801F05EFD9F
:1006400001F008F8032D08D8002806D10024E04363
:100650002946224600F01CF87560204670BDC04651
:100660000400002082B00948416801221143416022
:100670004168114001910199110702680A43026023
:10068000006808400090009802B070473C1002409B
:10069000002805D40322034693430A4A9A1803E02C
:1006A0000C220240064BD2188007C00E8901C9B245
:1006B0008140FF23834010689843084310607047CF
:1006C00014ED00E000E400E0F0B581B0032569021C
:1006D0001A4E3246143A13688B43034313600124C5
:1006E00061020022884226D19B480168306840059B
:1006F00021D50092A70206204843114901F0FEFCD3
:10070000201A022816D0316839420FD0012811D0A2
:10071000316839420AD000280CD03168394205D0FE
:10072000001D032806D031683942EAD1009A1046EC
:1007300001B0F0BD2A46104601B0F0BD1470004073
:1007400040420F00F0B583B00D46012100281BD0B8
:10075000019102907548006807242040A84216D2F3
:1007600072490868A04328430860714EFFF736FFBE
:1007700007466E4800682040A84208D0FFF72EFFC9
:10078000C01BB042F5D90321084603B0F0BD029E5C
:1007900030688107914B0CD5410703D521031A68B6
:1007A0000A431A600F2109021A688A43B16811438B
:1007B0001960C0071BD15D4800682040A8422CD9B1
:1007C0005A490868A04328430860594FFFF706FFBD
:1007D0000646564800682040A8421ED0FFF7FEFE9D
:1007E000801BB842F5D90321084603B0F0BD02983A
:1007F000406803285DD8810001A251588F46C04649
:1008000011080008B7080008C1080008CB08000854
:10081000194608390968490559E0029A10784007D5
:100820006E4B05D5200319688143D06808431860D2
:1008300018688006400F22D01A6838210A4068489C
:10084000082A23D01A680A40102A5ED15968032268
:100850000A40032A00D0634859684906490F491CD9
:1008600001F04CFC5D4949684904490E48435B4925
:100870004968490F491C01F041FC584B06E01846F5
:10088000083800688004410F5648C8401968890933
:100890003C220A40274989581F220A40D0402E494D
:1008A000086025480068FFF7BBFE0146084603B014
:1008B000F0BD596D0AE0194608390968890306E058
:1008C000194608390968890101E0996D890701997C
:1008D00000D459E71968A14301431960144FFFF789
:1008E0007DFE06463D480068382101400298406878
:1008F000C000814200D15EE7FFF770FE801BB84266
:10090000F0D90321084603B0F0BD1868084020283C
:1009100002D10120C003B9E718680840182801D0A7
:100920000020B3E77D200002B0E7C046002002406F
:10093000881300001C2300080800002006480068F7
:1009400026490968890A1C220A40044989581F223D
:100950000A40D0407047C046140000205C230008C5
:1009600010B51E4C20688006400F06D02268382142
:100970000A401B48082A07D110BD083C20688004A3
:10098000410F1848C84010BD22680A40102A15D1EE
:10099000616803220A40032A00D0124861684906B0
:1009A000490F491C01F0AAFB61684904490E4843FC
:1009B0006168490F491C01F0A1FB10BD2068084087
:1009C000202802D10120C00310BD2068084018284B
:1009D00001D0002010BD7D20000210BD0810024093
:1009E00000127A000024F400F0B587B00125002839
:1009F00000D1ECE1049505900078C007F94F2AD0AA
:100A0000B868F96803252A468A4338210140102036
:100A10004840821850425041082914D0002812D171
:100A200005984268012001048A4208D005231B046E
:100A30009A4200D0DAE082043B6813433B603A6894
:100A40000A433A60DBE03868800304D505984068C3
:100A5000002800D173E105980078800723D4059819
:100A6000007800070CD5B86838210140182971D1E9
:100A7000386E800704D505988069002800D15EE1B2
:100A8000059A1078400700D42EE1B868382101405B
:100A9000202974D1F86D800700D425E190680028E2
:100AA00000D021E14BE1B9683820084010214140D5
:100AB000FA6803252A4002235340CA185142514183
:100AC000002820D000291ED13868059AD168002955
:100AD00000D1A2E00721C9028843116901433960AE
:100AE000012001023A680A433A608402FFF776FD6A
:100AF00006463868204200D0A1E0FFF76FFD801B5A
:100B00000228F6D963E139684905059B03D5D96800
:100B1000002900D113E17F2109027A688A435969CB
:100B200009021143796000280DD10720C0023968FD
:100B3000814318690843386038688004400FAA4927
:100B4000C140AA480160AA480068FFF769FD002873
:100B500085D0F4E0386E05998969002979D00121A2
:100B600008433866FFF73AFD0646386E800787D49B
:100B7000FFF734FD801B03250228F6D927E1012069
:100B800003900107F86B0840029006D1F86B084308
:100B9000F863F86B08400690069801919548006844
:100BA000C00513D4039804029249086820430860E2
:100BB000FFF714FD06468F480068204206D1FFF774
:100BC0000DFD801B03250228F5D900E105988068FA
:100BD000894C012805D005285AD1F86D042101431C
:100BE000F965F86D03990843F8655BE03B688B4352
:100BF0003B6081043B688B433B60002A3AD044044D
:100C0000FFF7ECFC06463868204200D023E7FFF7E8
:100C1000E5FC801B6428F6D9D9E001210A02904343
:100C200038608C02FFF7DAFC06463868204200D1B3
:100C300015E7FFF7D3FC801B0228F6D9C7E07F2019
:100C40000002796881430598406900020843786092
:100C500005E7012188433866FFF7C0FC0646386E79
:100C6000800700D40CE7FFF7B9FC801B032502289E
:100C7000F5D9ACE04404FFF7B1FC064638682042E1
:100C800000D1E8E6FFF7AAFC801B6428F6D99EE0B5
:100C9000F96D039A9143F965F96D04229143F96561
:100CA00000280CD0FFF79AFC0646F86D800713D495
:100CB000FFF794FC801B0325A042F6D987E0FFF7DD
:100CC0008DFC0646F86D800706D5FFF787FC801B74
:100CD0000325A042F6D97AE002980028059A03D1AC
:100CE000F86B01998843F863D469002C76D0B86812
:100CF00038210140102926D1012C20D0F868032189
:100D00000140059B1A6A914219D1702101405A6A2B
:100D1000914214D17F21090201409A6A1202914244
:100D20000DD11F2149040140DA6A9142049D4ED140
:100D3000072149070840196B884248D14EE0049DBD
:100D4000284607B0F0BD012529063868049188437C
:100D50003860FFF743FC0646022C0BD103956C0666
:100D60003868204211D0FFF739FC801B0325022888
:100D7000F6D92CE06C06386820422BD0FFF72EFC09
:100D8000801B03250228F6D921E0F8681C490140A0
:100D9000059E20366DCE08431043190201432943B6
:100DA0003143F960386804990843386003980007B4
:100DB000F9680143F960FFF711FC064638682042E4
:100DC0000CD1FFF70BFC801B03250228F6D928461F
:100DD00007B0F0BDF86809490140F96000252846D0
:100DE00007B0F0BD001002400024F4001400002001
:100DF000080000200070004088130000FCFFFEEF98
:100E00008C80C11FF0B585B000280CD00446054683
:100E10005C3541208600606A002807D000202061F0
:100E20002046143007E0012005B0F0BD6068B042F4
:100E300003D020461C30002101600027A76268789B
:100E4000002804D100202870204600F059F8022024
:100E500004950190687020680168402291430390D6
:100E60000160E168254A012591422A4600D33A46AD
:100E70001203ED020D430F2738020290854201D084
:100E80000025A5626568A768354021239B023B4089
:100E90005B192569019805401D43606901231840CD
:100EA0002843FC36A7693E400643E06938250540E3
:100EB0003543206A802606402E435803A56A054024
:100EC0003543039E3560380C0425054002980140E7
:100ED0000A432A43606A102101401143606B0822D3
:100EE00002400A437260D802F1698143F161002037
:100EF000206604994B7005B0F0BDC04601070000A4
:100F000080B586B000681249884201D006B080BD25
:100F1000012001030F4AD3680B43D360D3680B4011
:100F2000019301991168014311601168014000911A
:100F3000002005900490039002200290F020019080
:100F400005200007009901A9FFF76EFA06B080BDE1
:100F50000030014034100240F0B587B017460E460D
:100F6000044641208100254644356068884203D10B
:100F7000A068002800D184E0287E012802D1022048
:100F800007B0F0BD03A88AC001272F76FFF726FB24
:100F90000690687E01285CD1002E3846059900D164
:100FA000DFE00029384600D1DBE0029704206876B4
:100FB000002222666980E28726642980A287A263D4
:100FC000E264226507200002E16801230590814266
:100FD0001E4600D9164636031F0322685068B843E0
:100FE00080195060D803A368834208D11068402359
:100FF00098431060012080031368834313601068D6
:101000004006049E039F03D41068402303431360EB
:101010006A880598401C81423ED2002A6CD0701C20
:101020000CD11DE0007B216C0870206C401C2064FA
:101030006888401E6880688800285DD020688168C4
:10104000C907EFD1FFF7CAFA0699401AB042F2D3A6
:101050003CE0022085E0FFF7C1FA688800284BD009
:1010600020688168C907F6D0007B216C0870206C6D
:10107000401C20646888401E688068880028EFD182
:101080003AE00420687600932046314632463B46DB
:1010900000F070F907B0F0BD002A2DD0701C0BD104
:1010A0001BE0216CC0680880881C20646888401E92
:1010B0006880688800281FD020688168C907F0D13F
:1010C000FFF78CFA0699401AB042F2D3032047E0AA
:1010D000FFF784FA688800280ED020688168C90765
:1010E000F6D0216CC0680880881C20646888401E87
:1010F000688068880028F0D16068B8420CD1A06888
:101100000121CA03904202D08902884204D120689A
:10111000016840229143016020463146069A00F062
:10112000DBFC002805D0206E2021084320662166C4
:1011300013E06068B84210D1A0680121CA03904250
:1011400002D08902884208D103204102204632465B
:10115000069B00F011FC0028E5D1206E411E88415D
:10116000029F002129766F7607B0F0BDF0B587B0F9
:10117000044606464436307E012802D1022007B0DC
:10118000F0BD15460491059301273776FFF726FA3F
:101190000390707E01285FD1049A002A384600D15E
:1011A000E1E0002D384600D1DDE002970327777695
:1011B00000202066E587A587A26320643080E06474
:1011C00020650190708020680121CA03A3689342C2
:1011D00007D1026840239A430260890302680A43E8
:1011E00002600168490603D4016840220A43026094
:1011F00061684A424A416B1E594259411143E268B3
:101200005B4B3D469A423ED3002907D0049A118891
:10121000C160901CA063E08F401EE087E08F002833
:10122000039F71D00598401C0BD11CE0A16B0A886C
:10123000C260881CA063E08F401EE087E08F00281A
:1012400062D0206881688907F0D4FFF7C7F9C01B16
:1012500005998842F2D33FE0022084E0FFF7BEF90F
:10126000E08F002850D0206881688907F6D5A16BEF
:101270000A88C260881CA063E08F401EE087E08F70
:101280000028F0D140E0002908D0049909780173C2
:10129000A06B401CA063E08F401EE087E08F002819
:1012A000039F31D00598401C0CD11DE0A16B09783B
:1012B0000173A06B401CA063E08F401EE087E08FAD
:1012C000002821D0206881688907EFD4FFF786F9CC
:1012D000C01B05998842F2D3029F284643E0FFF7DE
:1012E0007DF9E08F00280FD0206881688907F6D546
:1012F000A16B09780173A06B401CA063E08F401EB6
:10130000E087E08F0028EFD103200490C10220463F
:10131000059D2A463B4600F02FFB00280FD12046B2
:1013200029463A4600F0D8FB002808D1049841022B
:1013300020462A463B4600F01FFB002804D0206EC2
:101340002021084320662166A068002807D1019863
:1013500006902068C1680691806806900698206E05
:10136000411E8841029F00223276777607B0F0BD99
:1013700001070000F0B585B0044607464437387EC3
:10138000012802D1022005B0F0BD1D460292039152
:1013900001263E76FFF722F932460646797E01297C
:1013A00000D0ABE003980028104600D148E1029835
:1013B0000028104600D143E1002D104600D13FE146
:1013C0000192787E042801D00520787600232366D8
:1013D0007D80E587E1689E4A0120009191420246A6
:1013E00000D31A46049616030103206842688A4314
:1013F00091194160029921643D800399A163E364DE
:101400002365A5870168490603D4016840220A4381
:1014100002600A9E61684A424A41691E4B424B4142
:10142000134300998A4A914279D3002B07D0039A3B
:101430001188C160901CA063E08F401EE0870125E9
:10144000701C32D101E0FFF7C9F8E08F002803D10A
:101450007888002800D1CFE02068816889070DD501
:10146000E18F00290AD0012D08D1A16B0A88C26042
:10147000891CA163E18F491EE18700258168C907A6
:10148000E1D079880029DED0216CC0680880881CF2
:1014900020647888401E78800125D4E7FFF79EF805
:1014A0000499401AB04200D3C8E0E08F002803D16D
:1014B0007888002800D19FE02068816889070DD5D1
:1014C000E18F00290AD0012D08D1A16B0A88C260E2
:1014D000891CA163E18F491EE18700258168C90746
:1014E000DCD079880029D9D0216CC0680880881C9C
:1014F00020647888401E78800125CFE70192412042
:10150000820063680220934200D098E0A268002A1B
:1015100000D094E00429019A00D143E790E0002B29
:1015200008D0039909780173A06B401CA063E08F79
:10153000401EE0870125701C33D101E0FFF74EF813
:10154000E08F002802D17888002855D02068816873
:1015500089070FD5E18F00290CD0012D0AD1A16B8D
:1015600009780173A06B401CA063E08F401EE087E8
:10157000206800258168C907E0D079880029DDD07E
:10158000007B216C0870206C401C20647888401E11
:1015900078800125D2E7FFF721F80499401AB0427C
:1015A0004CD2E08F002802D17888002824D020680F
:1015B000816889070FD5E18F00290CD0012D0AD150
:1015C000A16B09780173A06B401CA063E08F401EE3
:1015D000E087206800258168C907DCD07988002968
:1015E000D9D0007B216C0870206C401C2064788866
:1015F000401E78800125CEE703200390C1022046DB
:101600003246049D2B4600F0B7F900280FD1204642
:1016100031462A4600F060FA002808D103984102BA
:10162000204632462B4600F0A7F900280DD0206E48
:101630002021084320662166012000E00320019A52
:10164000002139767A7605B0F0BD0020F7E7C04674
:1016500001070000401E010E01D00120704707491C
:10166000074A5060074803680B400321890759184F
:10167000016000209060072111607047FFFFFF00AC
:1016800010E000E020ED00E0F0B583B0002841D08C
:101690000446074684377868002804D10020387053
:1016A000204600F059F82420786020680168012560
:1016B000A9430160204600F0E7FA012827D0A06A7C
:1016C000002802D0204600F075FA0920C0022168E7
:1016D0004A6882434A6088682A2290438860086882
:1016E0000126304308600025FD60FEF777FF0346C2
:1016F00020680168090713D516480090710500227B
:101700002046029300F076FB002807D003252846E8
:1017100003B0F0BD0125284603B0F0BD2068029B50
:10172000006840070CD50B480090B1050022204608
:1017300000F060FB002803D00325284603B0F0BD6D
:1017400020207860B860E5663D702567284603B0C4
:10175000F0BDC046FFFFFF0180B586B00068844938
:10176000884201D006B080BD5F48826801210591A2
:101770004B041A43826082681A400092009A026801
:101780000A43026000680840009000200490039023
:10179000022002900C20019005200007009901A969
:1017A000FEF742FE06B080BDF0B585B007460446A0
:1017B0005434606B202812D1012600290CD0154624
:1017C000002A09D001263203B86890420BD1C8071D
:1017D00009D03869002806D1304605B0F0BD022690
:1017E000304605B0F0BD019103930026E663212049
:1017F00060630292FEF7F2FE049065802580B8686F
:101800000299884202D13869002802D00296019ECE
:1018100002E000260198029003990CE0029A1088D9
:101820001849084039688862921C02922E46039932
:101830006088401E60806088002810D00091802160
:10184000002538462A46049B00F0D4FA002810D11F
:10185000002EE3D0307839688862761CE7E7009183
:101860004021002638463246049B00F0C3FA002887
:1018700003D00326304605B0F0BD2020606330461B
:1018800005B0F0BDFF010000FEE7000070B586B0B6
:10189000002605961448016804221143016001687E
:1018A0001140009100990168012421430160016801
:1018B00021400091009901680222114301600068F3
:1018C000104000900098094D284621462246FEF718
:1018D0007DFE049603960294019401A92846FEF722
:1018E000A3FD06B070BDC046341002400004005095
:1018F000B0B50F4800210F4A082307240162416256
:101900008162C4620163436301239B042402412575
:10191000AD0024C0016044608160C1600361416129
:101920000838FFF76FFA002801D0FEF769FDB0BD57
:10193000CC0000200030014010B50C4800210C22E2
:101940000B4B016241628162E124640218C00160B4
:1019500041608160C260016141610838FFF794FE17
:10196000002801D0FEF74CFD10BDC046300100201C
:1019700000440040FEE77047F0B587B0049314467A
:101980000E46054605A800270770FEF727FE0499B6
:10199000081A02940419FEF721FE04908148006899
:1019A00023214143080D6043069003952D68A868E4
:1019B000304233D0019703214F020298401C30D0AF
:1019C000BE4200911CD104E0039800688068384250
:1019D00045D0287B05A908700598FEF7FFFD0499FE
:1019E000401AA0423ED206980699491E0691002848
:1019F000EAD10446E8E703980068806830422ED0B8
:101A0000FEF7ECFD0499401AA0422BD206980699E5
:101A1000491E06910028EED10446ECE7384607B08F
:101A2000F0BDBE4247D1287B05A908700598A8687B
:101A3000384214D0287B05A908700598A868384258
:101A40000DD0287B05A908700598A868384206D0F3
:101A5000287B05A908700598A8683842E3D1019849
:101A600007B0F0BD039C20684168E02291434160CB
:101A70004121890062688A420BD1A1680122D30307
:101A8000994202D09202914203D1016840229143CF
:101A9000016001214A03A36A5C34934205D10368C3
:101AA0009343036003681343036000202070617058
:101AB000009807B0F0BD0199A868304208D0A86826
:101AC000304205D0A868304202D0A8683042F3D135
:101AD000084607B0F0BDC046F0B583B015460F46C6
:101AE0000446FEF77BFD281AC519FEF777FD06466A
:101AF0002C4800684001000D6843029022689168FC
:101B00000020090622D5791C1DD0019027465C379C
:101B100003E020688068000641D5FEF75FFD801B6A
:101B2000A84215D202980299491E02910028F0D1CC
:101B30000546EEE79168090608D59168090605D5BE
:101B40009168090602D591680906F3D403B0F0BD87
:101B500020684168E0229143416041218900626828
:101B60008A420BD1A1680122D303994202D092028A
:101B7000914203D1016840229143016001214A034F
:101B8000A36A934205D10368934303600368134338
:101B90000360002038707970032003B0F0BD019815
:101BA00003B0F0BD14000020704780B5FEF71AFDA9
:101BB00080BD7047B0B5816ACA070CD18A0714D4BA
:101BC0004A071CD40A0724D4CA062CD48A0634D463
:101BD0004A063CD44CE00122520403685C689443FA
:101BE000C26A22435A608A07EAD5012212040368B6
:101BF0005C689443026B22435A604A07E2D5012293
:101C0000920403685C689443426B22435A600A075B
:101C1000DAD50122D20303685C689443826B2243C5
:101C20005A60CA06D2D50122120303689C68944305
:101C3000C26B22439A608A06CAD501225203036806
:101C40009C689443026C22439A604A0610D5012294
:101C50001305026854689C43456C2C4354609D42B4
:101C600006D103235B0554689C43836C2343536074
:101C7000090607D50121C904026853688B43C06C6B
:101C800018435060B0BD0000F0B581B00446006854
:101C900001684B4A0A40A16823690B4361691943F3
:101CA0001143E269114301600321090343688B4337
:101CB000E16819434160A169236A0B438168414D82
:101CC0000D401D438560C36A0F218B43616A0B433E
:101CD000C3623D4B984209D03C4B984208D13C48E6
:101CE00000688007000F3BA31F5802E0002700E0B8
:101CF0001027264668360125EB033A489A4210D150
:101D0000082F55D87F443F797F00BF4404512351A9
:101D10001C5151512200FEF711FE002817D0616AB4
:101D200018E0082F44D8C0467F443F797F00BF4465
:101D3000043F2D3F263F3F3F2C00FEF7FFFD0028CC
:101D400021D0616A22E0FEF70BFE0028E7D10025D2
:101D50002EE018464900244A515A00F0CFF94000BD
:101D600061684A08101800F0C9F90246103A1F4984
:101D70008A421DD201400007400F084315E0FEF7DC
:101D8000EFFD0028DDD1002512E018464900164A73
:101D9000515A00F0B3F961684A08101800F0AEF922
:101DA00001461039114A914202D22168C8600025CB
:101DB0000F48306000206067A067284601B0F0BD82
:101DC000F369FFCFFFF4FF110044004000380140E9
:101DD0005410024000000000040000000200000057
:101DE000080000000024F4007C230008F0FF00003D
:101DF00001000100F0B587B015460E46044607689D
:101E0000F9693140891B4A424A410020AA4224D143
:101E100006930494224684320C9C002C1FD0611C33
:101E200044D1F9693140891B4A424A41AA4214D13E
:101E3000F9693140891B4A424A41AA420DD1F969E8
:101E40003140891B4A424A41AA4206D1F9693140D0
:101E5000891B4A424A41AA42E3D007B0F0BD03922F
:101E6000FEF7BCFB049FEFF31081012080F3108884
:101E70000D2252013B681C6894431C6081F310885A
:101E8000EFF3108180F310883A689368834393607E
:101E900081F310882020039A5060104608300021FA
:101EA000117020210160032007B0F0BD0392029061
:101EB00001200190C0020590049F06E0C0693040F7
:101EC000801B41424141A9422DD1FEF787FB069973
:101ED000401AA042C7D8386801684907EED5C169E1
:101EE000059A1142EAD005990162EFF31080019C36
:101EF00084F310880D2149013A6813688B431360FD
:101F000080F31088EFF3108084F3108839688A68B2
:101F1000A2438A6080F310882020039A506090606A
:101F200010460C30BBE7029807B0F0BDF0B581B0A9
:101F30006C4690202070334F78680125324E214640
:101F40002A463346FFF712F90020207078682146B0
:101F50002A463346FFF70AF9786821462A4633466F
:101F6000FFF704F9786821462A463346FFF7FEF862
:101F7000786821462A463346FEF7EEFF7868009FD0
:101F800021462A463346FEF7E7FF380221784018FB
:101F90001C49088001B0F0BDF0B581B06C469020BE
:101FA0002070184F78680125174E21462A4633467F
:101FB000FFF7DCF800202070786821462A46334677
:101FC000FFF7D4F8786821462A463346FFF7CEF863
:101FD000786821462A463346FFF7C8F878682146D4
:101FE0002A463346FEF7B8FF7868009F21462A4606
:101FF0003346FEF7B1FF38022178401880B201B0B5
:10200000F0BDC0460C000020FFFF0000704700003C
:1020100080B582B00190044801A90122034BFFF76B
:10202000C3FB019802B080BD30010020FFFFFF001C
:1020300092B0FEF7E1FA00260B960A9609960896EA
:102040000796069601246002FEF73EFB600711909A
:102050006004109008200F900E9602250D950C95A7
:1020600040200A9009967D2084002046F43808908C
:10207000059505A8FEF7B8FC002803D0EFF3108003
:1020800072B6FEE70496039607200190029501A818
:102090002946FEF757FB002803D0EFF3108072B6F5
:1020A000FEE7FFF7F3FBFFF723FCFFF745FCFFF725
:1020B0003DFFFFF771FF01460AA0FEF779F80E4DCC
:1020C0000126002228463146FEF780FA2046FEF718
:1020D0009BF9284631463246FEF778FA2046FEF74D
:1020E00093F9EDE7466C6173682069643A203058D3
:1020F00025580D0A000000000004005043088B42E0
:102100001AD3002203098B4279D3030A8B425ED390
:10211000030B8B4242D3030C8B4227D30902FF22CD
:1021200012BA030C8B4202D31212090203D0030B22
:102130008B4233D31AE0D3E0411A8041401C7047F0
:1021400003460B4371D443088B42F5D300220309A5
:102150008B4254D3030A8B4239D3030B8B421DD3DA
:10216000030C8B4202D394466EE0090AC30B8B42E8
:1021700001D3CB03C01A5241830B8B4201D38B0393
:10218000C01A5241430B8B4201D34B03C01A524138
:10219000030B8B4201D30B03C01A5241C30A8B427B
:1021A00001D3CB02C01A5241830A8B4201D38B0266
:1021B000C01A5241430A8B4201D34B02C01A52410A
:1021C000030A8B4201D30B02C01A5241CDD2C3097C
:1021D0008B4201D3CB01C01A524183098B4201D3F8
:1021E0008B01C01A524143098B4201D34B01C01AE3
:1021F000524103098B4201D30B01C01A5241C3085B
:102200008B4201D3CB00C01A524183088B4201D3C9
:102210008B00C01A524143088B4201D34B00C01AB5
:102220005241411A524110007047CA0F00D0494232
:10223000031000D34042534000229C4603098B42C6
:102240002DD3030A8B4212D38901FC2212BA030A4E
:102250008B420CD3890192118B4208D389019211D0
:102260008B4204D3890137D0921100E08909C30958
:102270008B4201D3CB01C01A524183098B4201D357
:102280008B01C01A524143098B4201D34B01C01A42
:10229000524103098B4201D30B01C01A5241C308BA
:1022A0008B4201D3CB00C01A524183088B4201D329
:1022B0008B00C01A5241D9D243088B4201D34B0044
:1022C000C01A5241411A00D201465241104663469B
:1022D0005B1000D34042704763465B1000D340421E
:1022E00001B50021004201D0C9430846C046C0469E
:1022F00002BD303132333435363738394142434408
:10230000454640305800303132333435363738396D
:102310006162636465664030780000000000000080
:1023200000000000000000000000000000000000AD
:10233000000000000000000000000000010000009C
:10234000020000000300000004000000060000007E
:102350000700000008000000090000000000000065
:10236000000000000000000000000000010000006C
:102370000200000003000000040000000100020051
:102380000400060008000A000C00100020004000B5
:1023900080000001B82300080000002018000000A1
:1023A00004010008D023000818000020B007000036
:1023B00020010008000000000100000001000000F2
:1023C0000400000016EF0000CC0000200024F40000
:04000005080000C12E
:00000001FF
