:020000040800F2
:10000000A006002065010008E90E00085D0E00084A
:1000100000000000000000000000000000000000E0
:10002000000000000000000000000000850F000834
:100030000000000000000000EB0E0008870F000821
:100040007701000800000000770100087701000830
:1000500077010008770100087701000877010008A0
:100060000000000077010008770100087701000810
:100070007701000877010008770100080000000000
:100080007701000800000000000000007701000870
:1000900000000000770100087701000877010008E0
:1000A0007701000877010008770100087701000850
:1000B00077010008000000000000000000000000C0
:1000C00000F002F800F03EF80CA030C80838241800
:1000D0002D18671EA246AB4654465D46AC4201D180
:1000E00000F030F87E460F3EB6460FCC0126334274
:1000F00000D0FB1A3343A246AB46184788110000D4
:10010000A8110000103A02D378C878C1FAD8520773
:1001100001D330C830C101D504680C6070470000BD
:100120000023002400250026103A01D378C1FBD813
:10013000520700D330C100D50B6070471FB51FBDFB
:1001400010B510BD00F02DF81146FFF7F7FF00F0D5
:100150001FFF00F045F803B4FFF7F2FF03BC00F007
:100160004BF800000748804707480047FEE7FEE7D6
:10017000FEE7FEE7FEE7FEE704480549054A064BB1
:10018000704700008F0F0008C1000008A000002089
:10019000A0060020A0020020A002002070477047A7
:1001A0007047754600F024F8AE4605006946534690
:1001B000C008C000854618B020B5FFF7DDFF60BC61
:1001C000B64600260027C0C5C0C5C0C5C0C5C0C54D
:1001D000C0C5C0C5C0C5403D490849008D467047EF
:1001E00010B50446C046C0462046FFF7B4FF10BD18
:1001F000004870471000002001491820ABBEFEE700
:10020000260002007047EFF3108072B6FEE7000090
:10021000B0B5044600F0E6F80546601C02D09348ED
:100220000078041900F0DEF8401BA042FAD3B0BDFC
:10023000F0B58AB00A68002A00D1BEE00E466049D7
:10024000884201D0052100E0032100910027089792
:1002500009973C46029601900FE01A432A60641CFD
:1002600032681146E140BF1C089B1B1D0893099B87
:1002700008330993002900D19FE001250495A5408A
:100280002A400792EBD003231846B840C0433946B2
:1002900077683A461A40561E012E0697059112D8E5
:1002A00006460390019883683340029EF6688E40AC
:1002B0001E438660FB06DB0FA3404668AE431E4329
:1002C0004660039908E0032A0146019804D11A46C2
:1002D000029E069D059F1DE0C3680B40029EB56807
:1002E000059FBD401D43C560022A069D12D10391A2
:1002F0001C21089A11400F228A40E3089B00C31872
:100300001D6A954332698A4003992A431A627568C7
:1003100003222A40BA4003680B4013430360A90339
:10032000890F9CD01821099A11400F238B4003227A
:1003300025469543234A5219156E9D436032052385
:100340001B0798420AD0214B984205D0204B984277
:10035000009B04D1022302E0049B00E000238B40B9
:100360002B431360174D2A687168CB0208D5079B91
:100370001A432A606A688B0208D4079B9A4307E0F5
:10038000079B9A432A606A688B02F6D5079B1A433B
:100390006A600D4D6A688B0306D5079B1A436A6035
:1003A0002A68C90307D558E7079B9A436A602A68F9
:1003B000C90300D551E79A4350E70AB0F0BDC046E3
:1003C000000C005000180240801802400004005049
:1003D00000080050002A02D01822815070472822BD
:1003E00081507047054800687047C0461F48007834
:1003F00002490A68101808607047C0469C00002037
:1004000010B50124200208490A6802430A6003204B
:1004100000F00CF8002801D0204610BD00F028F8AC
:100420000024204610BDC0460020024070B50F4E8B
:1004300031780124002916D005467D20C00000F047
:1004400005FE01464148006800F000FE00F0ECFCAB
:10045000032D08D8002806D10024E043294622466F
:1004600000F01CF87560204670BDC04600000020FA
:1004700082B009484168012211434160416811403E
:1004800001910199110702680A430260006808405F
:100490000090009802B070473C100240002805D43C
:1004A0000322034693430A4A9A1803E00C220240AF
:1004B000064BD2188007C00E8901C9B28140FF23C4
:1004C00083401068984308431060704714ED00E0C3
:1004D00000E400E0F0B581B0032569021A4E32460F
:1004E000143A13688B430343136001246102002212
:1004F000884226D1FA4801683068400521D500922B
:10050000A70206204843124900F0A0FD201A022845
:1005100016D0316839420FD0012811D031683942E4
:100520000AD000280CD03168394205D0001D0328BC
:1005300006D031683942EAD1009A104601B0F0BDC8
:100540002A46104601B0F0BD14700040080000209B
:1005500040420F00012000025E490A6802430A601F
:100560007047C046F0B587B081788907584F01D4ED
:10057000002650E00590012319073A46203A1068FA
:100580000840049006D110680843106010680840C5
:10059000069006980292039101931E024D4C20682A
:1005A00030432060FFF71EFF0546206830420AD125
:1005B000FFF718FF401B0228F7D903260598049976
:1005C000002923D027E003200546010238680840AF
:1005D00011D00599496988420BD0386801990904FE
:1005E0003A680A433A603A688A433A603A490840AE
:1005F0003860C0075AD13A683748024005984169C7
:100600001143396000260499002904D1029B19681E
:10061000039A914319600568E90705D1A9060DD42D
:1006200001216A0416D42BE0394608390A680323ED
:100630009A43436813430B60A906F1D503210903CC
:100640003A46083A13688B438168194311600121C7
:100650006A0415D53A46083A1368204C23400C46E4
:1006600031460669334313601C4A521C96420E46BB
:10067000214605D10A043B46503B1C6814431C60CC
:100680002A0510D58D03032292033B46083B1C68C4
:100690009443C26814431C60AA4204D10804503F2A
:1006A000396801433960304607B0F0BDFFF79AFE64
:1006B0000646864C386880079DD4FFF793FE801B62
:1006C000A042F7D905982E46049900299ED0A2E7AA
:1006D0005C10024000700040FFFCFFFFFFFFFF3F87
:1006E000F0B583B00D46012100281BD00191029086
:1006F0007548006807242040A84216D2724908684D
:10070000A04328430860714EFFF76CFE07466E4811
:1007100000682040A84208D0FFF764FEC01BB0422A
:10072000F5D90321084603B0F0BD029E3068810769
:10073000674B0CD5410703D521031A680A431A6099
:100740000F2109021A688A43B16811431960C00772
:100750001BD15D4800682040A8422CD95A4908683E
:10076000A04328430860594FFFF73CFE0646564811
:1007700000682040A8421ED0FFF734FE801BB8421C
:10078000F5D90321084603B0F0BD0298406803285C
:100790005DD8810001A251588F46C046AD070008C0
:1007A000530800085D080008670800081946083962
:1007B0000968490559E0029A10784007444B05D56D
:1007C000200319688143D0680843186018688006C0
:1007D000400F22D01A6838210A403E48082A23D008
:1007E0001A680A40102A5ED1596803220A40032A77
:1007F00000D0394859684906490F491C00F026FCC9
:10080000334949684904490E484331494968490F09
:10081000491C00F01BFC2E4B06E018460838006807
:100820008004410F2C48C840196889093C220A40BD
:100830002A4989581F220A40D0402949086029487E
:100840000068FFF7F3FD0146084603B0F0BD596D9F
:100850000AE0194608390968890306E0194608398B
:100860000968890101E0996D8907019900D459E768
:100870001968A14301431960144FFFF7B3FD064601
:10088000134800683821014002984068C000814246
:1008900000D15EE7FFF7A6FD801BB842F0D9032127
:1008A000084603B0F0BD18680840202802D1012096
:1008B000C003B9E718680840182801D00020B3E742
:1008C0007D200002B0E7C0460020024088130000EF
:1008D0000810024000127A000024F40044120008BC
:1008E0000800002004000020F0B587B00125002892
:1008F00000D1ECE1049505900078C007F94F2AD0AB
:10090000B868F96803252A468A4338210140102037
:100910004840821850425041082914D0002812D172
:1009200005984268012001048A4208D005231B046F
:100930009A4200D0DAE082043B6813433B603A6895
:100940000A433A60DBE03868800304D505984068C4
:10095000002800D173E105980078800723D405981A
:10096000007800070CD5B86838210140182971D1EA
:10097000386E800704D505988069002800D15EE1B3
:10098000059A1078400700D42EE1B868382101405C
:10099000202974D1F86D800700D425E190680028E3
:1009A00000D021E14BE1B9683820084010214140D6
:1009B000FA6803252A4002235340CA185142514184
:1009C000002820D000291ED13868059AD168002956
:1009D00000D1A2E00721C9028843116901433960AF
:1009E000012001023A680A433A608402FFF7FAFCE8
:1009F00006463868204200D0A1E0FFF7F3FC801BD8
:100A00000228F6D963E139684905059B03D5D96801
:100A1000002900D113E17F2109027A688A435969CC
:100A200009021143796000280DD10720C0023968FE
:100A3000814318690843386038688004400FAA4928
:100A4000C140AA480160AA480068FFF7EFFC0028EF
:100A500085D0F4E0386E05998969002979D00121A3
:100A600008433866FFF7BEFC0646386E800787D419
:100A7000FFF7B8FC801B03250228F6D927E10120E7
:100A800003900107F86B0840029006D1F86B084309
:100A9000F863F86B08400690069801919548006845
:100AA000C00513D4039804029249086820430860E3
:100AB000FFF798FC06468F480068204206D1FFF7F2
:100AC00091FC801B03250228F5D900E10598806878
:100AD000894C012805D005285AD1F86D042101431D
:100AE000F965F86D03990843F8655BE03B688B4353
:100AF0003B6081043B688B433B60002A3AD044044E
:100B0000FFF770FC06463868204200D023E7FFF765
:100B100069FC801B6428F6D9D9E001210A029043C0
:100B200038608C02FFF75EFC06463868204200D130
:100B300015E7FFF757FC801B0228F6D9C7E07F2096
:100B40000002796881430598406900020843786093
:100B500005E7012188433866FFF744FC0646386EF6
:100B6000800700D40CE7FFF73DFC801B032502281B
:100B7000F5D9ACE04404FFF735FC0646386820425E
:100B800000D1E8E6FFF72EFC801B6428F6D99EE032
:100B9000F96D039A9143F965F96D04229143F96562
:100BA00000280CD0FFF71EFC0646F86D800713D412
:100BB000FFF718FC801B0325A042F6D987E0FFF75A
:100BC00011FC0646F86D800706D5FFF70BFC801B6D
:100BD0000325A042F6D97AE002980028059A03D1AD
:100BE000F86B01998843F863D469002C76D0B86813
:100BF00038210140102926D1012C20D0F86803218A
:100C00000140059B1A6A914219D1702101405A6A2C
:100C1000914214D17F21090201409A6A1202914245
:100C20000DD11F2149040140DA6A9142049D4ED141
:100C3000072149070840196B884248D14EE0049DBE
:100C4000284607B0F0BD012529063868049188437D
:100C50003860FFF7C7FB0646022C0BD103956C06E4
:100C60003868204211D0FFF7BDFB801B0325022806
:100C7000F6D92CE06C06386820422BD0FFF7B2FB87
:100C8000801B03250228F6D921E0F8681C490140A1
:100C9000059E20366DCE08431043190201432943B7
:100CA0003143F960386804990843386003980007B5
:100CB000F9680143F960FFF795FB06463868204262
:100CC0000CD1FFF78FFB801B03250228F6D928469D
:100CD00007B0F0BDF86809490140F96000252846D1
:100CE00007B0F0BD001002400024F400080000200E
:100CF000040000200070004088130000FCFFFEEF9D
:100D00008C80C11F70B5002831D0044606462836B5
:100D10007078002807D1002030701120C002606078
:100D2000204600F057F8022070702068C168C9069C
:100D30004AD4CA21416253214162C168490618D48C
:100D4000C16880220A43C260FFF74CFB0546206859
:100D5000C16849060DD4FFF745FB401B7D21C90042
:100D60008842F4D9032070702168CA681AE0012013
:100D700070BD8169164A0A408261A16862690A43AE
:100D8000E169114382690A43826121690161E16875
:100D9000090402690A430261204600F0A7F82168AD
:100DA000002802D0FF224A6270BD072040078A69EE
:100DB00082438A61206A626A0243A06910438A6999
:100DC00002438A61FF20486201207070002070BDDC
:100DD000BFFF8FFB10B588B00021069105910491EB
:100DE000039100683F49884201D008B010BD01243A
:100DF000200207906004029002A8FFF7B3FB0028CE
:100E000001D0FFF700FAE00306490A6A02430A62CA
:100E1000A0020A6802430A60096801400191019832
:100E200008B010BD3C100240401E010E01D0012050
:100E300070470749074A5060074803680B40032181
:100E400089075918016000209060072111607047E0
:100E5000FFFFFF0010E000E020ED00E0FEE70000F3
:100E600070B586B00026059610480168042211432B
:100E7000016001681140009100990168022211434C
:100E8000016000681040009000986F4C01252046DA
:100E900029462A46FFF79EFA049603960295019585
:100EA00001A92046FFF7C4F906B070BD3410024016
:100EB00010B50B480021FF227F230A4C0460012457
:100EC000A4078160C360026141618161C161046204
:100ED0004162FFF717FF002801D0FFF794F910BD1A
:100EE0007000002000280040FEE77047F0B581B098
:100EF0000446234F38460C38016880229143016034
:100F00007D20C6003868800615D42068C168A022FC
:100F10009143C160FFF766FA05462068C068800605
:100F200023D4FFF75FFA401BB042F6D929210320F2
:100F3000605401B0F0BD38682021009188433860CA
:100F40002068C168A0229143C160FFF74BFA0546B3
:100F50002068C06880060BD4FFF744FA401BB042FB
:100F6000F6D929210320605403E0002001B0F0BD30
:100F700000203968009A1143396001B0F0BDC046C5
:100F800018280040704780B5FFF730FA80BD7047E1
:100F900092B0FFF735FA00260B960A960996089646
:100FA0000796069601277802FFF794FAFFF7D2FA20
:100FB0002448016818229143016078071190780451
:100FC000109008200F900E9602250D950C9540204C
:100FD0000A9009967D2084002046F43808900797EF
:100FE0000620059005A8FFF77FFC002803D0EFF34B
:100FF000108072B6FEE704960396072001900295D2
:1010000001A82946FFF76CFB002803D0EFF31080FE
:1010100072B6FEE7FFF724FFFFF74AFF0A4D0126ED
:10102000002228463146FFF7D5F92046FFF7F0F8B1
:10103000284631463246FFF7CDF92046FFF7E8F85B
:10104000EDE7C0465C1002400004005043088B42AC
:101050001AD3002203098B4279D3030A8B425ED351
:10106000030B8B4242D3030C8B4227D30902FF228E
:1010700012BA030C8B4202D31212090203D0030BE3
:101080008B4233D31AE0D3E0411A8041401C7047B1
:1010900003460B4371D443088B42F5D30022030966
:1010A0008B4254D3030A8B4239D3030B8B421DD39B
:1010B000030C8B4202D394466EE0090AC30B8B42A9
:1010C00001D3CB03C01A5241830B8B4201D38B0354
:1010D000C01A5241430B8B4201D34B03C01A5241F9
:1010E000030B8B4201D30B03C01A5241C30A8B423C
:1010F00001D3CB02C01A5241830A8B4201D38B0227
:10110000C01A5241430A8B4201D34B02C01A5241CA
:10111000030A8B4201D30B02C01A5241CDD2C3093C
:101120008B4201D3CB01C01A524183098B4201D3B8
:101130008B01C01A524143098B4201D34B01C01AA3
:10114000524103098B4201D30B01C01A5241C3081B
:101150008B4201D3CB00C01A524183088B4201D38A
:101160008B00C01A524143088B4201D34B00C01A76
:101170005241411A524110007047CA0F00D04942F3
:10118000031000D34042534000229C4603098B4287
:101190002DD3030A8B4212D38901FC2212BA030A0F
:1011A0008B420CD3890192118B4208D38901921191
:1011B0008B4204D3890137D0921100E08909C30919
:1011C0008B4201D3CB01C01A524183098B4201D318
:1011D0008B01C01A524143098B4201D34B01C01A03
:1011E000524103098B4201D30B01C01A5241C3087B
:1011F0008B4201D3CB00C01A524183088B4201D3EA
:101200008B00C01A5241D9D243088B4201D34B0004
:10121000C01A5241411A00D201465241104663465B
:101220005B1000D34042704763465B1000D34042DE
:1012300001B50021004201D0C9430846C046C0465E
:1012400002BD0000000000000000000000000000DF
:10125000000000000000000000000000000000008E
:101260000000000001000000020000000300000078
:101270000400000006000000070000000800000055
:1012800009000000A8120008000000201000000063
:1012900004010008B81200081000002090060000A9
:1012A0002001000800000000010000000400000010
:0812B0000024F400000000001E
:04000005080000C12E
:00000001FF
